:1000000000000020F50400003B4E0000414E0000BF
:10001000474E00004D4E0000534E0000000000000F
:100020000000000000000000000000006505000066
:10003000594E0000000000000B0600006B06000097
:10004000C94C0000D74C0000E54C0000F34C000008
:10005000014D00000F4D00001D4D00002B4D000014
:10006000394D0000474D0000554D0000634D000024
:10007000714D00007F4D00008D4D00009B4D000034
:10008000A94D00005F4E0000654E00006B4E000061
:10009000714E0000774E00007D4E0000834E000040
:1000A000894E00008F4E0000954E00009B4E0000D0
:1000B000A14E0000A74E0000AD4E0000B74D00005D
:1000C000B34E0000C54D0000B94E0000D34D0000F6
:1000D000BF4E0000E14D0000C54E0000CB4E0000B9
:1000E000D14E0000D74E0000DD4E0000E34E000070
:1000F000E94E0000EF4E0000F54E0000FB4E000000
:1001000005050000050500000505000005050000C7
:10011000014F0000074F00000D4F0000134F00007B
:10012000194F00001F4F0000254F00002B4F00000B
:10013000314F0000374F00003D4F0000434F00009B
:10014000494F00004F4F0000EF4D0000554F000099
:10015000FD4D00005B4F0000614F0000674F000045
:100160006D4F0000734F0000794F00007F4F00007B
:10017000854F00008B4F0000914F0000974F00000B
:100180009D4F000005050000050500000505000065
:100190000505000005050000050500000505000037
:1001A0000505000005050000050500000505000027
:1001B0000505000005050000050500000505000017
:1001C0000505000005050000050500000505000007
:1003F000050500000505000005050000FFFFFFFFE3
:10040000FFFFFFFFFFFFFFFFFFFFFFFFFEFFFFFFFD
:1004400010B5054C237833B9044B13B10448AFF30E
:1004500000800123237010BDB010002000000000B8
:10046000B4C5000008B5034B1BB103490348AFF303
:10047000008008BD00000000B4100020B4C50000DA
:10048000154B002B08BF134B9D46A3F5803A002166
:100490008B460F461348144A121A08F0B5FE0F4B4C
:1004A000002B00D098470E4B002B00D0984700201F
:1004B000002104000D000D48002802D00C4808F06F
:1004C00081FB08F0C9FB2000290004F0D9FB08F0EB
:1004D00085FB00BF000008000000002000000000B5
:1004E000B1490000B0100020A8430020C58B0000D7
:1004F000FD8B000072B604F0D9FE04F071FE62B606
:10050000FFF7BEFFFFF7FEBF80F309887047EFF3E8
:1005100009807047684680F309885A480078C00708
:1005200014BF0220032080F314887047DFF858C1FD
:10053000EFF305831B0618BF6047EFF31483DB0757
:1005400008BF604700DF7047DFF840C1EFF3058365
:100550001B0618BF6047EFF31483DB0708BF604733
:1005600000DF7047EFF30980816911F8021CE1BBDD
:1005700090E80F1010B5E047BDE81040EFF3098C8C
:100580008CE80700424B93E80600914208BF704791
:1005900041B91EF0100F16D13E49086820F0010045
:1005A000086010E01EF0100F06BF2CED108A01202D
:1005B000002081F825002CE9F00FC1F828C00CB408
:1005C00006F052FA0CBC1A60D2F828C0BCE8F00F52
:1005D00092F8250000280EBF6FF0020E6FF0120E89
:1005E000BCEC108A8CF30988704710B52A4A12684F
:1005F000914209D8294C54F8214090E80F10A047A7
:10060000EFF3098C8CE80F0010BD10B506F0B0F9BF
:10061000BDE810401E4B93E80600914208BF7047AA
:10062000EFF3098C1EF0100F06BF2CED108A01208D
:10063000002081F825002CE9F00FC1F828C00CB487
:1006400006F012FA0CBC1A60D2F828C0BCE8F00F11
:1006500092F8250000280EBF6FF0020E6FF0120E08
:10066000BCEC108A8CF30988704710B506F0DEF9EF
:10067000FFF7CEBF10B506F0D7F906F0D7F9FFF7B0
:10068000C7BF0000B4B60000F562000011630000AF
:100690004443002034EF00E000000000FCFFFFFFB7
:1006A00081F0004102E000BF83F0004330B54FEA23
:1006B00041044FEA430594EA050F08BF90EA020F90
:1006C0001FBF54EA000C55EA020C7FEA645C7FEA23
:1006D000655C00F0E2804FEA5454D4EB5555B8BF46
:1006E0006D420CDD2C4480EA020281EA030382EAB7
:1006F000000083EA010180EA020281EA0303362D49
:1007000088BF30BD11F0004F4FEA01314FF4801C1B
:100710004CEA113102D0404261EB410113F0004F2D
:100720004FEA03334CEA133302D0524263EB4303E4
:1007300094EA050F00F0A780A4F10104D5F1200E82
:100740000DDB02FA0EFC22FA05F2801841F10001DD
:1007500003FA0EF2801843FA05F359410EE0A5F1B1
:1007600020050EF1200E012A03FA0EFC28BF4CF0E2
:10077000020C43FA05F3C01851EBE37101F0004598
:1007800007D54FF0000EDCF1000C7EEB00006EEBA5
:100790000101B1F5801F1BD3B1F5001F0CD349082F
:1007A0005FEA30004FEA3C0C04F101044FEA445286
:1007B00012F5800F80F09A80BCF1004F08BF5FEA0D
:1007C000500C50F1000041EB045141EA050130BDED
:1007D0005FEA4C0C404141EB010111F4801FA4F190
:1007E0000104E9D191F0000F04BF01460020B1FAE5
:1007F00081F308BF2033A3F10B03B3F120020CDA1D
:100800000C3208DD02F1140CC2F10C0201FA0CF0FA
:1008100021FA02F10CE002F11402D8BFC2F1200C5F
:1008200001FA02F120FA0CFCDCBF41EA0C01904015
:10083000E41AA2BF01EB0451294330BD6FEA04045E
:100840001F3C1CDA0C340EDC04F11404C4F1200249
:1008500020FA04F001FA02F340EA030021FA04F35B
:1008600045EA030130BDC4F10C04C4F1200220FAB2
:1008700002F001FA04F340EA0300294630BD21FAF0
:1008800004F0294630BD94F0000F83F4801306BFB6
:1008900081F480110134013D4EE77FEA645C18BFAA
:1008A0007FEA655C29D094EA050F08BF90EA020F41
:1008B00005D054EA000C04BF1946104630BD91EA39
:1008C000030F1EBF0021002030BD5FEA545C05D13C
:1008D0004000494128BF41F0004130BD14F580047B
:1008E0003CBF01F5801130BD01F0004545F0FE41EF
:1008F00041F470014FF0000030BD7FEA645C1ABF24
:10090000194610467FEA655C1CBF0B46024650EA5A
:10091000013406BF52EA033591EA030F41F4002186
:1009200030BD00BF90F0000F04BF0021704730B50C
:100930004FF4806404F132044FF000054FF00001E1
:1009400050E700BF90F0000F04BF0021704730B5A2
:100950004FF4806404F1320410F0004548BF404277
:100960004FF000013EE700BF42004FEAE2014FEACC
:1009700031014FEA02701FBF12F07F4393F07F4FA7
:1009800081F06051704732F07F4208BF704793F0AA
:100990007F4F04BF41F40021704730B54FF46074BD
:1009A00001F0004521F000411CE700BF50EA0102C0
:1009B00008BF704730B54FF000050AE050EA010269
:1009C00008BF704730B511F0004502D5404261EBD9
:1009D00041014FF4806404F132045FEA915C3FF41A
:1009E000D8AE4FF003025FEADC0C18BF03325FEAB7
:1009F000DC0C18BF033202EBDC02C2F1200300FA68
:100A000003FC20FA02F001FA03FE40EA0E0021FA8C
:100A100002F11444BDE600BF70B54FF0FF0C4CF47A
:100A2000E06C1CEA11541DBF1CEA135594EA0C0F2C
:100A300095EA0C0F00F0DEF82C4481EA030621EA67
:100A40004C5123EA4C5350EA013518BF52EA0335A2
:100A500041F4801143F4801338D0A0FB02CE4FF054
:100A60000005E1FB02E506F00042E0FB03E54FF084
:100A70000006E1FB03569CF0000F18BF4EF0010E7C
:100A8000A4F1FF04B6F5007F64F5407404D25FEA78
:100A90004E0E6D4146EB060642EAC62141EA55512B
:100AA0004FEAC52040EA5E504FEACE2EB4F1FD0C6D
:100AB00088BFBCF5E06F1ED8BEF1004F08BF5FEAEB
:100AC000500E50F1000041EB045170BD06F000469D
:100AD00046EA010140EA020081EA0301B4EB5C044A
:100AE000C2BFD4EB0C0541EA045170BD41F4801142
:100AF0004FF0000E013C00F3AB8014F1360FDEBF67
:100B0000002001F0004170BDC4F10004203C35DA42
:100B10000C341BDC04F11404C4F1200500FA05F3C5
:100B200020FA04F001FA05F240EA020001F0004266
:100B300021F0004110EBD37021FA04F642EB0601DC
:100B40005EEA430E08BF20EAD37070BDC4F10C0406
:100B5000C4F1200500FA04F320FA05F001FA04F2CA
:100B600040EA020001F0004110EBD37041F10001B6
:100B70005EEA430E08BF20EAD37070BDC4F12005C1
:100B800000FA05F24EEA020E20FA04F301FA05F229
:100B900043EA020321FA04F001F0004121FA04F2D1
:100BA00020EA020000EBD3705EEA430E08BF20EAA1
:100BB000D37070BD94F0000F0FD101F000464000DB
:100BC00041EB010111F4801F08BF013CF7D041EA5D
:100BD000060195F0000F18BF704703F00046520061
:100BE00043EB030313F4801F08BF013DF7D043EA32
:100BF0000603704794EA0C0F0CEA135518BF95EAE8
:100C00000C0F0CD050EA410618BF52EA4306D1D16E
:100C100081EA030101F000414FF0000070BD50EA8D
:100C2000410606BF1046194652EA430619D094EA17
:100C30000C0F02D150EA013613D195EA0C0F05D101
:100C400052EA03361CBF104619460AD181EA030155
:100C500001F0004141F0FE4141F470014FF000000D
:100C600070BD41F0FE4141F4780170BD70B54FF0A8
:100C7000FF0C4CF4E06C1CEA11541DBF1CEA135528
:100C800094EA0C0F95EA0C0F00F0A7F8A4EB05040A
:100C900081EA030E52EA03354FEA013100F0888001
:100CA0004FEA03334FF0805545EA131343EA1263CA
:100CB0004FEA022245EA111545EA10654FEA00267F
:100CC0000EF000419D4208BF964244F1FD0404F538
:100CD000407402D25B084FEA3202B61A65EB030594
:100CE0005B084FEA32024FF480104FF4002CB6EB51
:100CF000020E75EB030E22BFB61A754640EA0C00D1
:100D00005B084FEA3202B6EB020E75EB030E22BF10
:100D1000B61A754640EA5C005B084FEA3202B6EB51
:100D2000020E75EB030E22BFB61A754640EA9C0010
:100D30005B084FEA3202B6EB020E75EB030E22BFE0
:100D4000B61A754640EADC0055EA060E18D04FEA9E
:100D5000051545EA16754FEA06164FEAC30343EA3E
:100D600052734FEAC2025FEA1C1CC0D111F4801F0B
:100D70000BD141EA00014FF000004FF0004CB6E704
:100D800011F4801F04BF01430020B4F1FD0C88BFA3
:100D9000BCF5E06F3FF6AFAEB5EB030C04BFB6EBAE
:100DA000020C5FEA500C50F1000041EB045170BDA1
:100DB0000EF0004E4EEA113114EB5C04C2BFD4EBCE
:100DC0000C0541EA045170BD41F480114FF0000E52
:100DD000013C90E645EA060E8DE60CEA135594EACE
:100DE0000C0F08BF95EA0C0F3FF43BAF94EA0C0FD1
:100DF0000AD150EA01347FF434AF95EA0C0F7FF446
:100E000025AF104619462CE795EA0C0F06D152EA99
:100E100003353FF4FDAE1046194622E750EA41067D
:100E200018BF52EA43067FF4C5AE50EA41047FF48E
:100E30000DAF52EA43057FF4EBAE12E74FF0FF3CF3
:100E400006E000BF4FF0010C02E000BF4FF0010CC4
:100E50004DF804CD4FEA410C7FEA6C5C4FEA430C3D
:100E600018BF7FEA6C5C1BD001B050EA410C0CBF8C
:100E700052EA430C91EA030F02BF90EA020F0020EE
:100E8000704710F1000F91EA030F58BF994208BF55
:100E900090422CBFD8176FEAE37040F00100704712
:100EA0004FEA410C7FEA6C5C02D150EA013C07D169
:100EB0004FEA430C7FEA6C5CD6D152EA033CD3D0B4
:100EC0005DF8040B704700BF8446104662468C46AE
:100ED0001946634600E000BF01B5FFF7B7FF0028E1
:100EE00048BF10F1000F01BD4DF808EDFFF7F4FF0A
:100EF0000CBF012000205DF808FB00BF4DF808ED95
:100F0000FFF7EAFF34BF012000205DF808FB00BFB7
:100F10004DF808EDFFF7E0FF94BF012000205DF8D9
:100F200008FB00BF4DF808EDFFF7CEFF94BF01208E
:100F300000205DF808FB00BF4DF808EDFFF7C4FF87
:100F400034BF012000205DF808FB00BF4A0011D229
:100F500012F5001211D20DD56FF47873B3EB625213
:100F60000ED44FEAC12343F0004343EA505323FA1F
:100F700002F070474FF00000704750EA013002D194
:100F80004FF0FF3070474FF00000704753B94AB937
:100F9000002908BF00281CBF4FF0FF314FF0FF3081
:100FA00001F0F8B8ADF1080C6DE904CE00F006F8D8
:100FB000DDF804E0DDE9022304B070472DE9F047D5
:100FC000089E04468846002B4BD18A42154667D9B5
:100FD000B2FA82F24AB1C2F1200701FA02F320FA12
:100FE00007F7954047EA030894404FEA154E230C53
:100FF000B8FBFEF71FFA85FC0EFB178843EA08438F
:1010000007FB0CF1994209D9EB1807F1FF3080F08A
:101010001B81994240F21881023F2B445B1AA4B213
:10102000B3FBFEF00EFB103344EA034400FB0CFC60
:10103000A44509D92C1900F1FF3380F00781A4459C
:1010400040F2048102382C4440EA0740A4EB0C042F
:1010500000271EB1D4400023C6E900433946BDE84D
:10106000F0878B4209D9002E00F0EB800027C6E9FB
:10107000000138463946BDE8F087B3FA83F7002F00
:1010800047D18B4202D3824200F2FA80841A61EB8C
:10109000030301209846002EE0D0C6E90048DDE7B2
:1010A00002B9FFDEB2FA82F2002A40F08F80491BBB
:1010B0004FEA154E1FFA85F80127B1FBFEFC230C01
:1010C0000EFB1C1143EA014308FB0CF1994207D9BE
:1010D000EB180CF1FF3002D2994200F2CD80844629
:1010E000591AA3B2B1FBFEF00EFB101443EA0444FC
:1010F00008FB00F8A04507D92C1900F1FF3302D2F4
:10110000A04500F2B6801846A4EB080440EA0C4063
:101110009FE7C7F1200CBB4022FA0CFE4EEA030EFB
:1011200001FA07F420FA0CF521FA0CF34FEA1E48F5
:101130002543B3FBF8F92C0C08FB19331FFA8EFA80
:1011400044EA034309FB0AF49C4202FA07F200FA5C
:1011500007F10BD91EEB030309F1FF3080F0878004
:101160009C4240F28480A9F1020973441B1BADB27A
:10117000B3FBF8F008FB103345EA034400FB0AFA1E
:10118000A24508D91EEB040400F1FF336BD2A2453F
:1011900069D90238744440EA0940A0FB0289A4EBF3
:1011A0000A044C45C2464B4654D351D0002E69D058
:1011B000B1EB0A0564EB030404FA0CFCFD40FC40AF
:1011C0004CEA0505C6E90054002747E7C2F12003B1
:1011D00020FA03F7954001FA02F021FA03F34FEAEF
:1011E000154E3843010CB3FBFEF71FFA85F80EFBD2
:1011F000173341EA034107FB08F38B4204FA02F478
:1012000007D9691807F1FF3C2FD28B422DD9023F35
:101210002944CB1A81B2B3FBFEF00EFB103341EA36
:10122000034100FB08F38B4207D9691800F1FF3C2A
:1012300017D28B4215D902382944C91A40EA074708
:101240003BE73746304609E70746E7E61846FBE640
:101250004145ABD2B8EB020A69EB0E0201381346E6
:10126000A4E76046E9E7184695E76746D1E7814677
:101270007CE702382C4447E7ACF1020C2B442FE703
:10128000384608E73746E9E603685A004CBF43F0A2
:10129000004323F000431844704700BF61B32DE9B9
:1012A000F84F01F1FF3A90460646D146002707EB7A
:1012B000090404EBD4746410E50071190846FFF7C3
:1012C000E3FFA245834605F10800304409D0FFF74B
:1012D000DBFFC34500F1FF3005D8404509D2671C4C
:1012E000E5E7C34505D9A74202D004F1FF39DEE79F
:1012F00000210846BDE8F88F08467047012807D04E
:10130000022807D0044B00280CBF18460020704765
:101310000248704702487047E9190000ED190000C3
:10132000F119000030B5254B83B004468D1E4BB338
:1013300001A92846AFF30080F0B101992A46FFF7D2
:10134000ADFF0146C0B1FFF79FFF4B68A064012BC2
:101350002ED0002B01F1040026DBFFF795FF0023C0
:10136000C4E913030368002B12DBFFF78DFF002392
:101370002061184603B030BD0023236109231846BD
:1013800003B030BD0E490F48091AC9100191D5E7C5
:10139000C3F30360FFF7B2FF002814BF0023092343
:1013A0002061184603B030BD0123C4E91303D9E717
:1013B000002323610523184603B030BD0000000060
:1013C00084CA0000F4C700000368DA0710B50446B9
:1013D00006D49B0700F1480009D500F05FFC2368A4
:1013E000590709D51A070ED5DB0613D510BD00F035
:1013F0004DFC23685907F5D404F1D00000F056FCE9
:1014000023681A07F0D404F5A87000F057FC23688D
:10141000DB06EBD404F5E870BDE8104000F092BCA8
:10142000036803B103441846704700BF09207047A2
:10143000704700BF70B504460D4608E02B6C636131
:101440002A462369214601209847082808D1296C9B
:101450002046FFF767FF06460028EFD007F08CFB19
:101460000728FBD13046296CFFF7E2FF281D00F06A
:1014700001FC00BF2DE9F0470C1D054617460FCCB7
:10148000ADF5727D03AE0FC60FCC0FC60FCC0FC6E5
:1014900094E80F0002ACD5F80C80D5F8189086E8D7
:1014A0000F000023236021E0236C6B614FF4F07286
:1014B00021467AA800F070FE2B697AAA29463046A8
:1014C0009847889BCDE900498246636431462B46A4
:1014D0002A460120C0470746F8B94FF4F0727AA9AE
:1014E000204600F059FEBAF1080F1CD1216C2846A5
:1014F000FFF718FF002F08BF0926074618BF0A2666
:101500000028D1D0A36B46F01001CDE900492A464E
:10151000636401202B46C04700B1092738460DF50A
:10152000727DBDE8F087BAF1070FF6D13846216C1D
:10153000FFF77EFF03A800F09DFB00BF406C7047E3
:10154000F0B5CB6B0B640D1D0F4606460FCDF9B001
:1015500001AC0FC40FCD0FC40FCD0FC495E80F0021
:101560004FF0FF3584E80F00009506E033696A46C6
:10157000314698470828044608D110993046FFF7AD
:10158000D1FE0028F2D0092079B0F0BD6846FFF7FF
:101590001BFF062CF7D139463046FFF74BFF00BF43
:1015A00030B4DD6BC160826119461D64002230BC1D
:1015B00060E700BF70B5C66843690B64BEB90369D4
:1015C0000A4604460D46014602209847072807D0E0
:1015D000082803D129462046FFF72CFF07F0CCFA54
:1015E0003046296CFFF724FF281D00F043FB012241
:1015F000FFF740FF07F0C0FAC2681AB1CA6B0A646D
:10160000002237E79CE700BF704700BF836813B133
:101610000146012018477047042907D8DFE801F088
:101620000308060808000BB90F2A03D902207047E7
:101630000120704700EB820218465368009A13603D
:10164000704700BF10B584B0002303AC0A46009475
:101650001946FFF7E1FF039804B010BD042907D82D
:10166000DFE801F00308060808000BB90F2A03D9C8
:10167000022070470120704700EB8200009A126838
:1016800042601846704700BF10B584B004AC002318
:1016900044F8042D0A4600941946FFF7DFFF04B012
:1016A00010BD00BFF0B5D36B1364151D07460E4681
:1016B0000FCDADF50F7D17AC0FC40FCD0FC40FCDFF
:1016C0000FC495E80F004FF0FF3584E80F00169522
:1016D00010E016A8FFF7D8FF314616A8B84716AA9B
:1016E000694678B9049B08209847052804460AD023
:1016F000092807D026996846FFF714FE6A460C2190
:101700000028E6D0092416A8FFF75EFE20460DF556
:101710000F7DF0BD2DE9F04F0D46C96C89B00C1D51
:10172000164600F0030B0A6806941F46002B68D08B
:10173000130CD9B212048DF81D30022304EB81047E
:1017400005928DF81C302B6DBBF1020F08BFAC6BFE
:1017500013F0010346D1019300F008030093D4F87D
:101760000090B9F1000F00F0F380022F45D0B4F8DB
:101770000090B4F802800434AB6C28F0010A0F2109
:1017800030469A44FFF75EFF824534D829F00103C2
:101790005344834294BF002001204FEA480808F0D8
:1017A000020809F0010948EA0908B8F1010F3AD026
:1017B00031D3B8F1020F1AD1236823F0004ABBF1EC
:1017C000000F66D130B1009A002A6CD0BAF1000F38
:1017D00000F09080002B00DA04340AF1010304EBDE
:1017E0008304BCE7304605A900F046FB78B1092028
:1017F00009B0BDE8F08F0020CFE7D4F804800834AA
:10180000BAE7120203230592ADF81C309BE70820CB
:1018100009B0BDE8F08FBBF1000F02D0002840F006
:10182000B48004349BE7BBF1000F18D1A8B1D4E910
:101830000023991C4FEAD272D9D005F15801013327
:10184000049100F0B580201DFFF7EAFD04AB0146CE
:101850002846AFF30080002867D108347FE70D21C8
:101860003046D5F82080FFF7EDFE8045F5D1AB6A14
:101870009C42F2D12046FFF707FD0F210246304679
:10188000FFF702FF30462A460021FFF7FDFE072042
:10189000AEE70D213046D5F82080FFF7D3FE804516
:1018A00032D0236896E7BAF1000F23D005F1580330
:1018B00004F10408CDF808B0DDF800900397A346C2
:1018C0001C4602E05745B94640D040460494FFF715
:1018D000A7FD04AB014600222846AFF3008009F1C2
:1018E000010708F104080028ECD0D1455C46DDE989
:1018F00002B7D6D130460D21FFF7A4FE049B286223
:10190000C5E90934062073E7AB6A9C42C9D10422B9
:101910004FF00008A318C5E90AA8C5E90C232368FD
:1019200043454DDB0123019357E780460D213046A7
:10193000FFF788FEB8F1020F28623ED12B46049AC9
:1019400043F82C2F6B62AC62062051E75C46D1E76E
:1019500005A9304600F090FA00287FF448AF019BBB
:10196000002B3FF454AF0F213046FFF76BFE0E21E2
:1019700002463046FFF788FE30461A4A0F21FFF72D
:1019800083FE072009B0BDE8F08F2046FFF77CFCFE
:1019900004340746AC632846AFF3008000283FF4C8
:1019A00026AF30463A460F21FFF76EFE07201FE7AD
:1019B00030460D21FFF746FE2862049B6B62C2E7AA
:1019C0000AF1010004EB8000FFF75EFC0F210246E4
:1019D0003046FFF759FE30462A464146FFF754FE8F
:1019E000072005E700000000002393E6012391E6AD
:1019F00002238FE62DE9F0410546C4B0042906D83C
:101A0000DFE801F04D2B05030900032B5FD0022016
:101A100044B0BDE8F081002BF9D1102AF7D82B682B
:101A2000DC0600F1F48022AC2046019200F094F92B
:101A3000A86B019A0023012606FA03F1114203D094
:101A4000016844F8231004300133042BF4D1A86357
:101A5000204600F077F90020DAE7012B4FEA124622
:101A600097B252D0052BD2D106EB0708B8F1200F60
:101A7000CDD80F2E40F29980B846002F40F0DB8081
:101A8000AA6BAA630F2E40F2BE80B8F1000F02D0FD
:101A900002A800F00BF9002044B0BDE8F081002B53
:101AA000B5D1AC6B97B2281D012606FA03F1394275
:101AB00003F1010302D0216801600434102B00F10E
:101AC0000400F2D112F40050E5D1AC63A0E7160C8B
:101AD00097B2F319102B9AD82B681A075DD422AC51
:101AE000204600F00DF904EBC601AB6B3FB103EBF0
:101AF000C702186841F8040B04339342F9D1204619
:101B0000AB6300F0DBF8002082E7F219102A3FF601
:101B10007EAF0F2E3FF67BAF2A68D10708D5284647
:101B200022F0030240F8482B019300F0B3F8019B28
:101B3000019322AC204600F0ADF8A96B019B002F69
:101B400000F095807F0004EBC6044FF00008043CD1
:101B500001EB870251F8040B44F8040F9142F9D1CC
:101B6000B8F1000F0FD002AC102E314638BF102153
:101B700004EBC101843902EBC80452F8040B41F8AC
:101B8000040F9442F9D1012B7FF47BAF22AC0432D5
:101B9000AA63204600F07AF87DE723F008032B6063
:101BA00005F5A87000F0ACF899E7B8F1100F2A68B5
:101BB00043D9D007A8F110080BD5284622F001021E
:101BC00042F0020240F8482B019300F06BF82A68BB
:101BD000019B510725D40F2E04D822A8019300F0B1
:101BE00061F8019B019302AC204600F063F8C6F156
:101BF00010010029AA6B019BB6DD22AC4F0004EB5B
:101C0000C6041146A3E722A800F048F83DE723F0F8
:101C100010032B6005F5E870019200F09DF8019A21
:101C200001E7284622F0040240F8D02B019300F08F
:101C300041F8019BCFE72A68CBE7D0070AD52846B1
:101C400022F0010242F0020240F8482B019300F01A
:101C500029F8019B019322AC204600F023F8B846F6
:101C6000A96B019B002F7FF46DAF0A4609E70A4676
:101C70008DE700BF00F1340191E838009C46A6468C
:101C80004CF8045D90E8FF0FE54600BD90EC210B99
:101C9000704700BF80EC210B704700BF90EC200B19
:101CA000704700BF80EC200B704700BFD0EC200BCA
:101CB000704700BFC0EC200B704700BFF0EC020182
:101CC000F0EC0211F0EC0221F0EC0231F0EC0241F8
:101CD000F0EC0251F0EC0261F0EC0271F0EC0281E8
:101CE000F0EC0291F0EC02A1F0EC02B1F0EC02C1D8
:101CF000F0EC02D1F0EC02E1F0EC02F1704700BF31
:101D0000E0EC0201E0EC0211E0EC0221E0EC023137
:101D1000E0EC0241E0EC0251E0EC0261E0EC027127
:101D2000E0EC0281E0EC0291E0EC02A1E0EC02B117
:101D3000E0EC02C1E0EC02D1E0EC02E1E0EC02F107
:101D4000704700BFB0FC0181B0FC0191B0FC01A163
:101D5000B0FC01B1704700BFA0FC0181A0FC019163
:101D6000A0FC01A1A0FC01B1704700BFEC4600B58A
:101D70002DE900502DE9FF1F4FF000032DE90C0065
:101D800001A9FFF7DDFBDDF840E012B0704700BFAE
:101D9000EC4600B52DE900502DE9FF1F4FF0000380
:101DA0002DE90C0001A9FFF705FCDDF840E012B0B9
:101DB000704700BFEC4600B52DE900502DE9FF1F2C
:101DC0004FF000032DE90C0001A9FFF715FCDDF829
:101DD00040E012B0704700BFEC4600B52DE900505E
:101DE0002DE9FF1F4FF000032DE90C0001ABFFF7B9
:101DF000D7FBDDF840E012B0704700BFEC4600B5FD
:101E00002DE900502DE9FF1F4FF000032DE90C00D4
:101E100001AAFFF747FCDDF840E012B0704700BFB1
:101E2000027A82B9437AABB14268013B10B4437283
:101E300013680321141D01721A02446002605DF8E8
:101E4000044B180E70470368013A02721A020260CE
:101E5000180E7047B020704700B585B003AA002364
:101E6000009219460C22FFF7D7FB039805B05DF8E6
:101E700004FB00BFF0E700BF2DE9F043054685B045
:101E80000E464FF000083046FFF7CAFFB028044660
:101E900000F0B180070620D500F0F003802B65D05C
:101EA000902B36D0A02B78D0B02B47D0C02B00F091
:101EB0008A8000F0F803D02B0BD100F0070201322A
:101EC00042F40022052301212846FFF793FD002854
:101ED000D9D0092005B0BDE8F0830DF10C0900232D
:101EE00019468700CDF800900D222846FFF794FB95
:101EF000FFB2039BCDF80090043760064CBFDF1B98
:101F0000FF18002319460D2228460397FFF7A6FB6A
:101F1000B9E700F00D030D2BDBD003AF002300F079
:101F20000F02194600972846FFF776FB002300971B
:101F300019460D222846FFF791FBA4E7B1285FD090
:101F4000B22800F0CC80B3287ED000F0FC03B42B84
:101F5000BFD000F007020132012342F400221946EB
:101F60002846FFF747FD00288DD0B2E73046FFF73F
:101F700057FF24020443B4F5004FAAD024010023E4
:101F8000A2B219462846FFF735FD0028A1D114F466
:101F9000004F18BF4FF0010875E7C24302F0070376
:101FA0004FF47F621A41010702F47F624FF0000391
:101FB00048BF42F4804219462846FFF71BFD00281F
:101FC0003FF461AF85E7C62851D0C7285AD000F04A
:101FD000F803C02B69D0C82875D0C9287FF479AF21
:101FE0003046FFF71DFF020300F00F0002F47022DD
:101FF0000130024366E7B8F1000F14D0002069E712
:102000003046FFF70DFF00283FF463AF10F0F003F8
:102010007FF45FAF024619462846FFF7EBFC002825
:102020003FF431AF55E703AC43460E2241460094DE
:102030002846FFF7F1FA0094284643460F2241460E
:10204000FFF70CFB404645E73046FFF7E9FE01038A
:1020500000F00F0001F47021421C01230A432846BE
:102060001946FFF7C7FC00283FF40DAF31E73046B3
:10207000FFF7D6FE010300F00F0001F47021421CAF
:102080000323EBE73046FFF7CBFE024600283FF480
:1020900020AF10F0F0037FF41CAF04212846FFF7B7
:1020A000A9FC00283FF4EFAE13E700F00F02013265
:1020B000032342F4202219462846FFF79BFC002800
:1020C0003FF4E1AE05E73046FFF7AAFE00F0F0026C
:1020D00000F00F031032013343EA0232F2E600232C
:1020E0000DF10C090D221946CDF800902846FFF796
:1020F00093FA3046FFF794FE02064FF002070CD524
:10210000039B00F07F00B840034430460393FFF781
:1021100087FE030607F10707F2D4039BCDF8009072
:1021200000F07F0403F50172BC40002314441946FB
:102130000D2228460394FFF791FAA4E610B5C36C6C
:1021400084B05A6803208DF80C00DC798DF80D40BE
:1021500012020833084601A901920293FFF78CFE90
:1021600004B010BD08B5FFF785FE806C08BD00BF48
:1021700008B5FFF77FFEC06CC37900EB8300083021
:1021800008BD00BF08B506F0F7FC00BF08B5FFF7B3
:10219000F9FF00BF704700BF844641EA000313F017
:1021A00003036DD1403A41D351F8043B40F8043B5E
:1021B00051F8043B40F8043B51F8043B40F8043B21
:1021C00051F8043B40F8043B51F8043B40F8043B11
:1021D00051F8043B40F8043B51F8043B40F8043B01
:1021E00051F8043B40F8043B51F8043B40F8043BF1
:1021F00051F8043B40F8043B51F8043B40F8043BE1
:1022000051F8043B40F8043B51F8043B40F8043BD0
:1022100051F8043B40F8043B51F8043B40F8043BC0
:1022200051F8043B40F8043B403ABDD2303211D360
:1022300051F8043B40F8043B51F8043B40F8043BA0
:1022400051F8043B40F8043B51F8043B40F8043B90
:10225000103AEDD20C3205D351F8043B40F8043B60
:10226000043AF9D2043208D0D2071CBF11F8013B5E
:1022700000F8013B01D30B8803806046704700BF24
:10228000082A13D38B078DD010F003038AD0C3F133
:102290000403D21ADB071CBF11F8013B00F8013B15
:1022A00080D331F8023B20F8023B7BE7043AD9D3D4
:1022B000013A11F8013B00F8013BF9D20B780370A9
:1022C0004B7843708B788370604670470000000045
:1022D00001F0FF01102A2BDB10F0070F08D010F8D7
:1022E000013B013A8B422DD010F0070F42B3F6D1DB
:1022F000F0B441EA012141EA014122F007047FF0F4
:1023000000070023F0E80256083C85EA010586EA4A
:10231000010685FA47F5A3FA87F586FA47F6A5FA86
:1023200087F68EB9EED1F0BC01F0FF0102F0070292
:1023300032B110F8013B013A83EA010313B1F8D13D
:102340000020704701387047002D06BF354603381E
:10235000073815F0010F07D1013015F4807F02BF57
:10236000013015F4C03F0130F0BC0138704700BFA8
:10237000000000000000000000000000000000005D
:1023800090F800F06DE9024520F007016FF0000CB5
:1023900010F0070491F820F040F049804FF000045D
:1023A0006FF00700D1E9002391F840F000F1080038
:1023B00082FA4CF2A4FA8CF283FA4CF3A2FA8CF370
:1023C0004BBBD1E9022382FA4CF200F10800A4FAD7
:1023D0008CF283FA4CF3A2FA8CF3E3B9D1E904232B
:1023E00082FA4CF200F10800A4FA8CF283FA4CF362
:1023F000A2FA8CF37BB9D1E9062301F1200182FA1C
:102400004CF200F10800A4FA8CF283FA4CF3A2FA21
:102410008CF3002BC6D0002A04BF04301A4612BA2F
:10242000B2FA82F2FDE8024500EBD2007047D1E932
:10243000002304F00305C4F100004FEAC50514F0C1
:10244000040F91F840F00CFA05F562EA05021CBF92
:1024500063EA050362464FF00004A9E700000000AC
:1024600090B585B000AF87ED020B78607A68D7E948
:102470000234C2E900344FF00002154BD7E90201E3
:10248000FEF75AFD0346002B06D07A684FF0000392
:102490000F4CC2E9003411E00BA3D3E90023D7E9C4
:1024A0000201FEF72BFD0346002B00D106E07A68FF
:1024B0004FF000034FF00004C2E9003400BF1437AE
:1024C000BD4690BDAFF300800000000000C0624038
:1024D00000407F4090B482B000AF78607B68D3E961
:1024E0000034254AC2E91234234A4FF00003234C3A
:1024F000C2E91434204A4FF00003214CC2E90034F1
:102500001D4A4FF000031E4CC2E90A341A4A4FF02C
:1025100000034FF00004C2E90434174A4FF00003EF
:10252000174CC2E90634144A4FF000034FF0000480
:10253000C2E90234104A4FF000034FF00004C2E930
:1025400008340D4A4FF000034FF00004C2E90E3486
:10255000094A4FF000034FF00004C2E90C34064A68
:102560004FF000034FF00004C2E9103400BF0837F9
:10257000BD4690BC704700BFD01000200080514085
:102580000000F03FB0B584B000AFF860B9607A6089
:102590003B603B68D3E900014FF00002854BFEF73A
:1025A000A3FC0346002B16D1834B002283F8D621CF
:1025B000814B032283F8D521804A4FF000034FF06E
:1025C0000004C2E904347D4A4FF000034FF00004D8
:1025D000C2E902346CE1784B93F8D631022B50D02B
:1025E000032B00F0A880012B40F0CA80734A4FF003
:1025F0000003734CC2E91434704A4FF00003714C6D
:10260000C2E900346D4A4FF000036E4CC2E90A344F
:102610006A4A4FF000034FF00004C2E90434674AED
:102620004FF00003674CC2E90634644A4FF00003E0
:102630004FF00004C2E90234604A4FF000034FF04B
:102640000004C2E908345D4A4FF000034FF0000473
:10265000C2E90E34594A4FF000034FF00004C2E9BA
:102660000C34564A4FF000034FF00004C2E9103416
:10267000514B032283F8D6214F4B0022C3F8D021BF
:1026800016E14E4A4FF000034D4CC2E914344B4A58
:102690004FF000034FF00004C2E90034474A4FF006
:1026A0000003484CC2E90A34444A4FF00003454C49
:1026B000C2E90434414A4FF000034FF00004C2E97C
:1026C00006343E4A4FF000034FF00004C2E90234E2
:1026D0003A4A4FF000034FF00004C2E90834374A89
:1026E0004FF000034FF00004C2E90E34334A4FF0BC
:1026F00000034FF00004C2E90C342F4BD3F8D04153
:102700003B6A93ED007BB0EE470AF0EE670A06F0F5
:10271000ABF953EC102B10461946FEF717FC034695
:102720009C42C0F0C080244B012283F8D6217868F7
:10273000FFF7D0FEB7E0204BD3F8D041BB6893ED54
:10274000007BB0EE470AF0EE670A06F08DF953EC15
:10275000102B10461946FEF7F9FB03469C42C0F0C9
:10276000A480154B042283F8D621134B0022C3F812
:10277000D021124A4FF00003124CC2E9103494E009
:102780000E4A4FF000030F4CC2E910347B6A1B78ED
:10279000002B19D0084B042283F8D621064B0022C7
:1027A000C3F8D021054A4FF00003064CC2E91034AB
:1027B0007DE000BF0000084030110020D010002054
:1027C000008051400000F03F3B4BD3F8D051FB68F4
:1027D000D3E90001BB68D3E900341A462346FDF76C
:1027E00063FF03460C4644EC173BB0EE470AF0EE9D
:1027F000670A06F039F954EC103B18462146FEF7FB
:10280000A5FB03469D4252D37B6A1B78002B4ED119
:10281000294B022283F8D621274B0022C3F8D0216E
:102820007B68D3E90034254AC2E91234234A4FF0C9
:102830000003234CC2E91434204A4FF000034FF048
:102840000004C2E900341D4A4FF000031D4CC2E9E8
:102850000A341A4A4FF000031A4CC2E90434174AEA
:102860004FF000034FF00004C2E90634134A4FF062
:1028700000034FF00004C2E90234104A4FF0000395
:102880004FF00004C2E908340C4A4FF000034FF047
:102890000004C2E90E34094A4FF000034FF000046F
:1028A000C2E90C3403E000BF02E000BF00E000BF5B
:1028B00000BF1037BD46B0BD30110020D010002041
:1028C000008051400000F03FB0B584B000AFF86028
:1028D000B9607A603B607B68D3E900014FF0000289
:1028E000984BFEF701FB0346002B16D1964B0022B6
:1028F00083F8D821944B032283F8D521934A4FF0D3
:1029000000034FF00004C2E90434904A4FF0000382
:102910004FF00004C2E902340FE18B4B93F8D83139
:10292000012B40F0AE80894A4FF00003884CC2E989
:102930001434864A4FF00003824CC2E90034834AC3
:102940004FF000037F4CC2E90A34804A4FF0000385
:102950004FF00004C2E904347C4A4FF00003794C84
:10296000C2E90634794A4FF000034FF00004C2E98F
:102970000234764A4FF000034FF00004C2E90834F5
:10298000724A4FF000034FF00004C2E90E346F4A60
:102990004FF000034FF00004C2E90C346B4A4FF0D3
:1029A00000034FF00004C2E91034674BD3F8D05154
:1029B000FB68D3E900013B68D3E900341A4623469B
:1029C000FDF772FE03460C4644EC173BB0EE470A97
:1029D000F0EE670A06F048F854EC103B1846214622
:1029E000FEF7B4FA03469D42C0F0A780564B022280
:1029F00083F8D821544B0022C3F8D021BB68D3E917
:102A00000034524AC2E91234504A4FF00003504C8D
:102A1000C2E914344D4A4FF000034FF00004C2E9FC
:102A200000344A4A4FF00003464CC2E90A34474A90
:102A30004FF00003434CC2E90434444A4FF0000312
:102A40004FF00004C2E90634404A4FF000034FF053
:102A50000004C2E902343D4A4FF000034FF0000485
:102A6000C2E90834394A4FF000034FF00004C2E9CC
:102A70000E34364A4FF000034FF00004C2E90C3424
:102A80005BE0324A4FF00003314CC2E914342F4A64
:102A90004FF000034FF00004C2E900342B4A4FF01E
:102AA0000003284CC2E90A34284A4FF00003254CA1
:102AB000C2E90434254A4FF000034FF00004C2E994
:102AC0000634224A4FF000034FF00004C2E90234FA
:102AD0001E4A4FF000034FF00004C2E908341B4ABD
:102AE0004FF000034FF00004C2E90E34174A4FF0D4
:102AF00000034FF00004C2E90C34134BD3F8D0416B
:102B00003B6893ED007BB0EE470AF0EE670A05F0F4
:102B1000ABFF53EC102B10461946FEF717FA03468D
:102B20009C420AD3084B012283F8D821064B00228D
:102B3000C3F8D021B868FFF7CDFC00BF1037BD4601
:102B4000B0BD00BF0000F03F30110020D0100020C9
:102B50000080514090B482B000AF78607B68D3E9C8
:102B60000034254AC2E91234234A4FF00003234CB3
:102B7000C2E91634204A4FF00003214CC2E9003468
:102B80001D4A4FF000031E4CC2E90A341A4A4FF0A6
:102B900000034FF00004C2E90434174A4FF0000369
:102BA0004FF00004C2E90634134A4FF000034FF01F
:102BB0000004C2E90234104A4FF00003104CC2E98D
:102BC00008340D4A4FF000034FF00004C2E90E3400
:102BD000094A4FF000034FF00004C2E90C34064AE2
:102BE0004FF000034FF00004C2E9103400BF083773
:102BF000BD4690BC704700BFD010002000805140FF
:102C00000000F03F80B582B000AF78607B685B6801
:102C1000012B08D17B681B7A002B04D07B681B69D1
:102C2000184601F08CFE00BF0837BD4680BD80B558
:102C300082B000AF78607868FFF7E4FF00BF083724
:102C4000BD4680BD80B582B000AF78607B681B78E0
:102C5000002B05D17B6801221A707868FFF7E7FF27
:102C600000BF0837BD4680BD80B582B000AF786038
:102C70007B685B68012B08D17B681B7A002B04D032
:102C80007B681B69184601F05AFE00BF0837BD4635
:102C900080BD80B582B000AF78607868FFF7E4FF50
:102CA00000BF0837BD4680BD80B582B000AF7860F8
:102CB0007B681B78002B05D17B6801221A7078682D
:102CC000FFF7E7FF00BF0837BD4680BD80B582B083
:102CD00000AF78607B685B68012B0DD17B681B7A45
:102CE000002B09D07B681B69184601F021FD7B6829
:102CF0001B69184601F032FD00BF0837BD4680BD94
:102D000080B582B000AF78607868FFF7DFFF00BF62
:102D10000837BD4680BD80B582B000AF78607B6863
:102D20001B78002B05D17B6801221A707868FFF7A9
:102D3000E7FF00BF0837BD4680BD80B582B000AF59
:102D400078607B685B68012B0DD17B681B7A002B58
:102D500009D07B681B69184601F098FB7B681B69EA
:102D6000184601F09DFB00BF0837BD4680BD80B509
:102D700082B000AF78607868FFF7DFFF00BF0837E8
:102D8000BD4680BD80B582B000AF78607B681B789F
:102D9000002B05D17B6801221A707868FFF7E7FFE6
:102DA00000BF0837BD4680BDB0B594B002AFA84B98
:102DB000D3E90E34C7E90434A54BD3E90E014FF033
:102DC0000002A44BFEF7B8F80346002B06D04FF0E4
:102DD00000034FF00004C7E9043410E09C4BD3E932
:102DE0000E014FF000029C4BFEF788F80346002BC3
:102DF00005D04FF000034FF00004C7E90434944BB2
:102E0000D3E91034C7E90234914BD3E910014FF0F4
:102E10000002924BFEF790F80346002B05D04FF0CE
:102E200000038E4CC7E902340FE0894BD3E910014F
:102E30004FF00002884BFEF761F80346002B04D0E8
:102E40004FF00003844CC7E90234814BD3E91234BC
:102E5000C7E910347E4BD3E912014FF000027F4BDB
:102E6000FEF76AF80346002B05D04FF000037B4CB9
:102E7000C7E910340FE0764BD3E912014FF000029E
:102E8000754BFEF73BF80346002B04D04FF00003D0
:102E9000714CC7E91034724BD3E92E016C4BD3E966
:102EA0000C341A462346FEF71FF80346002B05D1C3
:102EB000674BD3E90C346A4AC2E92E34684BD3F825
:102EC000B030184601F0C4FC034687F83F30644B2D
:102ED000D3E936015E4BD3E90A341A462346FEF79E
:102EE00003F80346002B05D1594BD3E90A345C4A59
:102EF000C2E936345A4BD3F8D030184601F0A8FC5A
:102F00000346FB71524BD3E91434C7E90834504BE4
:102F1000D3E914014AA3D3E90023FEF70DF80346D1
:102F2000002B05D046A4D4E90034C7E908340FE0EB
:102F3000474BD3E914014FF000024A4BFDF7DEFF87
:102F40000346002B04D04FF00003464CC7E9083479
:102F50003F4B93ED167B07F118031846B0EE470A76
:102F6000F0EE670AFFF77CFA394B93ED187B07F117
:102F700028031846B0EE470AF0EE670AFFF770FA2A
:102F8000334BD3E91A34C7E90C34314BD3E91A0176
:102F90004FF00002344BFDF7C5FF0346002B05D070
:102FA0004FF00003304CC7E90C340FE0284BD3E955
:102FB0001A014FF00002284BFDF7A0FF0346002B3B
:102FC00004D04FF00003244CC7E90C34D7E908348F
:102FD0001A4623461CA1D1E90001FDF747FE03462E
:102FE0000C46C7E908341E4BD3F8D031B3F1FF3F8C
:102FF00006D01B4BD3F8D0310133194AC2F8D03177
:10300000174B93F8D431002B32D1154B012283F8A2
:10301000D421134B032283F8D521144A4FF0000327
:103020004FF00004C2E90434104A4FF000034FF09F
:103030000004C2E9023400F006BC00BFAFF3008018
:103040000000000000E0654000000000004CED4082
:1030500000000020000010400000F03F000034405D
:103060003011002000003E4000005940D0100020E8
:10307000814B93F8D531013B032B00F2138201A25F
:1030800052F823F095300000B7300000CD3000003A
:103090003332000007F1100407F1300207F1180184
:1030A00007F12000FB1D019307F10803009323465D
:1030B000FFF768FAC7E307F1080307F1100207F109
:1030C000300107F12000FFF7FFFBBCE36B4A4FF034
:1030D00000034FF00004C2E90434684A4FF00003D3
:1030E0004FF00004C2E90234D7E904014FF00002B6
:1030F000634BFDF7F9FE0346002B0DD05E4B01221A
:1031000083F8D5215C4B012283F8D62107F13003E7
:103110001846FFF7DFF996E3D7E904014FF0000204
:10312000584BFDF7E1FE0346002B11D0524B022213
:1031300083F8D521504B012283F8D8214E4B002231
:10314000C3F8D02107F130031846FFF7C3F97AE33B
:10315000D7E904014FF000024B4BFDF7C5FE0346D3
:10316000002B48D0444B052283F8D521424B012245
:1031700083F8D721D7E90C34404AC2E912343F4AD8
:103180004FF00003414CC2E916343C4A4FF00003B3
:103190003C4CC2E90034394A4FF00003394CC2E9D3
:1031A0000A34364A4FF000034FF00004C2E90434F9
:1031B000324A4FF000034FF00004C2E906342F4AB0
:1031C0004FF000034FF00004C2E902342B4A4FF0E5
:1031D00000032C4CC2E90834284A4FF000034FF09A
:1031E0000004C2E90E34254A4FF000034FF00004FA
:1031F000C2E90C3427E3D7E904014FF000024FF095
:103200008043FDF771FE0346002B00D11BE31A4BF0
:10321000042283F8D521184B012283F8D921164BBB
:103220000022C3F8D02107F130031846FFF792FCC3
:1032300009E3D7E904014FF000024FF08043FDF7A6
:1032400053FE0346002B23D10B4B002283F8D921D8
:10325000094B032283F8D521084A4FF000034FF0B1
:103260000004C2E90434054A4FF000034FF00004A3
:10327000C2E90234E6E200BF30110020D010002085
:10328000000008400000F03F000010400080514066
:10329000954B93F8D931012B40F0A980934A4FF018
:1032A0000003934CC2E91634904A4FF00003914C4E
:1032B000C2E900348D4A4FF000038E4CC2E90A3453
:1032C0008A4A4FF000034FF00004C2E90434874AF1
:1032D0004FF000034FF00004C2E90634834A4FF078
:1032E00000034FF00004C2E90234804A4FF00003AB
:1032F000804CC2E908347D4A4FF000034FF00004CF
:10330000C2E90E34794A4FF000034FF00004C2E9DD
:103310000C34764A4FF000034FF00004C2E9103439
:10332000714BD3F8D041D7E90801D7E91023FDF755
:10333000BBF902460B4643EC172BB0EE470AF0EE02
:10334000670A05F091FB53EC102B10461946FDF768
:10335000FDFD03469C42C0F07582634B022283F858
:10336000D921614B0022C3F8D021D7E90C345F4A40
:10337000C2E912345D4A4FF000035D4CC2E91634D5
:103380005A4A4FF000034FF00004C2E90034574A94
:103390004FF00003574CC2E90A34544A4FF000037F
:1033A0004FF00004C2E90434504A4FF000034FF0DC
:1033B0000004C2E906344D4A4FF000034FF0000408
:1033C000C2E90E34494A4FF000034FF00004C2E94D
:1033D0000C34464A4FF00003464CC2E90234434ADB
:1033E0004FF000034FF00004C2E908342AE23F4ADC
:1033F0004FF000033E4CC2E916343C4A4FF0000344
:103400004FF00004C2E90034384A4FF00003394C51
:10341000C2E90A34354A4FF000034FF00004C2E914
:103420000434324A4FF000034FF00004C2E906347E
:103430002E4A4FF000034FF00004C2E90E342B4A2D
:103440004FF000034FF00004C2E90C34274A4FF05C
:103450000003284CC2E90234244A4FF000034FF025
:103460000004C2E90834204BD3F8D04197ED100B8B
:1034700005F0FAFA53EC102B10461946FDF766FDDD
:1034800003469C42C0F0DE81174B012283F8D9210C
:10349000154B0022C3F8D02107F130031846FFF77F
:1034A00059FBCFE1D7E904014FF00002124BFDF7C1
:1034B0001BFD0346002B21D10B4B002283F8D721A3
:1034C000094B032283F8D521084A4FF000034FF03F
:1034D0000004C2E90434054A4FF000034FF0000431
:1034E000C2E90234AFE100BF30110020D01000204B
:1034F000008051400000F03F00001040924B93F8D4
:10350000D731022B49D0032B00F0D980012B40F09A
:1035100002818E4A4FF000038D4CC2E916348B4A6B
:103520004FF000038B4CC2E90034884A4FF000038F
:10353000884CC2E90A34854A4FF000034FF000047A
:10354000C2E90434814A4FF000034FF00004C2E99D
:1035500006347E4A4FF000034FF00004C2E9023403
:103560007A4A4FF000037B4CC2E90834774A4FF0A7
:1035700000034FF00004C2E90E34744A4FF0000318
:103580004FF00004C2E90C346F4B032283F8D721BB
:103590006D4B0022C3F8D0214BE16C4A4FF0000381
:1035A0006B4CC2E91634694A4FF000034FF0000437
:1035B000C2E90034654A4FF00003664CC2E90A34A0
:1035C000624A4FF000034FF00004C2E904345F4A3E
:1035D0004FF000034FF00004C2E906345B4A4FF09D
:1035E00000034FF00004C2E90E34584A4FF00003C4
:1035F0004FF00004C2E90C34544A4FF00003554C1C
:10360000C2E90234514A4FF000034FF00004C2E90E
:1036100008344D4BD3F8D04197ED100B05F024FA48
:1036200053EC102B10461946FDF790FC03469C42C4
:10363000C0F0FA80444B012283F8D721D7E90C343B
:10364000424AC2E91234414A4FF00003404CC2E9F9
:1036500016343E4A4FF000033E4CC2E900343B4A68
:103660004FF000033B4CC2E90A34384A4FF00003E4
:103670004FF00004C2E90434344A4FF000034FF025
:103680000004C2E90634314A4FF000034FF0000451
:10369000C2E902342D4A4FF000032E4CC2E908342F
:1036A0002A4A4FF000034FF00004C2E90E34274AC3
:1036B0004FF000034FF00004C2E90C34B4E0224B99
:1036C000D3F8D041D7E90A01D7E91023FCF7ECFF82
:1036D00002460B4643EC172BB0EE470AF0EE670AA2
:1036E00005F0C2F953EC102B10461946FDF72EFCDD
:1036F00003469C42C0F09A80134B042283F8D721E2
:10370000114B0022C3F8D021104A4FF00003114C96
:10371000C2E910348AE00D4A4FF000030D4CC2E9B3
:10372000103497F83F30002B16D0074B042283F853
:10373000D721054B0022C3F8D021044A4FF00003E3
:10374000044CC2E9103473E030110020D010002086
:10375000008051400000F03F364BD3F8D051D7E9FC
:103760000801D7E90A341A462346FCF79DFF0346B1
:103770000C4644EC173BB0EE470AF0EE670A05F042
:1037800073F954EC103B18462146FDF7DFFB034666
:103790009D424DD3274B022283F8D721254B00228F
:1037A000C3F8D021D7E90C34234AC2E91234224AA3
:1037B0004FF00003214CC2E916341F4A4FF00003BA
:1037C0004FF00004C2E900341B4A4FF000031C4CC8
:1037D000C2E90A34184A4FF000034FF00004C2E96E
:1037E0000434154A4FF000034FF00004C2E90634D8
:1037F000114A4FF000034FF00004C2E90E340E4AA4
:103800004FF000034FF00004C2E90C340A4A4FF0B5
:1038100000030B4CC2E90234074A4FF000034FF09B
:103820000004C2E9083403E000BF0CE000BF0AE076
:1038300000BF08E030110020D0100020008051406F
:103840000000F03F00BFBD4BD3F8F040BC4BD3E9C4
:10385000000101231D464FF000024FF00003FDF769
:1038600043FB0346002B01D000231D46EBB2194653
:10387000204601F025F8B14BD3F8A421B04B93EDCD
:10388000147BB0EE470AF0EE670A104600F012FF14
:10389000AA4BD3F80441AA4BD3E90E0101231D46DC
:1038A0004FF000024FF00003FDF71EFB0346002B14
:1038B00001D000231D46EBB21946204601F000F866
:1038C0009E4BD3F8B8219E4B93ED127BB0EE470A86
:1038D000F0EE670A104600F0EDFE984BD3F8CC21CD
:1038E000974B93ED167BB0EE470AF0EE670A104651
:1038F00000F0E0FE914BD3F81841914BD3E90C0155
:1039000001231D464FF000024FF00003FDF7ECFAD3
:103910000346002B01D000231D46EBB2194620467A
:1039200000F0CEFF854BD3F82C41854BD3E9040141
:1039300001231D464FF000024FF00003FDF7D4FABB
:103940000346002B01D000231D46EBB2194620464A
:1039500000F0B6FF794BD3F84041794BD3E902012F
:1039600001231D464FF000024FF00003FDF7BCFAA3
:103970000346002B01D000231D46EBB2194620461A
:1039800000F09EFF6D4BD3F854416D4BD3E9060117
:1039900001231D464FF000024FF00003FDF7A4FA8B
:1039A0000346002B01D000231D46EBB219462046EA
:1039B00000F086FF614BD3F86841614BD3E90A01FF
:1039C00001231D464FF000024FF00003FDF78CFA73
:1039D0000346002B01D000231D46EBB219462046BA
:1039E00000F06EFF554BD3F87C41554BD3E90801ED
:1039F00001231D464FF000024FF00003FDF774FA5B
:103A00000346002B01D000231D46EBB21946204689
:103A100000F056FF494BD3F89041494BD3E91001D0
:103A200001231D464FF000024FF00003FDF75CFA42
:103A30000346002B01D000231D46EBB21946204659
:103A400000F03EFF3D4BD3E906013E4BD3E908347D
:103A50001A462346FDF748FA0346002B05D1394B99
:103A6000D3E90834354AC2E90634344B1B69184699
:103A700000F002FD314B1B6907F1100107221846C7
:103A800000F09EFC2D4BD3E90E012E4BD3E90634FA
:103A90001A462346FDF728FA0346002B05D1294B89
:103AA000D3E90634254AC2E90E34244B1B6B184671
:103AB00000F0E2FC214B1B6B07F1100107221846B6
:103AC00000F07EFC1D4BD3E916011E4BD3E90434F4
:103AD0001A462346FDF708FA0346002B05D1194B79
:103AE000D3E90434154AC2E91634144B1B6D184649
:103AF00000F0C2FC114B1B6D07F1100107221846A4
:103B000000F05EFC0D4BD3E91E010E4BD3E90234ED
:103B10001A462346FDF7E8F90346002B05D1094B69
:103B2000D3E90234054AC2E91E34044B1B6F184620
:103B300000F0A2FC014B1B6F06E000BF301100201B
:103B4000D01000200000002007F1100107221846C5
:103B500000F036FC124BD3E92601124BD3E90034B6
:103B60001A462346FDF7C0F90346002B05D10D4B3D
:103B7000D3E900340A4AC2E92634094BD3F890301D
:103B8000184600F079FC064BD3F8903007F110018D
:103B90000722184600F014FC00BF4837BD46B0BDF0
:103BA000301100200000002090B587B000AFC04B5E
:103BB000012283F8A020BE4B0022C3F8A420BC4AF7
:103BC0004FF00003BB4CC2E92E34B94B002283F8FE
:103BD000A020B94BD3E90C34B54AC2E92E34B74B17
:103BE0007B61B34B002283F8A820B14B0122C3F8BC
:103BF000A4200021012000F0BBFD02467B691A6170
:103C0000AB4B012283F8A820A94B012283F8C020E6
:103C1000A74B0022C3F8C420A54A4FF00003A54CCF
:103C2000C2E93634A24B002283F8C020A24BD3E96C
:103C30000A349F4AC2E93634A14B7B619C4B002277
:103C400083F8C8209A4B0122C3F8C4200021002029
:103C500000F08EFD02467B691A61954B012283F8C4
:103C6000C820934B012283F8E020914B0022C3F837
:103C7000E4208F4B002283F8E020924B3B618C4B79
:103C8000002283F8E8208A4B0122C3F8E4200121B6
:103C9000022000F06DFD02463B691A61844B01224F
:103CA00083F8E820824B012283F89421804B002284
:103CB000C3F898217E4B002283F89421824BFB604D
:103CC0007B4B002283F89C21794B0122C3F8982179
:103CD0009FED731B9FED740B062000F02FFC024636
:103CE000FB681A61724BD3F8A431184600F0D8FC77
:103CF0006F4B012283F89C216D4B012283F8F42045
:103D00006B4B0022C3F8F820694B002283F8F420A3
:103D10006E4B3B61664B002283F8FC20644B012212
:103D2000C3F8F8200121042000F022FD02463B697F
:103D30001A615F4B012283F8FC205D4B012283F85E
:103D4000A8215B4B0022C3F8AC21594B002283F819
:103D5000A8215F4BFB60564B002283F8B021544BE7
:103D60000122C3F8AC219FED4E1B9FED4F0B0520A8
:103D700000F0E4FB0246FB681A614D4BD3F8B83102
:103D8000184600F08DFC4A4B012283F8B021484BC5
:103D9000012283F8BC21464B0022C3F8C021444BCA
:103DA000002283F8BC214B4BFB60414B002283F87F
:103DB000C4213F4B0122C3F8C0219FED391B9FED69
:103DC0003A0B032000F0BAFB0246FB681A61384B3D
:103DD000D3F8CC31184600F063FC354B012283F850
:103DE000C421334B012283F80821314B0022C3F850
:103DF0000C212F4B002283F80821374B3B612C4BC1
:103E0000002283F810212A4B0122C3F80C21012142
:103E1000072000F0ADFC02463B691A61244B0122E9
:103E200083F81021224B012283F81C21204B002211
:103E3000C3F820211E4B002283F81C21274B3B6135
:103E40001B4B002283F82421194B0122C3F82021A7
:103E50000121082000F08CFC02463B691A61144BDA
:103E6000012283F82421124B012283F83021104BC8
:103E70000022C3F834210E4B002283F83021184B66
:103E80003B610B4B002283F83821094B0122C3F818
:103E900034210121092000F06BFC02463B6921E03E
:103EA00000000000000000000000000000409F40F3
:103EB000301100200000F0BF00000020D0110020D1
:103EC000F011002010120020C41200202412002043
:103ED000D8120020EC120020381200204C120020D2
:103EE000601200201A61B24B012283F83821B04BD6
:103EF000012283F84421AE4B0022C3F84821AC4B89
:103F0000002283F84421AB4B3B61A94B002283F88C
:103F10004C21A74B0122C3F8482101210B2000F0BE
:103F200027FC02463B691A61A14B012283F84C2110
:103F30009F4B012283F858219D4B0022C3F85C213E
:103F40009B4B002283F858219B4B3B61984B0022EE
:103F500083F86021964B0122C3F85C2101210A20DD
:103F600000F006FC02463B691A61914B012283F87E
:103F700060218F4B012283F86C218D4B0022C3F806
:103F800070218B4B002283F86C218C4B3B61884B5A
:103F9000002283F87421864B0122C3F8702101218D
:103FA0000C2000F0E5FB02463B691A61804B0122C0
:103FB00083F874217E4B012283F880217C4B002200
:103FC000C3F884217A4B002283F880217C4B3B612B
:103FD000774B002283F88821754B0122C3F8842196
:103FE00001210D2000F0C4FB02463B691A61704BB1
:103FF000012283F888216E4B01221A706C4B00223B
:104000005A606B4A4FF000036E4CC2E90634684BAD
:1040100000221A706C4BD3E90834654AC2E90634B1
:10402000634BBB60624B00221A72614B01225A60E3
:10403000142000F061F90246BB681A610023FB718D
:104040005B4B1B69F9790022184600F0A9F9584B1F
:1040500001221A72564B012283F82020544B002271
:104060005A62534A4FF00003564CC2E90E34504B8B
:10407000002283F82020544BD3E906344C4AC2E98D
:104080000E34524BBB604A4B002283F82820484B29
:1040900001225A62132000F02FF90246BB681A6110
:1040A0000023FB71424B1B6BF9790022184600F08C
:1040B00077F93F4B012283F828203D4B012283F8FA
:1040C00040203B4B00225A64394A4FF000033D4CDC
:1040D000C2E91634364B002283F840203A4BD3E92C
:1040E0000434334AC2E91634394BBB60304B0022EA
:1040F00083F848202E4B01225A64122000F0FCF86D
:104100000246BB681A610023FB71294B1B6DF979CC
:104110000022184600F044F9254B012283F848207C
:10412000234B012283F86020214B00225A66204A4B
:104130004FF00003234CC2E91E341D4B002283F8CC
:104140006020214BD3E90234194AC2E91E34214BC5
:10415000BB60174B002283F86820154B01225A667A
:10416000112000F0C9F80246BB681A610023FB71F8
:104170000F4B1B6FF9790022184600F011F90C4B18
:10418000012283F868200A4B012283F88020084B23
:104190000022C3F88420064A4FF00003094CC2E90C
:1041A0002634034B002283F88020074B14E000BF25
:1041B0003011002074120020881200209C12002070
:1041C000B01200200000F0BF0000002050110020BD
:1041D0007011002090110020D3E90034124AC2E986
:1041E0002634124BBB60104B002283F888200E4B04
:1041F0000122C3F88420102000F07EF80246BB683C
:104200001A610023FB71084BD3F89030F979002232
:10421000184600F0C5F8044B012283F8882000BF3F
:104220001C37BD4690BD00BF30110020B0110020EA
:1042300080B500AF1D48FEF705FD1D48FEF702FDE5
:104240001C48FEF731FD1C48FEF765FD1B48FEF7D4
:104250002BFD1B48FEF75FFD1A48FEF75CFD1A4870
:10426000FEF722FD1948FEF71FFD1948FEF71CFD59
:104270001848FEF719FD1848FEF716FD1748FEF717
:1042800013FD1748FEF710FD1648FEF77BFD164894
:10429000FEF778FD1548FEF775FD1548FEF772FD2F
:1042A0001448FEF76FFD00BF80BD00BFD011002095
:1042B000F011002010120020C4120020241200204F
:1042C000D8120020EC120020381200204C120020DE
:1042D0006012002074120020881200209C1200201E
:1042E000B012002030110020501100207011002069
:1042F00090110020B011002080B586B000AF78602A
:1043000026497A6813465B0013449B000B4409332B
:104310001B78002B27D107F10803184603F07AF920
:104320000323FB721D497A6813465B0013449B000C
:104330000B441B6807F108021146184603F07CF98C
:1043400016497A6813465B0013449B000B440933FB
:1043500003221A707A6813465B0013449B000F4ACD
:1043600013447B6115E00D497A6813465B001344E2
:104370009B000B4409331B78032B08D17A68134642
:104380005B0013449B00054A13447B6101E000235A
:104390007B617B6918461837BD4680BDB804002094
:1043A00080B485B000AFF8600B467A60FB7200BF46
:1043B0001437BD465DF8047B704700000000000024
:1043C00090B58BB000AFF860B9601346FB71FB6825
:1043D000FB61FB69002B3AD0FB691B7A3B7500231C
:1043E000BB7500237B75FB691B680121184603F030
:1043F0006BF9FB691868FB695B6807F114021946E1
:1044000003F082F9FB691A68FB695B68194610467C
:1044100003F096F9FB691A68FB695B681946104658
:1044200003F0B2F903467B837B8B07EE903AF8EEFC
:10443000677A17EE900AFCF797FA0DA3D3E90023E9
:10444000FCF7EAFA03460C46C7E9083405E04FF0EA
:1044500000034FF00004C7E90834BA68D7E908340C
:10446000C2E9003400BF2C37BD4690BDAFF30080D9
:10447000100010001000F03E80B483B000AF7860F0
:1044800000BF0C37BD465DF8047B704780B483B035
:1044900000AF786000BF0C37BD465DF8047B704705
:1044A00080B483B000AF786000BF0C37BD465DF8C4
:1044B000047B704780B584B000AFF860B9601346E4
:1044C000FB71BB681F2B05D90D4B0E4AFF210E480F
:1044D00004F05AFBFB68BA6853F8223023F080736B
:1044E00023F4E063FA79120202F4E06243EA020183
:1044F000FB68BA6843F8221000BF1037BD4680BD84
:10450000C4B5000094B60000D0B5000080B483B0FC
:1045100000AF78600B46FB707B681B6823F01802C5
:10452000FB78DB0003F018031A437B681A6000BFB6
:104530000C37BD465DF8047B7047000090B58FB026
:1045400000AF786187ED020B87ED001B524A7B6953
:104550005B01134411331B78002B40F0878000234C
:1045600087F82830002387F82930002387F82A307D
:104570008023FB62484A7B695B0113441868464A02
:104580007B695B01134404331968434A7B695B010F
:10459000134410331B781A46FFF78CFF3E4A7B69A1
:1045A0005B01134408331B6807F1280211461846C3
:1045B00003F086F9384A7B695B01134408331B68B2
:1045C000DBB200220121184603F0FEF9324A7B6972
:1045D0005B011344113304221A702F4A7B695B017B
:1045E000134403F11802D7E90234C2E9003402236C
:1045F0003B7600237B76284A7B695B0113441833A2
:10460000D3E9003418462146FCF7A0FC0346FB61C1
:10461000D7E90001FCF79AFC03463B620023BB8408
:104620001D4A7B695B01134408331B681B4A52F81F
:1046300023303B630021386BFFF768FF164A7B6924
:104640005B01134408331868134A7B695B01134408
:104650000C331B68DAB207F11803194603F012FA9B
:104660007B695B010C4A13447B630FE00A4A7B6958
:104670005B01134411331B78042B05D17B695B016B
:10468000054A13447B6301E000237B637B6B184680
:104690003C37BD4690BD00BFF8010020DCBE0000E5
:1046A00080B483B000AF786000BF0C37BD465DF8C2
:1046B000047B704790B58BB000AFF86087ED000BBE
:1046C000FB687B627B6A002B2CD07B6A5B7C042BB3
:1046D00028D102233B7400237B747B6AD3E9063420
:1046E00018462146FCF732FC03467B61D7E90001FE
:1046F000FCF72CFC0346BB610023BB837B6A9B68F1
:104700000A4A52F823303B620021386AFFF7FEFE66
:104710007B6A98687B6ADB68DAB207F11003194696
:1047200003F0B0F900BF2C37BD4690BDDCBE0000E1
:1047300080B485B000AF78607B68FB60FB68002BBD
:1047400006D0FB685B7C042B02D1FB6800225A7404
:1047500000BF1437BD465DF8047B704780B483B05A
:1047600000AF786000BF0C37BD465DF8047B704732
:1047700080B590B000AF78600B46FB70FB78002BE3
:1047800027D107F1240300221A605A609A60DA6088
:104790001A615A612D4A7B6852F833307B620123DB
:1047A00087F82830012387F829304FF0FF333B6327
:1047B00007F12403184603F057FA244A7B68DB000C
:1047C000134401221A717B68DB00204A1344FB6307
:1047D00036E0FB78012B31D107F10C0300221A607F
:1047E0005A609A60DA601A615A61184A7B6852F816
:1047F0003330FB6001233B754FF0FF33BB6107F1A2
:104800000C03184603F0A0FA104A7B68DB0013443F
:1048100002221A717B68292B0AD97B682C2B07D8B6
:104820000A4A7B6852F833300121184603F0C4FA73
:104830007B68DB00054A1344FB6301E00023FB6354
:10484000FB6B18464037BD4680BD00BF7C00002092
:1048500080B586B000AF78607B683B613B69002B18
:104860000BD03B691B79012B07D13B691B681846AC
:1048700003F0B0FA0346FB7501E00023FB753B69CA
:104880001B681B0ADBB2FB603B691B68DBB2BB60C9
:10489000FB68022B02D1BB68062B05D0FB68002BFE
:1048A00009D1BB68042B06D1FB7D002B0CBF012373
:1048B0000023DBB2FB75FB7D18461837BD4680BD73
:1048C00080B586B000AF78600B46FB707B687B617B
:1048D0007B69002B2FD07B691B79022B2BD17B6945
:1048E0001B681B0ADBB23B617B691B68DBB2FB60A8
:1048F0003B69012B05D1FB68162B08D0FB68152BF3
:1049000005D03B69042B0FD1FB681A2B0CD17B69B6
:104910001A68FB78012B14BF01230023DBB2194670
:10492000104603F049FA06E07B691B68FA781146E5
:10493000184603F041FA00BF1837BD4680BD80B469
:1049400085B000AF78607B68FB60FB68002B0ED001
:10495000FB681B79022B03D1FB6800221A7106E069
:10496000FB681B79012B02D1FB6800221A7100BF82
:104970001437BD465DF8047B704780B400AFFEE796
:1049800080B483B000AF78607B68013B032B0BD809
:1049900001A252F823F000BFA9490000A949000074
:1049A000A9490000A949000000BFFEE77047704711
:1049B0000020002104460D46084804F003F904F0E5
:1049C0004BF92046294600F04DFF0548002101F033
:1049D0007DF800F0D7FF04F001F90000FD8B000026
:1049E000E8B6000080B584B000AFF860B960134647
:1049F000FB71BB681F2B05D90D4B0E4AFF210E48DA
:104A000004F0C2F8FB68BA6853F8223023F08073D0
:104A100023F4E063FA79120202F4E06243EA02014D
:104A2000FB68BA6843F8221000BF1037BD4680BD4E
:104A300024B6000010B7000030B6000080B483B088
:104A400000AF78600B46FB707B68FA781A7000BF85
:104A50000C37BD465DF8047B7047000080B584B01C
:104A600000AF3B4600221A605A609A60DA60064B3B
:104A70003B6002237B723B461946002002F046FC55
:104A800000BF1037BD4680BD80F0FA0280B584B00B
:104A900000AF074A3B1D07CA83E807003B1D1946C4
:104AA000002002F081FC00BF1037BD4680BD00BF72
:104AB00084B6000080B500AF2A210848FFF7BEFF8A
:104AC000002212210648FFF78DFFFFF7C7FFFFF70F
:104AD000DDFF044802F0BCFC00BF80BD00E00740E1
:104AE00000900440F8B6000080B582B000AF786056
:104AF000034800F0A0FA00BF0837BD4680BD00BFE4
:104B00001042002098B500AF094B0A4A1A600A4BC0
:104B10000A4A1C1D13460FCB84E80F0000F0E1FA8F
:104B20000246054B1A60064B034A1A6000BF98BD47
:104B30001042002018420020F0410020E8B600009A
:104B40000842002080B586B002AF87ED010A3860C8
:104B50000223FB60FFF7D6FF164800F05CFA03461D
:104B6000BB60154800F057FA0346BB600023009372
:104B70000023FA681149124800F08AFA0346BB6024
:104B80000023104A0121104800F0C3FA0346BB601D
:104B9000D7ED017A9FED0D7A67EE877AFCEEE77A22
:104BA00017EE901A084800F0DBFA00BF1037BD4638
:104BB00080BD00BF1042002008420020D14B000001
:104BC00018420020E94A0000CC41002000007A444D
:104BD00080B586B000AF7861184B1B681B68002B4E
:104BE0000CBF01230023DBB21A46154B1A7011E0EB
:104BF0003B461449184600F031FAFEF7D5F80F4B42
:104C00001B681B68002B14BF01230023DBB21A466C
:104C10000D4B1A700A4B1B78DBB2002BE8D1084B06
:104C200000221A70786900F011F8002000F060FA94
:104C3000002318461837BD4680BD00BF90B600005F
:104C400078000020104200200442002080B582B08D
:104C500000AF7860074B01221A60074B00221A70E0
:104C6000FFF7E6FA054800F0E6F900231846083792
:104C7000BD4680BD2C420020780000200842002064
:104C800080B586B000AF7861396100F0FDFB00F0BF
:104C9000BCF80A4B1B6800221A60FEF785FF002053
:104CA0009FED070AFFF74EFF3B460649184600F006
:104CB000D5F9002318461837BD4680BD90B60000D0
:104CC0006F12833A0842002080B500AF002002F046
:104CD00083FD00BF80BD80B500AF012002F07CFDE8
:104CE00000BF80BD80B500AF022002F075FD00BF9F
:104CF00080BD80B500AF032002F06EFD00BF80BD17
:104D000080B500AF042002F067FD00BF80BD80B514
:104D100000AF052002F060FD00BF80BD80B500AF90
:104D2000062002F059FD00BF80BD80B500AF07200E
:104D300002F052FD00BF80BD80B500AF082002F038
:104D40004BFD00BF80BD80B500AF092002F044FDDF
:104D500000BF80BD80B500AF0A2002F03DFD00BF5E
:104D600080BD80B500AF0B2002F036FD00BF80BDD6
:104D700080B500AF0C2002F02FFD00BF80BD80B5D4
:104D800000AF0D2002F028FD00BF80BD80B500AF50
:104D90000E2002F021FD00BF80BD80B500AF0F20C6
:104DA00002F01AFD00BF80BD80B500AF002002F008
:104DB0002BFD00BF80BD80B500AF002003F0B4FB29
:104DC00000BF80BD80B500AF012003F0ADFB00BF88
:104DD00080BD80B500AF022003F0A6FB00BF80BD00
:104DE00080B500AF032003F09FFB00BF80BD80B5FE
:104DF00000AF042003F098FB00BF80BD80B500AF7A
:104E0000052003F091FB00BF80BD80B582B000AFEC
:104E100002F0BAF90023FB7106E0FB79184602F0B4
:104E200091FBFB790133FB71FB79042BF5D9FFF77B
:104E300041FE00BF0837BD4680BD80B400AFFEE72D
:104E400080B400AFFEE780B400AFFEE780B400AFEF
:104E5000FEE780B400AFFEE780B400AFFEE780B4A9
:104E600000AFFEE780B400AFFEE780B400AFFEE71E
:104E700080B400AFFEE780B400AFFEE780B400AFBF
:104E8000FEE780B400AFFEE780B400AFFEE780B479
:104E900000AFFEE780B400AFFEE780B400AFFEE7EE
:104EA00080B400AFFEE780B400AFFEE780B400AF8F
:104EB000FEE780B400AFFEE780B400AFFEE780B449
:104EC00000AFFEE780B400AFFEE780B400AFFEE7BE
:104ED00080B400AFFEE780B400AFFEE780B400AF5F
:104EE000FEE780B400AFFEE780B400AFFEE780B419
:104EF00000AFFEE780B400AFFEE780B400AFFEE78E
:104F000080B400AFFEE780B400AFFEE780B400AF2E
:104F1000FEE780B400AFFEE780B400AFFEE780B4E8
:104F200000AFFEE780B400AFFEE780B400AFFEE75D
:104F300080B400AFFEE780B400AFFEE780B400AFFE
:104F4000FEE780B400AFFEE780B400AFFEE780B4B8
:104F500000AFFEE780B400AFFEE780B400AFFEE72D
:104F600080B400AFFEE780B400AFFEE780B400AFCE
:104F7000FEE780B400AFFEE780B400AFFEE780B488
:104F800000AFFEE780B400AFFEE780B400AFFEE7FD
:104F900080B400AFFEE780B400AFFEE780B400AF9E
:104FA000FEE784B080B582B000AF07F1100C8CE84A
:104FB0000F003B69796A184600F0DAFF03467B6010
:104FC0007B6818460837BD46BDE8804004B070478E
:104FD00084B080B500AF07F1080C8CE80F00BB6807
:104FE000F969184600F0E4FF03461846BD46BDE8DF
:104FF000804004B0704780B582B000AF78603960FF
:105000007B684FF0FF323968184600F0DFFF7868A0
:105010000837BD4680BD80B485B000AF78607B683E
:1050200001225A600123FB60FB6818461437BD4615
:105030005DF8047B704780B584B002AF78607B6810
:105040001B687A68526801921A6900920FCBFFF7C9
:10505000A8FF034618460837BD4680BD80B584B01A
:1050600002AF786039603B681B683A685268019209
:105070001A6900920FCBFFF7ABFF3B685A687B6859
:1050800011461846FFF7B7FF78680837BD4680BD60
:1050900080B586B000AFF860B9607A603B60FB68AD
:1050A000BA685A60FB687A689A60FB680122DA6025
:1050B0003A68FB681A61FB680433396A184600F0E5
:1050C00005FD0246FB681A60FB681B68002B14BFD5
:1050D00001230023DBB27B617B6918461837BD468C
:1050E00080BD80B500AF00F03FFD0346184680BD8F
:1050F00080B584B000AF786000F036FD0346FB60F9
:10510000F86800F03DFD0346BB6000BF1037BD46A8
:1051100080BD80B586B000AFF8607A603B600B461A
:10512000FB72FB6803F10C02FB689A60FB687A680B
:105130005A60FB680433F97A3A68184600F014FEA6
:105140000246FB681A60FB681B68002B14BF012332
:105150000023DBB27B617B6918461837BD4680BDF2
:1051600080B584B000AF786039607B681B683968AF
:10517000184600F02BFE0346FB60FB68184610370C
:10518000BD4680BD80B584B000AF7860114B1B6810
:10519000002B02D10F4B104A1A600E4B1B68FB60AC
:1051A0000C4B1A687B6813440C4A934207D903F0EE
:1051B0000FFD02460C2313604FF0FF3306E0054B52
:1051C0001A687B681344034A1360FB68184610375B
:1051D000BD4680BD304200200000FF1F00000020BF
:1051E00080B489B000AF284BFB60284A284B9A4214
:1051F00016D00023FB610AE0254AFB6952F8232000
:105200002249FB6941F82320FB690133FB61FB68FC
:105210009B08FA699A42EFD31E4B1C4A9A6002E03F
:105220001C4B1B4A9A601C4BBB611C4B7B611C4B8B
:10523000BB60BA687B69D31AFB6107E07A69531CCB
:105240007B61BB69591CB96112781A70FB695A1EDF
:10525000FA61002BF2D1134B3B61134B7B607A68F0
:105260003B69D31AFB6104E03B695A1C3A61002296
:105270001A70FB695A1EFA61002BF5D100BF243762
:10528000BD465DF8047B7047000000000000000090
:105290000000000000ED00E00000002090CA0000C7
:1052A00040DB0000B0100020A843002080B400AF15
:1052B0006B4BD3F888306A4A43F47003C2F88830E5
:1052C000684B4CF22052DA81664B4DF62812DA8197
:1052D000644B4FF4E9721A80634B1B78DBB203F026
:1052E0000103002B0FD0614B9B78DBB203F0080366
:1052F000002B2ED05D4B9B78DBB25C4A43F0080359
:10530000DBB2937025E05A4B03F581531C331B68C5
:10531000574943F0005201F581531C331A60554B35
:105320001B6903F48073002B13D1524B1B6923F4C8
:105330007C53504A43F4407313614E4B1B694D4AF2
:1053400043F4807313614B4B1B694A4A23F4007387
:105350001361494B2A221A70454B03F582530433DB
:105360004FF08A721A60424B1B6823F44023404A74
:1053700043F4002313603E4B03F5805304331B6852
:1053800023F440333A4943F4803201F58053043327
:105390001A60374B03F5815318331B68344943F4C3
:1053A000007201F5815318331A60344B9B6C334AF9
:1053B00023F0807323F4E0639364314B00221A726C
:1053C0002F4B5B78DBB223F06003DBB22C4A43F057
:1053D0002003DBB253702B4B80221A70284B002223
:1053E0001A73274BBA221A7000BF254B9B79DBB288
:1053F00003F01003002BF8D1214BDB78DBB2204AFD
:1054000003F01F03DBB2D3701D4B13221A711C4B28
:1054100018225A711A4B5B79DBB2194A43F04003E8
:10542000DBB2537100BF164B9B79DBB203F0400334
:10543000002BF8D0124B1B78DBB2114A03F03F036C
:10544000DBB2137000BF0E4B9B79DBB203F00C0391
:105450000C2BF8D100BFBD465DF8047B704700BF40
:1054600000ED00E00020054000F0074000D00740BC
:105470000070044000D0034000E00740009004406A
:10548000004006400050064080B483B000AF964B09
:105490001B78DBB203F0C003002B40F0D280924BAC
:1054A0005B79DBB203F04003002B40F0AD808E4B04
:1054B0001B78DBB203F00403002B4ED18A4B1B7B1D
:1054C000DBB203F00303002B02D0012B03D006E074
:1054D000864B7B6006E04FF400437B6002E0844B28
:1054E0007B6000BF804B5B78DBB203F03003002BA6
:1054F00023D07D4B1B7BDBB203F00303012B1CD0BD
:10550000794B1B78DBB203F03803302B05D0382BF6
:1055100007D14FF4C0637B800EE04FF4A0637B8023
:105520000AE0714B1B78DBB2DB0803F00703202293
:1055300002FA03F37B8000BF09E06B4B1B78DBB200
:10554000DB0803F00703012202FA03F37B807B8868
:105550007A68B2FBF3F37B6002E04FF400437B60B8
:10556000614BDB78DBB203F0E003602B29D0602BCA
:1055700006D8202B17D0402B1CD0002B0CD09DE040
:10558000A02B2CD0A02B02D8802B21D096E0C02BB2
:105590002CD0E02B31D091E07A6813469B00134465
:1055A000DB017B608AE07A6813469B0013441B0290
:1055B0007B6083E07A6813461B019B1ADB017B60EA
:1055C0007CE07A6813469B0013445B027B6075E0C5
:1055D0007B684FF4377202FB03F37B606EE07B68FD
:1055E0004FF4B76202FB03F37B6067E07B6840F631
:1055F000950202FB03F37B6060E07B6840F671324A
:1056000002FB03F37B6059E0374B1B79DBB29BB2A3
:1056100003F01F039BB201337B807B88334AB2FBCC
:10562000F3F37B60304B5B79DBB29BB203F01F037B
:105630009BB218337B807A887B6802FB03F37B6024
:105640003CE0294B1B78DBB203F0C003402B1AD19E
:10565000254B5B78DBB203F00103002B03D14FF441
:1056600000437B602AE0204B1B7ADBB25B0803F02F
:105670000703012202FA03F37B807B881D4AB2FBF9
:10568000F3F37B601AE0184B1B78DBB203F0C00326
:10569000802B22D1144B1B7BDBB203F00303002BC6
:1056A00002D0012B03D006E0104B7B6006E04FF4E4
:1056B00000437B6002E00E4B7B6000BF0E4B03F5A6
:1056C000825304331B681B0F03F00F0301337A6806
:1056D000B2FBF3F3094A136000E000BF0C37BD468C
:1056E0005DF8047B704700BF0040064080F0FA027E
:1056F000006CDC0200093D0000700440F806002048
:1057000000B5DFF80CC000DFDFF808C000DFFEE7FF
:10571000715A0000895A00002DE9F041334C23787A
:1057200053B1334B1B68FF229A70324A0020012389
:1057300010702370BDE8F0812F4B3048196800F0DD
:1057400055FD10B18520BDE8F08101F005FC284B26
:1057500021781B68FF229A700029E6D1284A136835
:10576000002B40D0556845B12A78002A39D1191D3F
:10577000890089B2284600F0F9FD224B224A1E68B2
:10578000156066B35D68EA1C062A28D8DF68B7B1E1
:1057900039461A4800F038FD804600B3291D41EA19
:1057A000072130460023424601F06CFA054670B9E5
:1057B0004146124800F050FD144B1D60B5E7291D0D
:1057C00030463B463A4601F05DFA054638B1104B8B
:1057D000104A013D53F82550AB6A5A63ECE70025A7
:1057E000EAE70D46C9E71D46C7E700BF00430020B2
:1057F0004443002001430020C4B60000D0350020FF
:10580000DCB60000CCB60000C4410020A04100205E
:10581000944100200157000038B5104C207808B1A1
:10582000002038BD0E4D2B6893F8241001F0AEF91E
:105830002B68DA78FF2A08D06A68094952B101F06A
:1058400001FC01232370002038BD9A6A203282F3C4
:105850000988F1E781E80C00F1E700BF014300206F
:10586000444300202DE9F041EFF3058414B1822078
:10587000BDE8F081EFF31484E40704D5DFF800C13C
:1058800000DFBDE8F081334C237853B1324B1B6805
:10589000FF229A70314A0020012310702370BDE866
:1058A000F0812F4B2F48196800F0A0FC10B1852023
:1058B000BDE8F08101F050FB274B21781B68FF22E7
:1058C0009A700029E6D1284A1368002B40D0556809
:1058D00045B12A78002A39D1191D890089B2284694
:1058E00000F044FD214B224A1E68156066B35D68D6
:1058F000EA1C062A28D8DF68B7B13946194800F0F3
:1059000083FC804600B3291D41EA0721304600236D
:10591000424601F0B7F9054670B94146114800F01A
:105920009BFC144B1D60B5E7291D30463B463A46AB
:1059300001F0A8F9054638B10F4B104A013D53F864
:105940002550AB6A5A63ECE70025EAE70D46C9E744
:105950001D46C7E7004300204443002001430020C8
:10596000C4B60000D0350020DCB60000CCB6000084
:10597000C4410020A04100209441002001570000B4
:105980001957000010B588B0EFF3058414B18220D8
:1059900008B010BDEFF3148404F00304022C1DD0F2
:1059A000032C14D0012C16D008AC84F309880F4CBA
:1059B0002478E40716D5022484F31488BFF34F8FAC
:1059C000BFF36F8FDFF828C000DF08B010BD074CB1
:1059D0002478E407F6D5FF2008B010BD034C2478E6
:1059E000E407EFD4032484F31488E7E7B4B6000097
:1059F00019580000002833D0F8B5066876B3476818
:105A0000FB1C062B2AD8C26804460D46BAB11146C3
:105A1000144800F0F9FB064600B36268E1682068AC
:105A2000043242EA01212B46324601F02BF90446AA
:105A300060B931460B4800F00FFC2046F8BD0B461C
:105A40003046391D01F01EF9044638B1013C064BC1
:105A5000064A53F82400836A5A63F8BD0020F8BD53
:105A600000207047D03500209441002001570000ED
:105A700008B501F083F818B10138024B53F8200043
:105A800008BD00BF9441002098B1830711D103786D
:105A90007BB9C18C10B571B9C0780C4601F07AF9A8
:105AA000FF280ED01CB12146074800F0D5FB00208E
:105AB00010BD80207047C46AC07801F06BF9FF28E0
:105AC000F0D1812010BD00BFD0350020F8B5EFF334
:105AD00005846CBBEFF31484E40702D41D4C2478D6
:105AE0001CB1DFF880C000DFF8BD08B30668FEB166
:105AF0004768FB1C062B1BD8C2680D460446CAB17A
:105B00001146154800F080FB064688B16268E168DE
:105B10002068043242EA01212B46324601F0B2F8F5
:105B2000044678B931460C4800F096FB2046F8BD93
:105B30000020F8BD0B463046391D01F0A3F804469D
:105B40000028F5D0601E054B054A53F82000836AF3
:105B50005A63F8BD01430020D03500209441002055
:105B600001570000F559000010B5EFF305841CB98A
:105B7000DFF808C000DF10BD002010BD715A000022
:105B800010B5EFF305840CB1822010BDDFF804C01E
:105B900000DF10BD895A000098B130B404689CB190
:105BA00043689BB101290DD8094C246864B11C7964
:105BB00044B9012558611C6059711A611D7118465C
:105BC00030BC70470020FBE72046F9E71846F7E7AE
:105BD000A0410020820703D110B119B98620704777
:105BE00080207047F8B52B4B1A68002312F1FF365E
:105BF00043F1FF3704464FF47A70E0FB016730460B
:105C00003946FBF7C3F92379012B10D0022B0CD1B5
:105C1000214D2B684BB19C4237D0194602E094428B
:105C200026D011460A68002AF9D18120F8BD1A4D04
:105C3000E06002222B6822715BB19968884204D22D
:105C40000EE0916881420DD813461A68401A002A66
:105C5000F7D10022A0602260A3B11C600020F8BD33
:105C60001A460023A06091682260081A9060F3E74A
:105C700022680A602268002ADED09668A168314452
:105C80009160D9E72C601846F8BD22682A60134657
:105C9000F1E700BFB8B6000004430020830704D139
:105CA00030B14369016918687047002001467047A8
:105CB000014670472DE9F04F294F3C6883B054B33B
:105CC000A668DFF8A080013EA660B9464FF0000A42
:105CD0000EBBD8F8003025683D6023B193F800B0C2
:105CE000BBF1010F02D00420FEF74AFE18460193D3
:105CF00000F09EFB019B0028F5D01846214600F0DD
:105D00009BFB6379012B09D084F804B01DB1AE6808
:105D10002C46002EDDD003B0BDE8F08FD9F800008E
:105D2000E26858B18168914204D90DE099689142C6
