:1000000000000020F5040000397F00003F7F000061
:10001000457F00004B7F0000517F00000000000082
:100020000000000000000000000000006505000066
:10003000577F0000000000000B0600006B06000068
:1000400029770000377700004577000053770000DC
:10005000617700006F7700007D7700008B770000EC
:1000600099770000A7770000B5770000C3770000FC
:10007000D1770000DF770000ED770000FB7700000C
:10008000097800005D7F0000637F0000697F000049
:100090006F7F0000757F00007B7F0000817F000084
:1000A000877F00008D7F0000937F0000997F000014
:1000B0009F7F0000A57F0000AB7F00001778000045
:1000C000B17F000025780000B77F00003378000082
:1000D000BD7F000041780000C37F0000C97F0000A1
:1000E000CF7F0000D57F0000DB7F0000E17F0000B4
:1000F000E77F0000ED7F0000F37F0000F97F000044
:1001000005050000050500000505000005050000C7
:10011000FF7F0000058000000B80000011800000C0
:10012000178000001D80000023800000298000004F
:100130002F800000358000003B80000041800000DF
:10014000478000004D8000004F7800005380000081
:100150005D780000598000005F800000658000002D
:100160006B80000071800000778000007D800000BF
:1001700083800000898000008F800000958000004F
:100180009B80000005050000050500000505000036
:100190000505000005050000050500000505000037
:1001A0000505000005050000050500000505000027
:1001B0000505000005050000050500000505000017
:1001C0000505000005050000050500000505000007
:1003F000050500000505000005050000FFFFFFFFE3
:10040000FFFFFFFFFFFFFFFFFFFFFFFFFEFFFFFFFD
:1004400010B5054C237833B9044B13B10448AFF30E
:1004500000800123237010BD7810002000000000F0
:100460009813010008B5034B1BB103490348AFF3D0
:10047000008008BD000000007C10002098130100DF
:10048000154B002B08BF134B9D46A3F5803A002166
:100490008B460F461348144A121A0DF019FB0F4BE6
:1004A000002B00D098470E4B002B00D0984700201F
:1004B000002104000D000D48002802D00C480CF06B
:1004C000E5FF0DF02DF82000290007F009F90CF0E8
:1004D000E9FF00BF0000080000000020000000004D
:1004E0001174000078100020C04A00208DD4000054
:1004F000C5D4000072B608F0CFFB08F067FB62B607
:10050000FFF7BEFFFFF7FEBF80F309887047EFF3E8
:1005100009807047684680F309885A480078C00708
:1005200014BF0220032080F314887047DFF858C1FD
:10053000EFF305831B0618BF6047EFF31483DB0757
:1005400008BF604700DF7047DFF840C1EFF3058365
:100550001B0618BF6047EFF31483DB0708BF604733
:1005600000DF7047EFF30980816911F8021CE1BBDD
:1005700090E80F1010B5E047BDE81040EFF3098C8C
:100580008CE80700424B93E80600914208BF704791
:1005900041B91EF0100F16D13E49086820F0010045
:1005A000086010E01EF0100F06BF2CED108A01202D
:1005B000002081F825002CE9F00FC1F828C00CB408
:1005C0000AF06EF80CBC1A60D2F828C0BCE8F00F34
:1005D00092F8250000280EBF6FF0020E6FF0120E89
:1005E000BCEC108A8CF30988704710B52A4A12684F
:1005F000914209D8294C54F8214090E80F10A047A7
:10060000EFF3098C8CE80F0010BD10B509F0CCFF9A
:10061000BDE810401E4B93E80600914208BF7047AA
:10062000EFF3098C1EF0100F06BF2CED108A01208D
:10063000002081F825002CE9F00FC1F828C00CB487
:100640000AF02EF80CBC1A60D2F828C0BCE8F00FF3
:1006500092F8250000280EBF6FF0020E6FF0120E08
:10066000BCEC108A8CF30988704710B509F0FAFFCA
:10067000FFF7CEBF10B509F0F3FF09F0F3FFFFF766
:10068000C7BF0000340101002D9F0000499F0000FA
:100690005C4A002034EF00E000000000FCFFFFFF98
:1006A00081F0004102E000BF83F0004330B54FEA23
:1006B00041044FEA430594EA050F08BF90EA020F90
:1006C0001FBF54EA000C55EA020C7FEA645C7FEA23
:1006D000655C00F0E2804FEA5454D4EB5555B8BF46
:1006E0006D420CDD2C4480EA020281EA030382EAB7
:1006F000000083EA010180EA020281EA0303362D49
:1007000088BF30BD11F0004F4FEA01314FF4801C1B
:100710004CEA113102D0404261EB410113F0004F2D
:100720004FEA03334CEA133302D0524263EB4303E4
:1007300094EA050F00F0A780A4F10104D5F1200E82
:100740000DDB02FA0EFC22FA05F2801841F10001DD
:1007500003FA0EF2801843FA05F359410EE0A5F1B1
:1007600020050EF1200E012A03FA0EFC28BF4CF0E2
:10077000020C43FA05F3C01851EBE37101F0004598
:1007800007D54FF0000EDCF1000C7EEB00006EEBA5
:100790000101B1F5801F1BD3B1F5001F0CD349082F
:1007A0005FEA30004FEA3C0C04F101044FEA445286
:1007B00012F5800F80F09A80BCF1004F08BF5FEA0D
:1007C000500C50F1000041EB045141EA050130BDED
:1007D0005FEA4C0C404141EB010111F4801FA4F190
:1007E0000104E9D191F0000F04BF01460020B1FAE5
:1007F00081F308BF2033A3F10B03B3F120020CDA1D
:100800000C3208DD02F1140CC2F10C0201FA0CF0FA
:1008100021FA02F10CE002F11402D8BFC2F1200C5F
:1008200001FA02F120FA0CFCDCBF41EA0C01904015
:10083000E41AA2BF01EB0451294330BD6FEA04045E
:100840001F3C1CDA0C340EDC04F11404C4F1200249
:1008500020FA04F001FA02F340EA030021FA04F35B
:1008600045EA030130BDC4F10C04C4F1200220FAB2
:1008700002F001FA04F340EA0300294630BD21FAF0
:1008800004F0294630BD94F0000F83F4801306BFB6
:1008900081F480110134013D4EE77FEA645C18BFAA
:1008A0007FEA655C29D094EA050F08BF90EA020F41
:1008B00005D054EA000C04BF1946104630BD91EA39
:1008C000030F1EBF0021002030BD5FEA545C05D13C
:1008D0004000494128BF41F0004130BD14F580047B
:1008E0003CBF01F5801130BD01F0004545F0FE41EF
:1008F00041F470014FF0000030BD7FEA645C1ABF24
:10090000194610467FEA655C1CBF0B46024650EA5A
:10091000013406BF52EA033591EA030F41F4002186
:1009200030BD00BF90F0000F04BF0021704730B50C
:100930004FF4806404F132044FF000054FF00001E1
:1009400050E700BF90F0000F04BF0021704730B5A2
:100950004FF4806404F1320410F0004548BF404277
:100960004FF000013EE700BF42004FEAE2014FEACC
:1009700031014FEA02701FBF12F07F4393F07F4FA7
:1009800081F06051704732F07F4208BF704793F0AA
:100990007F4F04BF41F40021704730B54FF46074BD
:1009A00001F0004521F000411CE700BF50EA0102C0
:1009B00008BF704730B54FF000050AE050EA010269
:1009C00008BF704730B511F0004502D5404261EBD9
:1009D00041014FF4806404F132045FEA915C3FF41A
:1009E000D8AE4FF003025FEADC0C18BF03325FEAB7
:1009F000DC0C18BF033202EBDC02C2F1200300FA68
:100A000003FC20FA02F001FA03FE40EA0E0021FA8C
:100A100002F11444BDE600BF70B54FF0FF0C4CF47A
:100A2000E06C1CEA11541DBF1CEA135594EA0C0F2C
:100A300095EA0C0F00F0DEF82C4481EA030621EA67
:100A40004C5123EA4C5350EA013518BF52EA0335A2
:100A500041F4801143F4801338D0A0FB02CE4FF054
:100A60000005E1FB02E506F00042E0FB03E54FF084
:100A70000006E1FB03569CF0000F18BF4EF0010E7C
:100A8000A4F1FF04B6F5007F64F5407404D25FEA78
:100A90004E0E6D4146EB060642EAC62141EA55512B
:100AA0004FEAC52040EA5E504FEACE2EB4F1FD0C6D
:100AB00088BFBCF5E06F1ED8BEF1004F08BF5FEAEB
:100AC000500E50F1000041EB045170BD06F000469D
:100AD00046EA010140EA020081EA0301B4EB5C044A
:100AE000C2BFD4EB0C0541EA045170BD41F4801142
:100AF0004FF0000E013C00F3AB8014F1360FDEBF67
:100B0000002001F0004170BDC4F10004203C35DA42
:100B10000C341BDC04F11404C4F1200500FA05F3C5
:100B200020FA04F001FA05F240EA020001F0004266
:100B300021F0004110EBD37021FA04F642EB0601DC
:100B40005EEA430E08BF20EAD37070BDC4F10C0406
:100B5000C4F1200500FA04F320FA05F001FA04F2CA
:100B600040EA020001F0004110EBD37041F10001B6
:100B70005EEA430E08BF20EAD37070BDC4F12005C1
:100B800000FA05F24EEA020E20FA04F301FA05F229
:100B900043EA020321FA04F001F0004121FA04F2D1
:100BA00020EA020000EBD3705EEA430E08BF20EAA1
:100BB000D37070BD94F0000F0FD101F000464000DB
:100BC00041EB010111F4801F08BF013CF7D041EA5D
:100BD000060195F0000F18BF704703F00046520061
:100BE00043EB030313F4801F08BF013DF7D043EA32
:100BF0000603704794EA0C0F0CEA135518BF95EAE8
:100C00000C0F0CD050EA410618BF52EA4306D1D16E
:100C100081EA030101F000414FF0000070BD50EA8D
:100C2000410606BF1046194652EA430619D094EA17
:100C30000C0F02D150EA013613D195EA0C0F05D101
:100C400052EA03361CBF104619460AD181EA030155
:100C500001F0004141F0FE4141F470014FF000000D
:100C600070BD41F0FE4141F4780170BD70B54FF0A8
:100C7000FF0C4CF4E06C1CEA11541DBF1CEA135528
:100C800094EA0C0F95EA0C0F00F0A7F8A4EB05040A
:100C900081EA030E52EA03354FEA013100F0888001
:100CA0004FEA03334FF0805545EA131343EA1263CA
:100CB0004FEA022245EA111545EA10654FEA00267F
:100CC0000EF000419D4208BF964244F1FD0404F538
:100CD000407402D25B084FEA3202B61A65EB030594
:100CE0005B084FEA32024FF480104FF4002CB6EB51
:100CF000020E75EB030E22BFB61A754640EA0C00D1
:100D00005B084FEA3202B6EB020E75EB030E22BF10
:100D1000B61A754640EA5C005B084FEA3202B6EB51
:100D2000020E75EB030E22BFB61A754640EA9C0010
:100D30005B084FEA3202B6EB020E75EB030E22BFE0
:100D4000B61A754640EADC0055EA060E18D04FEA9E
:100D5000051545EA16754FEA06164FEAC30343EA3E
:100D600052734FEAC2025FEA1C1CC0D111F4801F0B
:100D70000BD141EA00014FF000004FF0004CB6E704
:100D800011F4801F04BF01430020B4F1FD0C88BFA3
:100D9000BCF5E06F3FF6AFAEB5EB030C04BFB6EBAE
:100DA000020C5FEA500C50F1000041EB045170BDA1
:100DB0000EF0004E4EEA113114EB5C04C2BFD4EBCE
:100DC0000C0541EA045170BD41F480114FF0000E52
:100DD000013C90E645EA060E8DE60CEA135594EACE
:100DE0000C0F08BF95EA0C0F3FF43BAF94EA0C0FD1
:100DF0000AD150EA01347FF434AF95EA0C0F7FF446
:100E000025AF104619462CE795EA0C0F06D152EA99
:100E100003353FF4FDAE1046194622E750EA41067D
:100E200018BF52EA43067FF4C5AE50EA41047FF48E
:100E30000DAF52EA43057FF4EBAE12E74FF0FF3CF3
:100E400006E000BF4FF0010C02E000BF4FF0010CC4
:100E50004DF804CD4FEA410C7FEA6C5C4FEA430C3D
:100E600018BF7FEA6C5C1BD001B050EA410C0CBF8C
:100E700052EA430C91EA030F02BF90EA020F0020EE
:100E8000704710F1000F91EA030F58BF994208BF55
:100E900090422CBFD8176FEAE37040F00100704712
:100EA0004FEA410C7FEA6C5C02D150EA013C07D169
:100EB0004FEA430C7FEA6C5CD6D152EA033CD3D0B4
:100EC0005DF8040B704700BF8446104662468C46AE
:100ED0001946634600E000BF01B5FFF7B7FF0028E1
:100EE00048BF10F1000F01BD4DF808EDFFF7F4FF0A
:100EF0000CBF012000205DF808FB00BF4DF808ED95
:100F0000FFF7EAFF34BF012000205DF808FB00BFB7
:100F10004DF808EDFFF7E0FF94BF012000205DF8D9
:100F200008FB00BF4DF808EDFFF7CEFF94BF01208E
:100F300000205DF808FB00BF4DF808EDFFF7C4FF87
:100F400034BF012000205DF808FB00BF4FEA410CD0
:100F50007FEA6C5C02D150EA013C0AD14FEA430CB3
:100F60007FEA6C5C02D152EA033C02D14FF00000F0
:100F700070474FF0010070474FEA410212F500122E
:100F800015D211D56FF47873B3EB625212D94FEAD0
:100F9000C12343F0004343EA505311F0004F23FABA
:100FA00002F018BF404270474FF00000704750EA0F
:100FB000013005D111F0004008BF6FF000407047CC
:100FC0004FF00000704700BF4A0011D212F5001226
:100FD00011D20DD56FF47873B3EB62520ED44FEA91
:100FE000C12343F0004343EA505323FA02F0704711
:100FF0004FF00000704750EA013002D14FF0FF304F
:1010000070474FF0000070474FEA4102B2F1E043F1
:1010100024BFB3F5001CDCF1FE5C0DD901F0004CDF
:101020004FEAC0024CEA5070B2F1004F40EB83002F
:1010300008BF20F00100704711F0804F21D113F15B
:101040003872BCBF01F00040704741F480114FEA94
:101050005252C2F11802C2F1200C10FA0CF320FA1D
:1010600002F018BF40F001004FEAC1234FEAD3233A
:1010700003FA0CFC40EA0C0023FA02F34FEA4303A4
:10108000CCE77FEA625307D150EA01331EBF4FF02D
:10109000FE4040F44000704701F0004040F0FE4048
:1010A00040F40000704700BF53B94AB9002908BF97
:1010B00000281CBF4FF0FF314FF0FF3001F0F8B8AF
:1010C000ADF1080C6DE904CE00F006F8DDF804E09F
:1010D000DDE9022304B070472DE9F047089E04467D
:1010E0008846002B4BD18A42154667D9B2FA82F264
:1010F0004AB1C2F1200701FA02F320FA07F795403E
:1011000047EA030894404FEA154E230CB8FBFEF75C
:101110001FFA85FC0EFB178843EA084307FB0CF116
:10112000994209D9EB1807F1FF3080F01B819942F1
:1011300040F21881023F2B445B1AA4B2B3FBFEF0CD
:101140000EFB103344EA034400FB0CFCA44509D910
:101150002C1900F1FF3380F00781A44540F204818F
:1011600002382C4440EA0740A4EB0C0400271EB1CF
:10117000D4400023C6E900433946BDE8F0878B42DE
:1011800009D9002E00F0EB800027C6E9000138469F
:101190003946BDE8F087B3FA83F7002F47D18B4279
:1011A00002D3824200F2FA80841A61EB0303012029
:1011B0009846002EE0D0C6E90048DDE702B9FFDE20
:1011C000B2FA82F2002A40F08F80491B4FEA154E96
:1011D0001FFA85F80127B1FBFEFC230C0EFB1C1146
:1011E00043EA014308FB0CF1994207D9EB180CF1D3
:1011F000FF3002D2994200F2CD808446591AA3B240
:10120000B1FBFEF00EFB101443EA044408FB00F8A7
:10121000A04507D92C1900F1FF3302D2A04500F2F6
:10122000B6801846A4EB080440EA0C409FE7C7F1DB
:10123000200CBB4022FA0CFE4EEA030E01FA07F422
:1012400020FA0CF521FA0CF34FEA1E482543B3FBB4
:10125000F8F92C0C08FB19331FFA8EFA44EA034301
:1012600009FB0AF49C4202FA07F200FA07F10BD9D3
:101270001EEB030309F1FF3080F087809C4240F2AF
:101280008480A9F1020973441B1BADB2B3FBF8F0D3
:1012900008FB103345EA034400FB0AFAA24508D9CB
:1012A0001EEB040400F1FF336BD2A24569D902386A
:1012B000744440EA0940A0FB0289A4EB0A044C45AF
:1012C000C2464B4654D351D0002E69D0B1EB0A052B
:1012D00064EB030404FA0CFCFD40FC404CEA0505F9
:1012E000C6E90054002747E7C2F1200320FA03F7BC
:1012F000954001FA02F021FA03F34FEA154E384304
:10130000010CB3FBFEF71FFA85F80EFB173341EA19
:10131000034107FB08F38B4204FA02F407D969186A
:1013200007F1FF3C2FD28B422DD9023F2944CB1A23
:1013300081B2B3FBFEF00EFB103341EA034100FB28
:1013400008F38B4207D9691800F1FF3C17D28B4292
:1013500015D902382944C91A40EA07473BE73746FE
:10136000304609E70746E7E61846FBE64145ABD2BB
:10137000B8EB020A69EB0E0201381346A4E7604697
:10138000E9E7184695E76746D1E781467CE70238EA
:101390002C4447E7ACF1020C2B442FE7384608E712
:1013A0003746E9E603685A004CBF43F0004323F098
:1013B00000431844704700BF61B32DE9F84F01F1B5
:1013C000FF3A90460646D146002707EB090404EB96
:1013D000D4746410E50071190846FFF7E3FFA245D5
:1013E000834605F10800304409D0FFF7DBFFC34511
:1013F00000F1FF3005D8404509D2671CE5E7C34539
:1014000005D9A74202D004F1FF39DEE700210846E2
:10141000BDE8F88F08467047012807D0022807D09A
:10142000044B00280CBF1846002070470248704744
:1014300002487047051B0000091B00000D1B00003F
:1014400030B5254B83B004468D1E4BB301A9284609
:10145000AFF30080F0B101992A46FFF7ADFF0146D6
:10146000C0B1FFF79FFF4B68A064012B2ED0002B6B
:1014700001F1040026DBFFF795FF0023C4E9130305
:101480000368002B12DBFFF78DFF00232061184655
:1014900003B030BD002323610923184603B030BDDB
:1014A0000E490F48091AC9100191D5E7C3F303602B
:1014B000FFF7B2FF002814BF00230923206118465C
:1014C00003B030BD0123C4E91303D9E7002323612E
:1014D0000523184603B030BD00000000C81B010002
:1014E000A01701000368DA0710B5044606D49B076D
:1014F00000F1480009D500F05FFC2368590709D5C1
:101500001A070ED5DB0613D510BD00F04DFC23687D
:101510005907F5D404F1D00000F056FC23681A07EF
:10152000F0D404F5A87000F057FC2368DB06EBD478
:1015300004F5E870BDE8104000F092BC036803B108
:1015400003441846704700BF09207047704700BF2A
:1015500070B504460D4608E02B6C63612A4623698A
:10156000214601209847082808D1296C2046FFF71A
:1015700067FF06460028EFD00BF062FF0728FBD17B
:101580003046296CFFF7E2FF281D00F001FC00BF88
:101590002DE9F0470C1D054617460FCCADF5727DC1
:1015A00003AE0FC60FCC0FC60FCC0FC694E80F00CA
:1015B00002ACD5F80C80D5F8189086E80F0000230F
:1015C000236021E0236C6B614FF4F07221467AA80E
:1015D00000F070FE2B697AAA294630469847889B0E
:1015E000CDE900498246636431462B462A460120F4
:1015F000C0470746F8B94FF4F0727AA9204600F0C8
:1016000059FEBAF1080F1CD1216C2846FFF718FFCC
:10161000002F08BF0926074618BF0A260028D1D088
:10162000A36B46F01001CDE900492A46636401200E
:101630002B46C04700B1092738460DF5727DBDE83D
:10164000F087BAF1070FF6D13846216CFFF77EFF1D
:1016500003A800F09DFB00BF406C7047F0B5CB6B5A
:101660000B640D1D0F4606460FCDF9B001AC0FC43B
:101670000FCD0FC40FCD0FC495E80F004FF0FF350D
:1016800084E80F00009506E033696A4631469847C2
:101690000828044608D110993046FFF7D1FE0028EB
:1016A000F2D0092079B0F0BD6846FFF71BFF062C89
:1016B000F7D139463046FFF74BFF00BF30B4DD6B42
:1016C000C160826119461D64002230BC60E700BF22
:1016D00070B5C66843690B64BEB903690A4604461F
:1016E0000D46014602209847072807D0082803D155
:1016F00029462046FFF72CFF0BF0A2FE3046296C4E
:10170000FFF724FF281D00F043FB0122FFF740FFF5
:101710000BF096FEC2681AB1CA6B0A64002237E762
:101720009CE700BF704700BF836813B101460120EA
:1017300018477047042907D8DFE801F003080608B6
:1017400008000BB90F2A03D9022070470120704707
:1017500000EB820218465368009A1360704700BF7E
:1017600010B584B0002303AC0A4600941946FFF775
:10177000E1FF039804B010BD042907D8DFE801F0A9
:101780000308060808000BB90F2A03D90220704786
:101790000120704700EB8200009A126842601846F0
:1017A000704700BF10B584B004AC002344F8042D8A
:1017B0000A4600941946FFF7DFFF04B010BD00BFD2
:1017C000F0B5D36B1364151D07460E460FCDADF56E
:1017D0000F7D17AC0FC40FCD0FC40FCD0FC495E80C
:1017E0000F004FF0FF3584E80F00169510E016A8A3
:1017F000FFF7D8FF314616A8B84716AA694678B948
:10180000049B08209847052804460AD0092807D0D9
:1018100026996846FFF714FE6A460C210028E6D098
:10182000092416A8FFF75EFE20460DF50F7DF0BDDA
:101830002DE9F04F0D46C96C89B00C1D164600F01D
:10184000030B0A6806941F46002B68D0130CD9B20C
:1018500012048DF81D30022304EB810405928DF8EB
:101860001C302B6DBBF1020F08BFAC6B13F00103F2
:1018700046D1019300F008030093D4F80090B9F129
:10188000000F00F0F380022F45D0B4F80090B4F8B8
:1018900002800434AB6C28F0010A0F2130469A44D0
:1018A000FFF75EFF824534D829F001035344834299
:1018B00094BF002001204FEA480808F0020809F010
:1018C000010948EA0908B8F1010F3AD031D3B8F15B
:1018D000020F1AD1236823F0004ABBF1000F66D132
:1018E00030B1009A002A6CD0BAF1000F00F090805D
:1018F000002B00DA04340AF1010304EB8304BCE793
:10190000304605A900F046FB78B1092009B0BDE8D2
:10191000F08F0020CFE7D4F804800834BAE7120231
:1019200003230592ADF81C309BE7082009B0BDE801
:10193000F08FBBF1000F02D0002840F0B4800434D7
:101940009BE7BBF1000F18D1A8B1D4E90023991C83
:101950004FEAD272D9D005F158010133049100F059
:10196000B580201DFFF7EAFD04AB01462846AFF322
:101970000080002867D108347FE70D213046D5F874
:101980002080FFF7EDFE8045F5D1AB6A9C42F2D195
:101990002046FFF707FD0F2102463046FFF702FF02
:1019A00030462A460021FFF7FDFE0720AEE70D2155
:1019B0003046D5F82080FFF7D3FE804532D023682B
:1019C00096E7BAF1000F23D005F1580304F104089B
:1019D000CDF808B0DDF800900397A3461C4602E05E
:1019E0005745B94640D040460494FFF7A7FD04ABE5
:1019F000014600222846AFF3008009F1010708F1F3
:101A000004080028ECD0D1455C46DDE902B7D6D108
:101A100030460D21FFF7A4FE049B2862C5E9093476
:101A2000062073E7AB6A9C42C9D104224FF000083C
:101A3000A318C5E90AA8C5E90C23236843454DDB73
:101A40000123019357E780460D213046FFF788FEBA
:101A5000B8F1020F28623ED12B46049A43F82C2F8E
:101A60006B62AC62062051E75C46D1E705A93046BF
:101A700000F090FA00287FF448AF019B002B3FF460
:101A800054AF0F213046FFF76BFE0E210246304661
:101A9000FFF788FE30461A4A0F21FFF783FE072022
:101AA00009B0BDE8F08F2046FFF77CFC0434074600
:101AB000AC632846AFF3008000283FF426AF3046E1
:101AC0003A460F21FFF76EFE07201FE730460D2133
:101AD000FFF746FE2862049B6B62C2E70AF1010031
:101AE00004EB8000FFF75EFC0F2102463046FFF753
:101AF00059FE30462A464146FFF754FE072005E7C7
:101B000000000000002393E6012391E602238FE604
:101B10002DE9F0410546C4B0042906D8DFE801F0FC
:101B20004D2B05030900032B5FD0022044B0BDE814
:101B3000F081002BF9D1102AF7D82B68DC0600F1D0
:101B4000F48022AC2046019200F094F9A86B019A2F
:101B50000023012606FA03F1114203D0016844F87C
:101B6000231004300133042BF4D1A863204600F085
:101B700077F90020DAE7012B4FEA124697B252D0EC
:101B8000052BD2D106EB0708B8F1200FCDD80F2EC8
:101B900040F29980B846002F40F0DB80AA6BAA6320
:101BA0000F2E40F2BE80B8F1000F02D002A800F064
:101BB0000BF9002044B0BDE8F081002BB5D1AC6B2F
:101BC00097B2281D012606FA03F1394203F10103F9
:101BD00002D0216801600434102B00F10400F2D11E
:101BE00012F40050E5D1AC63A0E7160C97B2F319DC
:101BF000102B9AD82B681A075DD422AC204600F02F
:101C00000DF904EBC601AB6B3FB103EBC7021868DB
:101C100041F8040B04339342F9D12046AB6300F042
:101C2000DBF8002082E7F219102A3FF67EAF0F2E74
:101C30003FF67BAF2A68D10708D5284622F0030279
:101C400040F8482B019300F0B3F8019B019322ACBC
:101C5000204600F0ADF8A96B019B002F00F09580A5
:101C60007F0004EBC6044FF00008043C01EB870240
:101C700051F8040B44F8040F9142F9D1B8F1000F68
:101C80000FD002AC102E314638BF102104EBC10139
:101C9000843902EBC80452F8040B41F8040F944253
:101CA000F9D1012B7FF47BAF22AC0432AA6320462A
:101CB00000F07AF87DE723F008032B6005F5A870A3
:101CC00000F0ACF899E7B8F1100F2A6843D9D007B3
:101CD000A8F110080BD5284622F0010242F00202BA
:101CE00040F8482B019300F06BF82A68019B5107DC
:101CF00025D40F2E04D822A8019300F061F8019B8F
:101D0000019302AC204600F063F8C6F110010029EF
:101D1000AA6B019BB6DD22AC4F0004EBC604114652
:101D2000A3E722A800F048F83DE723F010032B605A
:101D300005F5E870019200F09DF8019A01E7284648
:101D400022F0040240F8D02B019300F041F8019BEF
:101D5000CFE72A68CBE7D0070AD5284622F0010250
:101D600042F0020240F8482B019300F029F8019B51
:101D7000019322AC204600F023F8B846A96B019BE2
:101D8000002F7FF46DAF0A4609E70A468DE700BFD2
:101D900000F1340191E838009C46A6464CF8045DF9
:101DA00090E8FF0FE54600BD90EC210B704700BFA7
:101DB00080EC210B704700BF90EC200B704700BFF8
:101DC00080EC200B704700BFD0EC200B704700BFA9
:101DD000C0EC200B704700BFF0EC0201F0EC0211E8
:101DE000F0EC0221F0EC0231F0EC0241F0EC025197
:101DF000F0EC0261F0EC0271F0EC0281F0EC029187
:101E0000F0EC02A1F0EC02B1F0EC02C1F0EC02D176
:101E1000F0EC02E1F0EC02F1704700BFE0EC0201EF
:101E2000E0EC0211E0EC0221E0EC0231E0EC0241D6
:101E3000E0EC0251E0EC0261E0EC0271E0EC0281C6
:101E4000E0EC0291E0EC02A1E0EC02B1E0EC02C1B6
:101E5000E0EC02D1E0EC02E1E0EC02F1704700BFFF
:101E6000B0FC0181B0FC0191B0FC01A1B0FC01B15A
:101E7000704700BFA0FC0181A0FC0191A0FC01A162
:101E8000A0FC01B1704700BFEC4600B52DE9005041
:101E90002DE9FF1F4FF000032DE90C0001A9FFF70A
:101EA000DDFBDDF840E012B0704700BFEC4600B546
:101EB0002DE900502DE9FF1F4FF000032DE90C0024
:101EC00001A9FFF705FCDDF840E012B0704700BF44
:101ED000EC4600B52DE900502DE9FF1F4FF000033F
:101EE0002DE90C0001A9FFF715FCDDF840E012B068
:101EF000704700BFEC4600B52DE900502DE9FF1FEB
:101F00004FF000032DE90C0001ABFFF7D7FBDDF824
:101F100040E012B0704700BFEC4600B52DE900501C
:101F20002DE9FF1F4FF000032DE90C0001AAFFF778
:101F300047FCDDF840E012B0704700BF027A82B97A
:101F4000437AABB14268013B10B44372136803217A
:101F5000141D01721A02446002605DF8044B180EF1
:101F600070470368013A02721A020260180E704745
:101F7000B020704700B585B003AA0023009219462F
:101F80000C22FFF7D7FB039805B05DF804FB00BFF8
:101F9000F0E700BF2DE9F043054685B00E464FF04F
:101FA00000083046FFF7CAFFB028044600F0B180B1
:101FB000070620D500F0F003802B65D0902B36D09B
:101FC000A02B78D0B02B47D0C02B00F08A8000F037
:101FD000F803D02B0BD100F00702013242F40022AB
:101FE000052301212846FFF793FD0028D9D00920B9
:101FF00005B0BDE8F0830DF10C09002319468700F8
:10200000CDF800900D222846FFF794FBFFB2039B0A
:10201000CDF80090043760064CBFDF1BFF1800238B
:1020200019460D2228460397FFF7A6FBB9E700F0F3
:102030000D030D2BDBD003AF002300F00F02194678
:1020400000972846FFF776FB0023009719460D22DC
:102050002846FFF791FBA4E7B1285FD0B22800F033
:10206000CC80B3287ED000F0FC03B42BBFD000F0AE
:1020700007020132012342F4002219462846FFF7E5
:1020800047FD00288DD0B2E73046FFF757FF240206
:102090000443B4F5004FAAD024010023A2B219468C
:1020A0002846FFF735FD0028A1D114F4004F18BFD2
:1020B0004FF0010875E7C24302F007034FF47F6257
:1020C0001A41010702F47F624FF0000348BF42F457
:1020D000804219462846FFF71BFD00283FF461AFF8
:1020E00085E7C62851D0C7285AD000F0F803C02B86
:1020F00069D0C82875D0C9287FF479AF3046FFF77A
:102100001DFF020300F00F0002F4702201300243B1
:1021100066E7B8F1000F14D0002069E73046FFF7FA
:102120000DFF00283FF463AF10F0F0037FF45FAFC2
:10213000024619462846FFF7EBFC00283FF431AF72
:1021400055E703AC43460E22414600942846FFF76C
:10215000F1FA0094284643460F224146FFF70CFB54
:10216000404645E73046FFF7E9FE010300F00F0067
:1021700001F47021421C01230A4328461946FFF747
:10218000C7FC00283FF40DAF31E73046FFF7D6FE1D
:10219000010300F00F0001F47021421C0323EBE760
:1021A0003046FFF7CBFE024600283FF420AF10F088
:1021B000F0037FF41CAF04212846FFF7A9FC002898
:1021C0003FF4EFAE13E700F00F020132032342F4B5
:1021D000202219462846FFF79BFC00283FF4E1AE79
:1021E00005E73046FFF7AAFE00F0F00200F00F030B
:1021F0001032013343EA0232F2E600230DF10C09FA
:102200000D221946CDF800902846FFF793FA304684
:10221000FFF794FE02064FF002070CD5039B00F077
:102220007F00B840034430460393FFF787FE030660
:1022300007F10707F2D4039BCDF8009000F07F046C
:1022400003F50172BC400023144419460D222846B0
:102250000394FFF791FAA4E610B5C36C84B05A68F2
:1022600003208DF80C00DC798DF80D401202083344
:10227000084601A901920293FFF78CFE04B010BD3D
:1022800008B5FFF785FE806C08BD00BF08B5FFF7F5
:102290007FFEC06CC37900EB8300083008BD00BF2F
:1022A00008B50BF0CDF800BF08B5FFF7F9FF00BF88
:1022B000704700BF844641EA000313F003036DD169
:1022C000403A41D351F8043B40F8043B51F8043BF9
:1022D00040F8043B51F8043B40F8043B51F8043B00
:1022E00040F8043B51F8043B40F8043B51F8043BF0
:1022F00040F8043B51F8043B40F8043B51F8043BE0
:1023000040F8043B51F8043B40F8043B51F8043BCF
:1023100040F8043B51F8043B40F8043B51F8043BBF
:1023200040F8043B51F8043B40F8043B51F8043BAF
:1023300040F8043B51F8043B40F8043B51F8043B9F
:1023400040F8043B403ABDD2303211D351F8043B3F
:1023500040F8043B51F8043B40F8043B51F8043B7F
:1023600040F8043B51F8043B40F8043B103AEDD2EE
:102370000C3205D351F8043B40F8043B043AF9D23F
:10238000043208D0D2071CBF11F8013B00F8013B12
:1023900001D30B8803806046704700BF082A13D31F
:1023A0008B078DD010F003038AD0C3F10403D21A37
:1023B000DB071CBF11F8013B00F8013B80D331F86B
:1023C000023B20F8023B7BE7043AD9D3013A11F8EB
:1023D000013B00F8013BF9D20B7803704B78437056
:1023E0008B7883706046704700000000000000009A
:1023F00001F0FF01102A2BDB10F0070F08D010F8B6
:10240000013B013A8B422DD010F0070F42B3F6D1B9
:10241000F0B441EA012141EA014122F007047FF0D2
:1024200000070023F0E80256083C85EA010586EA29
:10243000010685FA47F5A3FA87F586FA47F6A5FA65
:1024400087F68EB9EED1F0BC01F0FF0102F0070271
:1024500032B110F8013B013A83EA010313B1F8D11C
:102460000020704701387047002D06BF35460338FD
:10247000073815F0010F07D1013015F4807F02BF36
:10248000013015F4C03F0130F0BC0138704700BF87
:10249000000000000000000000000000000000003C
:1024A000000000000000000000000000000000002C
:1024B000000000000000000000000000000000001C
:1024C00090F800F06DE9024520F007016FF0000C74
:1024D00010F0070491F820F040F049804FF000041C
:1024E0006FF00700D1E9002391F840F000F10800F7
:1024F00082FA4CF2A4FA8CF283FA4CF3A2FA8CF32F
:102500004BBBD1E9022382FA4CF200F10800A4FA95
:102510008CF283FA4CF3A2FA8CF3E3B9D1E90423E9
:1025200082FA4CF200F10800A4FA8CF283FA4CF320
:10253000A2FA8CF37BB9D1E9062301F1200182FADA
:102540004CF200F10800A4FA8CF283FA4CF3A2FAE0
:102550008CF3002BC6D0002A04BF04301A4612BAEE
:10256000B2FA82F2FDE8024500EBD2007047D1E9F1
:10257000002304F00305C4F100004FEAC50514F080
:10258000040F91F840F00CFA05F562EA05021CBF51
:1025900063EA050362464FF00004A9E780B483B004
:1025A00000AF87ED010A38603B687A681A60D7EDA2
:1025B000017A9FED0F7AF4EEC77AF1EE10FA03DD9F
:1025C0003B680C4A1A600DE0D7ED017A9FED0A7A5C
:1025D000F4EEC77AF1EE10FA00D403E03B684FF056
:1025E00000021A6000BF0C37BD465DF8047B7047DF
:1025F0000000FA430000FA430000164380B483B0A1
:1026000000AF87ED010A386097ED017AF1EE046AB8
:10261000C7EE267A9FED067A67EE877A3B68C3EDB0
:10262000007A00BF0C37BD465DF8047B704700BFE1
:102630000000C84280B483B000AF87ED010A386063
:102640003B687A681A60D7ED017AB1EE047AF4EE4D
:10265000C77AF1EE10FA03DB3B680B4A1A600DE013
:10266000D7ED017AB6EE007AF4EEC77AF1EE10FA01
:1026700000D403E03B684FF000021A6000BF0C3743
:10268000BD465DF8047B70470000A04090B400AFE9
:10269000224BD3F8D431214AC2F8E0311F4A4FF01F
:1026A00000031F4CC2E938341C4A4FF000031C4C95
:1026B000C2E94234194A4FF000034FF00004C2E966
:1026C0003C34164A4FF00003154CC2E93E34134A1D
:1026D0004FF000034FF00004C2E93A340F4A4FF0C4
:1026E00000034FF00004C2E940340C4A4FF00003ED
:1026F0004FF00004C2E94634084A4FF000034FF09F
:102700000004C2E94434054A4FF000034FF00004CE
:10271000C2E9483400BFBD4690BC70479810002005
:102720000000F03F98B500AF934B93F83132032B84
:1027300016D0924B002283F8B622904B052283F8E4
:10274000B4228D4A4FF000034FF00004C2E93C343C
:10275000894A4FF000034FF00004C2E93A345BE1CC
:10276000864B93F8B632013B032B00F2DB8001A2CB
:1027700052F823F0852700000F280000A928000048
:10278000E72800007C4A4FF000037D4CC2E9383452
:10279000794A4FF000037A4CC2E94234764A4FF04E
:1027A00000034FF00004C2E93C34734A4FF00003C9
:1027B000734CC2E93E34704A4FF000034FF00004FE
:1027C000C2E93A346C4A4FF000034FF00004C2E90A
:1027D0004034694A4FF000034FF00004C2E9463428
:1027E000654A4FF000034FF00004C2E94434624AE6
:1027F0004FF000034FF00004C2E948345F4B04225D
:1028000083F8B6225D4B0022C3F8AC2204E15A4A99
:102810004FF000034FF00004C2E93834564A4FF03D
:102820000003574CC2E94234534A4FF00003544C62
:10283000C2E93C34504A4FF000034FF00004C2E9B3
:102840003E344D4A4FF000034FF00004C2E93A34E1
:10285000494A4FF000034FF00004C2E94034464AB1
:102860004FF000034FF00004C2E94634424A4FF0F3
:1028700000034FF00004C2E94434404BD3F8AC32BB
:1028800007EE903AB8EE677A3B4BD3ED777AB4EE29
:10289000E77AF1EE10FA00DABEE0384B012283F855
:1028A000B622FFF7F3FEB7E0344BD3F8AC3207EEB5
:1028B000903AB8EE677A304BD3ED767AB4EEE77A99
:1028C000F1EE10FA00DAA7E02C4B052283F8B622CD
:1028D0002A4B0022C3F8AC22274A4FF00003284CB1
:1028E000C2E9483498E0254BD3F8AC3207EE903A71
:1028F000B8EE677A204BD3ED767AB4EEE77AF1EE54
:1029000010FA00DA88E01D4B052283F8B6221B4B33
:102910000022C3F8AC22184A4FF00003184CC2E959
:10292000483479E0144A4FF00003154CC2E94834AA
:10293000114B93F84132002B08D0104B032283F83F
:10294000B6220E4B0022C3F8AC2264E00B4BD3F846
:10295000AC3207EE903AB8EE677A074BD3ED746A63
:10296000054BD3ED767A76EEE77AB4EEE77AF1EEC0
:1029700010FA07DA4FE000BF98100020E0120020A4
:102980000000F03F254B93F84132002B43D1244BFC
:10299000022283F8B622224B0022C3F8AC221F4B3E
:1029A000D3F8D4311D4AC2F8E0311C4A4FF000037D
:1029B0004FF00004C2E93834184A4FF00003194CB4
:1029C000C2E94234154A4FF00003164CC2E93C34C8
:1029D000124A4FF000034FF00004C2E93E340F4AA0
:1029E0004FF000034FF00004C2E93A340B4A4FF0B5
:1029F00000034FF00004C2E94034084A4FF00003DE
:102A00004FF00004C2E94634044A4FF000034FF08F
:102A10000004C2E9443400BF00BF98BD98100020F4
:102A2000E01200200000F03F98B500AF934B93F800
:102A30003132072B16D0924B002283F8B722904BED
:102A4000052283F8B4228D4A4FF000034FF00004B2
:102A5000C2E93C34894A4FF000034FF00004C2E958
:102A60003A345BE1864B93F8B732013B032B00F21B
:102A7000DB8001A252F823F0892A0000132B00000A
:102A8000AD2B0000EB2B00007C4A4FF000037D4C87
:102A9000C2E93834794A4FF000037A4CC2E9423433
:102AA000764A4FF000034FF00004C2E93C34734A09
:102AB0004FF00003734CC2E93E34704A4FF00003FC
:102AC0004FF00004C2E93A346C4A4FF000034FF073
:102AD0000004C2E94034694A4FF000034FF000049B
:102AE000C2E94634654A4FF000034FF00004C2E9E2
:102AF0004434624A4FF000034FF00004C2E9483406
:102B00005F4B042283F8B7225D4B0022C3F8AC224E
:102B100004E15A4A4FF000034FF00004C2E9383490
:102B2000564A4FF00003574CC2E94234534A4FF023
:102B30000003544CC2E93C34504A4FF000034FF0BC
:102B40000004C2E93E344D4A4FF000034FF0000448
:102B5000C2E93A34494A4FF000034FF00004C2E999
:102B60004034464A4FF000034FF00004C2E94634B7
:102B7000424A4FF000034FF00004C2E94434404B96
:102B8000D3F8AC3207EE903AB8EE677A3B4BD3ED10
:102B9000777AB4EEE77AF1EE10FA00DABEE0384B5D
:102BA000012283F8B722FFF771FDB7E0344BD3F869
:102BB000AC3207EE903AB8EE677A304BD3ED767AC6
:102BC000B4EEE77AF1EE10FA00DAA7E02C4B05221A
:102BD00083F8B7222A4B0022C3F8AC22274A4FF0D1
:102BE0000003284CC2E9483498E0254BD3F8AC32B6
:102BF00007EE903AB8EE677A204BD3ED767AB4EED2
:102C0000E77AF1EE10FA00DA88E01D4B052283F82E
:102C1000B7221B4B0022C3F8AC22184A4FF0000326
:102C2000184CC2E9483479E0144A4FF00003154CBF
:102C3000C2E94834114B93F84132002B08D0104BB5
:102C4000032283F8B7220E4B0022C3F8AC2264E0C3
:102C50000B4BD3F8AC3207EE903AB8EE677A074BDD
:102C6000D3ED6C6A054BD3ED767A76EEE77AB4EE67
:102C7000E77AF1EE10FA07DA4FE000BF9810002073
:102C8000E01200200000F03F254B93F84132002B6A
:102C900043D1244B022283F8B722224B0022C3F8EF
:102CA000AC221F4BD3F8D4311D4AC2F8E0311C4A84
:102CB0004FF000034FF00004C2E93834184A4FF0D7
:102CC0000003194CC2E94234154A4FF00003164C78
:102CD000C2E93C34124A4FF000034FF00004C2E94D
:102CE0003E340F4A4FF000034FF00004C2E93A347B
:102CF0000B4A4FF000034FF00004C2E94034084A89
:102D00004FF000034FF00004C2E94634044A4FF08C
:102D100000034FF00004C2E9443400BF00BF98BD77
:102D200098100020E01200200000F03F98B500AF9E
:102D3000844B93F83132012B16D0834B002283F859
:102D4000B922814B052283F8B4227E4A4FF000035A
:102D50004FF00004C2E93C347A4A4FF000034FF0D0
:102D60000004C2E93A34EBE0774B93F8B932012B17
:102D700040F09680734A4FF00003744CC2E9383437
:102D8000704A4FF00003714CC2E942346D4A4FF073
:102D900000034FF00004C2E93C346A4A4FF00003DC
:102DA0006A4CC2E93E34674A4FF000034FF000041A
:102DB000C2E93A34634A4FF000034FF00004C2E91D
:102DC0004034604A4FF000034FF00004C2E946343B
:102DD0005C4A4FF000034FF00004C2E94434594A02
:102DE0004FF000034FF00004C2E94834564BD3F8CB
:102DF000AC3207EE903AB8EE677A524BD3ED746A74
:102E0000504BD3ED777A76EEE77AB4EEE77AF1EECF
:102E100010FA00DA94E04C4B022283F8B9224A4BB4
:102E20000022C3F8AC22474BD3F8D431454AC2F84C
:102E3000E031444A4FF000034FF00004C2E9383457
:102E4000404A4FF00003414CC2E942343D4A4FF042
:102E500000033E4CC2E93C343A4A4FF000034FF0C5
:102E60000004C2E93E34374A4FF000034FF000043B
:102E7000C2E93A34334A4FF000034FF00004C2E98C
:102E80004034304A4FF000034FF00004C2E94634AA
:102E90002C4A4FF000034FF00004C2E944344FE0E5
:102EA000284A4FF000034FF00004C2E93834254AA5
:102EB0004FF00003254CC2E94234224A4FF0000390
:102EC000224CC2E93C341F4A4FF000034FF000048B
:102ED000C2E93E341B4A4FF000034FF00004C2E940
:102EE0003A34184A4FF000034FF00004C2E940346E
:102EF000144A4FF000034FF00004C2E94634114A6F
:102F00004FF000034FF00004C2E944340E4BD3F8F5
:102F1000AC3207EE903AB8EE677A0A4BD3ED777A87
:102F2000B4EEE77AF1EE10FA00DA09E0064B01227E
:102F300083F8B922044B0022C3F8AC22FFF7A6FBAA
:102F400000BF98BD98100020E01200200000F03F64
:102F500098B500AF844B93F83132052B16D0834BD4
:102F6000002283F8B522814B052283F8B4227E4AE1
:102F70004FF000034FF00004C2E93C347A4A4FF0AE
:102F800000034FF00004C2E93A34EBE0774B93F8CA
:102F9000B532012B40F09680734A4FF00003744C19
:102FA000C2E93834704A4FF00003714CC2E9423430
:102FB0006D4A4FF000034FF00004C2E93C346A4A06
:102FC0004FF000036A4CC2E93E34674A4FF00003F9
:102FD0004FF00004C2E93A34634A4FF000034FF067
:102FE0000004C2E94034604A4FF000034FF000048F
:102FF000C2E946345C4A4FF000034FF00004C2E9D6
:103000004434594A4FF000034FF00004C2E94834F9
:10301000564BD3F8AC3207EE903AB8EE677A524B83
:10302000D3ED6C6A504BD3ED777A76EEE77AB4EE57
:10303000E77AF1EE10FA00DA94E04C4B022283F8C2
:10304000B5224A4B0022C3F8AC22474BD3F8D43107
:10305000454AC2F8E031444A4FF000034FF0000403
:10306000C2E93834404A4FF00003414CC2E94234CF
:103070003D4A4FF000033E4CC2E93C343A4A4FF01F
:1030800000034FF00004C2E93E34374A4FF000031A
:103090004FF00004C2E93A34334A4FF000034FF0D6
:1030A0000004C2E94034304A4FF000034FF00004FE
:1030B000C2E946342C4A4FF000034FF00004C2E945
:1030C00044344FE0284A4FF000034FF00004C2E9B7
:1030D0003834254A4FF00003254CC2E94234224AD5
:1030E0004FF00003224CC2E93C341F4A4FF000036A
:1030F0004FF00004C2E93E341B4A4FF000034FF08A
:103100000004C2E93A34184A4FF000034FF00004BB
:10311000C2E94034144A4FF000034FF00004C2E902
:103120004634114A4FF000034FF00004C2E9443422
:103130000E4BD3F8AC3207EE903AB8EE677A0A4BF2
:10314000D3ED777AB4EEE77AF1EE10FA00DA09E01F
:10315000064B012283F8B522044B0022C3F8AC22AF
:10316000FFF794FA00BF98BD98100020E0120020ED
:103170000000F03F90B400AF224BD3F8D431214A85
:10318000C2F8E0311F4A4FF000031F4CC2E9383447
:103190001C4A4FF000031C4CC2E94234194A4FF05C
:1031A00000034FF00004C2E93C34164A4FF000031C
:1031B0004FF00004C2E93E34124A4FF000034FF0D2
:1031C0000004C2E93A340F4A4FF000030E4CC2E942
:1031D00040340C4A4FF000034FF00004C2E946347B
:1031E000084A4FF000034FF00004C2E94434054A96
:1031F0004FF000034FF00004C2E9483400BFBD4661
:1032000090BC7047981000200000F03F98B500AFC8
:10321000814A4FF000034FF00004C2E93C347E4A7B
:103220004FF000034FF00004C2E93A347A4B93F8B0
:103230003132013B072B00F2ED8001A252F823F05E
:10324000773200001D33000061320000953200002B
:103250003B33000059330000773300008D3300000A
:103260006E4B012283F8B4226C4B012283F8B62204
:10327000FFF70CFACEE0694B032283F8B422674BC8
:10328000012283F8B922654B0022C3F8AC22FFF774
:10329000FDF9BFE0614B082283F8B4225F4B0122A5
:1032A00083F8B8225C4BD3F8D4315B4AC2F8E031E2
:1032B000594A4FF000035A4CC2E93834564A4FF08D
:1032C0000003574CC2E94234534A4FF000034FF019
:1032D0000004C2E93C34504A4FF000034FF00004B0
:1032E000C2E93E344C4A4FF000034FF00004C2E9FB
:1032F0003A34494A4FF00003494CC2E94034464A47
:103300004FF000034FF00004C2E94634424A4FF048
:1033100000034FF00004C2E944347BE03F4B062237
:1033200083F8B4223D4B012283F8BC223B4B0022A0
:10333000C3F8AC22FFF71EFF6CE0384B042283F881
:10334000B422364B012283F8B522344B0022C3F855
:10335000AC22FFF79BF95DE0304B072283F8B422E3
:103360002E4B012283F8BB222C4B0022C3F8AC2247
:10337000FFF700FF4EE0294B022283F8B422274BCF
:10338000012283F8B722FFF781F943E0234B09229A
:1033900083F8B422214B012283F8BA221E4BD3F8C2
:1033A000D4311D4AC2F8E0311B4A4FF000031C4CD7
:1033B000C2E93834184A4FF00003194CC2E94234CC
:1033C000154A4FF000034FF00004C2E93C34124AA2
:1033D0004FF000034FF00004C2E93E340E4A4FF0B4
:1033E00000034FF00004C2E93A340B4A4FF00003E7
:1033F0000B4CC2E94034084A4FF000034FF0000480
:10340000C2E94634044A4FF000034FF00004C2E919
:10341000443400BF00BF98BD98100020E012002087
:103420000000F03F98B500AF844B93F83132022B87
:1034300016D0834B002283F8BC22814B052283F8EF
:10344000B4227E4A4FF000034FF00004C2E93C343E
:103450007A4A4FF000034FF00004C2E93A34EBE03F
:10346000774B93F8BC32012B40F09680734A4FF0B3
:103470000003744CC2E93834704A4FF00003714CB9
:10348000C2E942346D4A4FF000034FF00004C2E934
:103490003C346A4A4FF000034FF00004C2E93E3466
:1034A000664A4FF000034FF00004C2E93A34634A21
:1034B0004FF00003634CC2E94034604A4FF0000310
:1034C0004FF00004C2E946345C4A4FF000034FF06D
:1034D0000004C2E94434594A4FF000034FF000049D
:1034E000C2E94834564BD3F8AC3207EE903AB8EE06
:1034F000677A524BD3ED746A504BD3ED707A76EE07
:10350000E77AB4EEE77AF1EE10FA00DA94E04C4B89
:10351000022283F8BC224A4B0022C3F8AC22474B5C
:10352000D3F8D431454AC2F8E031444A4FF00003A1
:103530004FF00004C2E93834404A4FF00003414CD8
:10354000C2E942343D4A4FF000034FF00004C2E9A3
:103550003C343A4A4FF000034FF00004C2E93E34D5
:10356000364A4FF000034FF00004C2E94634334AB4
:103570004FF000034FF00004C2E944342F4A4FF0EB
:103580000003304CC2E93A342C4A4FF000034FF0AC
:103590000004C2E940344FE0284A4FF000034FF0E6
:1035A0000004C2E93834254A4FF00003254CC2E933
:1035B0004234224A4FF000034FF00004C2E93C3489
:1035C0001E4A4FF000034FF00004C2E93E341B4A8C
:1035D0004FF000034FF00004C2E94634174A4FF0A1
:1035E00000034FF00004C2E94434144A4FF00003D2
:1035F000144CC2E93A34114A4FF000034FF0000472
:10360000C2E940340E4BD3F8AC3207EE903AB8EE34
:10361000677A0A4BD3ED707AB4EEE77AF1EE10FADE
:1036200000DA09E0064B012283F8BC22044B002299
:10363000C3F8AC22FFF79EFD00BF98BD9810002094
:10364000E01200200000F03F98B500AF844B93F8E3
:103650003132062B16D0834B002283F8BB22814BDC
:10366000052283F8B4227E4A4FF000034FF0000495
:10367000C2E93C347A4A4FF000034FF00004C2E93B
:103680003A34EBE0774B93F8BB32012B40F0968055
:10369000734A4FF00003744CC2E93834704A4FF05B
:1036A0000003714CC2E942346D4A4FF000034FF001
:1036B0000004C2E93C346A4A4FF000034FF00004B2
:1036C000C2E93E34664A4FF000034FF00004C2E9FD
:1036D0003A34634A4FF00003634CC2E94034604A15
:1036E0004FF000034FF00004C2E946345C4A4FF04B
:1036F00000034FF00004C2E94434594A4FF000037C
:103700004FF00004C2E94834564BD3F8AC3207EE10
:10371000903AB8EE677A524BD3ED6C6A504BD3EDCA
:10372000707A76EEE77AB4EEE77AF1EE10FA00DA24
:1037300094E04C4B022283F8BB224A4B0022C3F890
:10374000AC22474BD3F8D431454AC2F8E031444A61
:103750004FF000034FF00004C2E93834404A4FF004
:103760000003414CC2E942343D4A4FF000034FF0A0
:103770000004C2E93C343A4A4FF000034FF0000421
:10378000C2E93E34364A4FF000034FF00004C2E96C
:103790004634334A4FF000034FF00004C2E944348A
:1037A0002F4A4FF00003304CC2E93A342C4A4FF014
:1037B00000034FF00004C2E940344FE0284A4FF0C4
:1037C00000034FF00004C2E93834254A4FF00003EB
:1037D000254CC2E94234224A4FF000034FF0000466
:1037E000C2E93C341E4A4FF000034FF00004C2E926
:1037F0003E341B4A4FF000034FF00004C2E9463448
:10380000174A4FF000034FF00004C2E94434144A51
:103810004FF00003144CC2E93A34114A4FF0000350
:103820004FF00004C2E940340E4BD3F8AC3207EE3F
:10383000903AB8EE677A0A4BD3ED707AB4EEE77A35
:10384000F1EE10FA00DA09E0064B012283F8BB2200
:10385000044B0022C3F8AC22FFF78CFC00BF98BDDC
:1038600098100020E01200200000F03F80B582B0E8
:1038700000AF78607B685B68012B08D17B681B7A9E
:10388000002B04D07B681B69184603F0A1FB00BF26
:103890000837BD4680BD80B582B000AF78607868DB
:1038A000FFF7E4FF00BF0837BD4680BD80B582B09A
:1038B00000AF78607B681B78002B05D17B68012204
:1038C0001A707868FFF7E7FF00BF0837BD4680BD74
:1038D00080B582B000AF78607B685B68012B0DD14A
:1038E0007B681B7A002B09D07B681B69184602F0A5
:1038F00079FD7B681B69184602F07EFD00BF083722
:10390000BD4680BD80B582B000AF78607868FFF7B3
:10391000DFFF00BF0837BD4680BD80B582B000AF75
:1039200078607B681B78002B05D17B6801221A70B8
:103930007868FFF7E7FF00BF0837BD4680BD80B558
:1039400082B000AF78607B685B68012B08D17B6830
:103950001B7A002B04D07B681B69184603F01FFDFF
:1039600000BF0837BD4680BD80B582B000AF78602B
:103970007868FFF7E4FF00BF0837BD4680BD80B51B
:1039800082B000AF78607B681B78002B05D17B6824
:1039900001221A707868FFF7E7FF00BF0837BD46BD
:1039A00080BD80B582B000AF78607B685B68012B1A
:1039B00008D17B681B7A002B04D07B689B6A184671
:1039C00002F0C7FD00BF0837BD4680BD80B582B09C
:1039D00000AF78607868FFF7E4FF00BF0837BD46A6
:1039E00080BD80B582B000AF78607B681B78002B0B
:1039F00005D17B6801221A707868FFF7E7FF00BFE6
:103A00000837BD4680BD80B483B000AF78607B6866
:103A10005B68012B02D17B6802225A6000BF0C3721
:103A2000BD465DF8047B704780B582B000AF78601A
:103A30007868FFF7E8FF00BF0837BD4680BD80B556
:103A400082B000AF78607B681B78002B05D17B6863
:103A500001221A707868FFF7E7FF00BF0837BD46FC
:103A600080BD80B485B000AF78607B685B68012B57
:103A700011D17B681B7A002B0DD07B68DB6AFB6061
:103A8000FB681B68012B02D1FB6802221A607B686D
:103A90004FF0FF321A6300BF1437BD465DF8047B58
:103AA000704780B582B000AF78607868FFF7D9FFC3
:103AB00000BF0837BD4680BD80B582B000AF7860DA
:103AC0007B681B78002B05D17B6801221A7078680F
:103AD000FFF7E7FF00BF0837BD4680BD80B582B065
:103AE00000AF78607B685B68012B08D17B681B7A2C
:103AF000002B04D07B681B69184603F050FC00BF04
:103B00000837BD4680BD80B582B000AF7860786868
:103B1000FFF7E4FF00BF0837BD4680BD80B582B027
:103B200000AF78607B681B78002B05D17B68012291
:103B30001A707868FFF7E7FF00BF0837BD4680BD01
:103B400080B582B000AF78607B685B68012B0DD1D7
:103B50007B681B7A002B09D07B681B69184602F032
:103B600041FE7B681B69184602F052FE00BF083711
:103B7000BD4680BD80B582B000AF78607868FFF741
:103B8000DFFF00BF0837BD4680BD80B582B000AF03
:103B900078607B681B78002B05D17B6801221A7046
:103BA0007868FFF7E7FF00BF0837BD4680BD00001B
:103BB00080B582B000AF78607B6800221A727B68A3
:103BC00001225A601A4B4FF0FF32C3F8B420184B51
:103BD0000022C3F8B820164BD3F8B4300A220021D3
:103BE000144802F06DFE02467B681A617B681B690F
:103BF0004FF4E131184603F039F90D4B012283F8F7
:103C0000BC200B4B002283F8BD207B681869084B51
:103C100093F8BD20064B93F8BC30082103F032F92D
:103C20007B6801221A7200BF0837BD4680BD00BF05
:103C3000981000205011002080B584B002AF786049
:103C40007B6800221A727B6801225A605E4B002258
:103C500083F8BE205C4B0022C3F8C0205A4BD3F837
:103C6000C020594B93F8BE301946104602F0CEFBE7
:103C700002467B689A627B68544A5A627B689A6AF9
:103C80007B685B6A1946104602F0E4FB4E4B2B2220
:103C900083F82E224C4B402283F82F227B68986AAF
:103CA00000230193002300930223494A1D2102F0BF
:103CB0001CFC4FF4FA7007F0A7F8434B2A2283F854
:103CC0003F227B68986A002301930123009301231C
:103CD000404A1D2102F009FC03461A463A4B83F87C
:103CE0003F22394B93F83F32002B10D17B68986A02
:103CF00001230193002300930123364A1D2102F082
:103D0000C0FB012233493448FEF7D4FA03E02E4BBE
:103D1000002283F83E222C4B2A2283F82E222A4BA3
:103D200093F83E3223F00103DAB2274B83F82F22B7
:103D30007B68986A00230193002300930223244A9E
:103D40001D2102F0D2FB204B0E2283F82E221E4BA7
:103D5000012283F82F227B68986A002301930023B5
:103D6000009302231A4A1D2102F0BFFB164B5B226F
:103D700083F82E22144B002283F82F227B68986A46
:103D800000230193002300930223114A1D2102F016
:103D9000ACFB0D4B2A2283F82E220B4B012283F819
:103DA0002F227B68986A002301930023009302234B
:103DB000074A1D2102F099FB7B6801221A7200BF9D
:103DC0000837BD4680BD00BF98100020A0860100C6
:103DD000C6120020D7120020D612002000000000DA
:103DE000F0B595B002AF9E4BD3E958019D4BD3E996
:103DF00000341A462346FDF777F80346002B05D119
:103E0000984BD3E90034964AC2E95834944BD3F81E
:103E100058310B229449184603F048F803461A46D5
:103E2000924B83F83D220B228F499148FEF742FACC
:103E30008B4BD3E948018B4BD3E908341A46234610
:103E4000FDF752F80346002B05D1864BD3E9083421
:103E5000834AC2E94834824BD3F81831184602F03D
:103E6000B7FA7F4BD3F8183107F10801072218463B
:103E700002F052FAD7E9023418462146FDF7C4F899
:103E800002467A4BC3F82821754BD3E95001754B94
:103E9000D3E906341A462346FDF726F80346002BDD
:103EA00005D1704BD3E906346D4AC2E950346C4BEE
:103EB000D3F83831184602F08BFA694BD3F8383111
:103EC00007F108010722184602F026FAD7E9023462
:103ED00018462146FDF798F80246644BC3F82C219A
:103EE0005F4B93F8B032022B08D0032B0BD0012B81
:103EF0000ED15B4B042283F8B02287E0584B04229A
:103F000083F8B02282E0564B042283F8B0227DE091
:103F1000564B93F83D32002B77D1544B93F8323205
:103F2000162B6DD1514B93F83332222B5BD0552B8E
:103F300060D14B4B032283F8B02201224D494E48F9
:103F4000FEF7B8F904224D494D48FEF7B3F90422B3
:103F50004C494D48FEF7AEF904224C494C48FEF757
:103F6000A9F904224B494C48FEF7A4F904224B4915
:103F70004B48FEF79FF904224A494B48FEF79AF94D
:103F800004224A494A48FEF795F9042249494A4819
:103F9000FEF790F9042249494948FEF78BF90422BB
:103FA00048494948FEF786F9042248494848FEF73F
:103FB00081F9022247494848FEF77CF90422474923
:103FC0004748FEF777F9042246494748FEF772F959
:103FD000042246494648FEF76DF904224549464801
:103FE000FEF768F911E01E4B012283F8B02204F0BD
:103FF00005FB0AE01A4B042283F8B02200BF04E05C
:10400000174B042283F8B022FFE700BF174B93F849
:104010003022164B83F83122144B93F83032062BA2
:1040200004D9124B002283F8312208E00F4B93F899
:104030003032002B03D10D4B002283F831220B4B81
:10404000D3F874317B60094BD3ED5D7A9FED2B7A09
:10405000F4EEC77AF1EE10FA54DD294B7B605DE097
:10406000E0120020000000204011002098100020E5
:10407000CA120020CC120020C8120020CD1200204D
:104080000C120020D112002010120020D5120020A6
:1040900014120020D912002018120020DD12002076
:1040A0001C120020E112002020120020E512002046
:1040B00024120020E912002028120020ED12002016
:1040C0002C120020F112002030120020F5120020E6
:1040D00034120020F91200207E120020FB12002072
:1040E00038120020FF1200203C1200200313002091
:1040F00040120020071300204412002000002F432C
:104100000000AF43C24BD3ED5D7AB3EE0E7AF4EE0E
:10411000C77AF1EE10FA01D5BE4B7B60D7ED017A7C
:1041200077EEA77ABA4BC3ED737AB94B93ED737AF6
:10413000DFEDB96AC6EE877AB54BC3ED747AB44B3E
:10414000D3F878317B60B24BD3ED5E7A9FEDB37AD2
:10415000F4EEC77AF1EE10FA02DDB14B7B600BE0B2
:10416000AB4BD3ED5E7A9FEDAF7AF4EEC77AF1EE0A
:1041700010FA01D5AC4B7B60D7ED017A77EEA77AC8
:10418000A34BC3ED717AA24B93ED717ADFEDA26A76
:10419000C6EE877A9E4BC3ED727A9D4BD3ED607A63
:1041A0003B1D1846B0EE670AFEF744FAD7ED017AD8
:1041B0009E48B0EE670AFEF721FA954BD3ED617A7F
:1041C0003B1D1846B0EE670AFEF734FAD7ED017AC8
:1041D0009748B0EE670AFEF711FA8D4BD3F8883195
:1041E0008B4AC2F8DC318A4BD3ED627AB3EE047AA3
:1041F000F4EEC77AF1EE10FA04DB854B8D4AC3F872
:10420000DC210CE0824BD3ED627AF5EEC07AF1EE60
:1042100010FA04D87E4B4FF00002C3F8DC217C4B2F
:10422000D3F88C317A4AC2F8C031794BD3ED637A36
:10423000B3EE047AF4EEC77AF1EE10FA04DB744BB5
:104240007C4AC3F8C0210CE0714BD3ED637AF5EEE4
:10425000C07AF1EE10FA04D86D4B4FF00002C3F8AB
:10426000C0216B4BD3ED667A7348B0EE670AFEF758
:1042700095F9674BD3ED677A7048B0EE670AFEF7A1
:104280008DF96F4BD3E938016E4BD3E904341A46EC
:104290002346FCF729FE0346002B05D1694BD3E9E1
:1042A0000434674AC2E93834654BD3F8D83018462D
:1042B00002F0FEFF03461A46554B83F84022604B3E
:1042C000D3E940015F4BD3E902341A462346FCF799
:1042D0000BFE0346002B05D15A4BD3E90234584A52
:1042E000C2E94034564BD3F8F830184602F0E0FFEC
:1042F00003461A46464B83F84122524B93F830301E
:1043000007EE903AB8EE677A414BD3ED6A7A67EEE2
:10431000277AC7ED017A4A4BD3E92A01494BD3E901
:104320000A341A462346FCF7DFFD0346002B05D16D
:10433000444BD3E90A34424AC2E92A340123FB77C9
:104340003F4BD3F8C00007F11F0200230193012364
:10435000009301231D2102F0C8F80346FB77FB7F81
:10436000002B71D1364BD3F8C00007F1180201239E
:1043700001930023009306231D2102F082F807F128
:10438000180107F1200306221846FDF793FF07F1F5
:10439000200107F1140302221846FDF78BFF7B7DF5
:1043A0003B743B7D7B7407F1100107F1200302226F
:1043B0001846FDF77FFF07F12003991C07F114034E
:1043C00002221846FDF776FF7B7D3B743B7D7B74B4
:1043D00007F1100107F12003023302221846FDF70E
:1043E00069FF07F12003191D07F114030222184683
:1043F000FDF760FF7B7D3B743B7D7B7407F1100113
:1044000007F12003043302221846FDF753FF21E091
:10441000981000200000704200606A4700002F439F
:104420000000AF43000048420000C8426C12002068
:10443000501200200000A0417012002054120020F1
:10444000E01200200000002000233B8400237B8436
:104450000023BB84B7F920309B101BB21846FCF731
:1044600071FA02460B46FCF721F903460C46184642
:104470002146B3A3D3E90023FCF7CEFA03460C464A
:10448000184621464FF00002AF4BFCF7EFFB034606
:104490000C46AE4AC2E92434B7F922309B101BB255
:1044A0001846FCF74FFA02460B46FCF7FFF80346A6
:1044B0000C4618462146A2A3D3E90023FCF7ACFA28
:1044C00003460C46184621464FF000029E4BFCF76F
:1044D000CDFB03460C469D4AC2E92634B7F9243089
:1044E0009B101BB21846FCF72DFA02460B46FCF750
:1044F000DDF803460C461846214691A3D3E9002374
:10450000FCF78AFA03460C46184621464FF0000293
:104510008D4BFCF7ABFB03460C468C4AC2E92834B2
:104520008A4BD3E92401894BD3E924341A46234624
:10453000FCF772FA03460C461D462646834BD3E928
:104540002601824BD3E926341A462346FCF764FA47
:1045500003460C461A46234628463146FCF7A6F881
:1045600003460C461D462646784BD3E92801774B77
:10457000D3E928341A462346FCF74EFA03460C4684
:104580001A46234628463146FCF790F803460C4667
:1045900044EC173BB0EE470AF0EE670A08F028FE3D
:1045A000B0EE407AF0EE607A87ED027B684B5B7A82
:1045B000002B02D0664B00225A72654BDB6A1B68E7
:1045C000012B59D0624BDB6A00221A71604BDB6A07
:1045D00001221A605E4BDA6A4FF000034FF00004CC
:1045E000C2E902345A4BDA6A4FF00003594CC2E96F
:1045F0000A34574BDB6A01221A71554BDA6A4FF0C5
:1046000000034FF00004C2E90234514BDA6A4FF064
:1046100000034FF00004C2E904344D4BDA6A4FF056
:1046200000034FF00004C2E90434494BDA6A4FF04A
:1046300000034FF00004C2E90634454BDA6A4FF03C
:1046400000034FF00004C2E90634414BDA6A4FF030
:1046500000034FF00004C2E908343D4BDA6A4FF022
:1046600000034FF00004C2E90834394BDA6A4FF016
:104670000003384CC2E90A34354BDB6AD3E90A340B
:10468000C7E91034324BDB6AD3E90234C7E90E3490
:104690002F4BDB6AD3E904342C4AC2E924342C4B77
:1046A000DB6AD3E90634294AC2E92634284BDB6A9F
:1046B000D3E90834254AC2E92834D7E902341A4636
:1046C0002346D7E90E01FBF7F1FF03460C46C7E985
:1046D0000E34D7E91001FCF74FFC0346013B3B6366
:1046E0001A4A3B6B1233DB001344D3E900341A46F9
:1046F0002346D7E90E01FBF7D9FF03460C46C7E96D
:104700000A34D7E9023411493A6B1232D2000A4412
:10471000C2E900344FF000020F4BD7E91001FCF75B
:10472000E3FB0346002B1CD14FF00002094BD7E9F5
:104730001001FBF7BBFF03460C460FE0AFF3008010
:1047400008AC1C5A643BCF3F00408F4098100020BB
:10475000E01200200000F03F00000840C7E91034DC
:1047600028E04FF00003AB4CC7E910344FF00003D2
:104770004FF00004C7E90E34A74BD3E92601A64B3E
:10478000D3E928341A462346FBF790FF03460C462C
:10479000A14AC2E92634A04BD3E924019E4BD3E9B8
:1047A00026341A462346FBF781FF03460C469A4AF5
:1047B000C2E92434994BDA6AD7E90E34C2E90234EB
:1047C000964BDA6A944BD3E92434C2E90434934B10
:1047D000DA6A914BD3E92634C2E906348F4BDA6AA0
:1047E0008D4BD3E92834C2E908348C4BDA6AD7E917
:1047F0001034C2E90A344FF00002894BD7E90A01AC
:10480000FCF734FA03460C46C7E90234824B93EDB9
:10481000737AD7ED017A77EE277AC7ED0D7A7E4B62
:10482000D3ED5F7A97ED0D7AB4EEE77AF1EE10FAF8
:104830004CBF01230023DBB283F00103DBB2002B6A
:104840000DD0754BD3ED5F7AB0EE670A04F092FCA1
:104850000346002B03D1704BD3F87C317B636F4B45
:10486000D3F8A832B3F1FF3F06D06C4BD3F8A8328F
:1048700001336A4AC2F8A832684B93F8B132002B70
:1048800022D1664B012283F8B122644B032283F8C4
:10489000B222614BD3F8CC315F4AC2F8B4315E4AE0
:1048A0004FF000034FF00004C2E934345A4A4FF08D
:1048B00000034FF00004C2E93234574A4FF00003BE
:1048C000544CC2E93634A0E2544B93F8B232013B67
:1048D000042B00F2638201A252F823F0F148000099
:1048E000714A00002B4B0000294C00002F4D0000A6
:1048F000494B93ED6D7A484BD3ED737AB4EEE77A7A
:10490000F1EE10FA2DD8444BD3F8A0311846FCF73D
:104910002BF8D7E902341A462346FCF703FB03467B
:10492000002B1ED03D4B032283F8B2223A4BD3F822
:10493000CC31394AC2F8B431374A4FF000034FF056
:104940000004C2E93434344A4FF000034FF000044D
:10495000C2E93234304A4FF000032E4CC2E93634FB
:1049600085E02D4B93ED6D7A2B4BD3ED737AB4EE3E
:10497000E77AF1EE10FA17DD274BD3F8A03118468D
:10498000FBF7F2FFD7E902341A462346FCF7CAFACE
:104990000346002B08D0214B052283F8B2221F4B7F
:1049A0000022C3F8A82262E01B4BD3F8A0311846BE
:1049B000FBF7DAFFD7E902341A462346FCF79EFAE2
:1049C0000346002B30D0154B022283F8B222124B43
:1049D00093ED6D7AD7ED016A9FED126AC6EE867A85
:1049E00077EE277A0C4BC3ED6D7A0B4A4FF000033C
:1049F000084CC2E93434084A4FF000034FF0000479
:104A0000C2E93234044A4FF000034FF00004C2E917
:104A10003634FAE10000F03F98100020E012002048
:104A20000000104000007A44B04B93ED6D7AD7ED52
:104A3000016A9FEDAF6AC6EE867A77EE677AAB4B76
:104A4000C3ED6D7AA94A4FF000034FF00004C2E9AC
:104A50003434A64A4FF00003A64CC2E93234A34ACC
:104A60004FF000034FF00004C2E93634CDE1CCE151
:104A70009E4BD3ED6D7A97ED0D7AB4EEE77AF1EEB9
:104A800010FA08DD9C4B062283F8B2229A4B0022D2
:104A9000C3F8A822B9E1954BD3ED6D7A97ED0D7A65
:104AA000B4EEE77AF1EE10FA1CD8934B042283F8A7
:104AB000B2228E4A7B6BC2F8B4318C4A4FF00003AD
:104AC0004FF00004C2E93434884A4FF000034FF03D
:104AD0000004C2E93234854A4FF00003854CC2E934
:104AE000363492E1814B93ED6D7AD7ED016A9FEDFB
:104AF000806AC6EE867A77EE277A7C4BC3ED6D7AB4
:104B00007A4A4FF000037B4CC2E93434774A4FF0C5
:104B100000034FF00004C2E93234744A4FF000033E
:104B20004FF00004C2E936346FE1704BD3F8A03186
:104B30001846FBF719FFD7E902341A462346FCF75B
:104B4000DDF90346002B26D06B4B022283F8B222FC
:104B5000664B93ED6D7AD7ED016A9FED656AC6EEFF
:104B6000867A77EE277A614BC3ED6D7A5F4A4FF014
:104B70000003604CC2E934345C4A4FF000034FF04C
:104B80000004C2E93234594A4FF000034FF00004E8
:104B9000C2E9363439E1554BD3F8A0311846FBF75A
:104BA000E3FED7E902341A462346FCF7BBF9034675
:104BB000002B1ED0504B032283F8B2224B4BD3F86C
:104BC000CC314A4AC2F8B431484A4FF000034FF0A2
:104BD0000004C2E93434454A4FF000034FF00004AA
:104BE000C2E93234414A4FF00003424CC2E9363444
:104BF0000BE13E4BD3F8CC313C4AC2F8B4313B4ACE
:104C00004FF000034FF00004C2E93434374A4FF04C
:104C100000034FF00004C2E93234344A4FF000037D
:104C2000344CC2E93634F0E0304BD3F8A0311846AA
:104C3000FBF79AFED7E902341A462346FCF75EF9E1
:104C40000346002B1CD02C4B042283F8B222274AA7
:104C50007B6BC2F8B431254A4FF000034FF00004DB
:104C6000C2E93434214A4FF000034FF00004C2E996
:104C700032341E4A4FF000031E4CC2E93634C4E001
:104C80001A4BD3F8A0311846FBF76EFED7E9023471
:104C90001A462346FCF746F90346002B2ED0164B46
:104CA000012283F8B222114B93ED6D7AD7ED016AA0
:104CB0009FED0F6AC6EE867A77EE677A0B4BC3EDEF
:104CC0006D7A0A4A4FF000034FF00004C2E9343411
:104CD000064A4FF00003074CC2E93234034A4FF052
:104CE00000034FF00004C2E936348EE09810002033
:104CF00000007A440000F03FE0120020AA4A7B6BDB
:104D0000C2F8B431A84A4FF000034FF00004C2E9E2
:104D10003434A54A4FF000034FF00004C2E93234A6
:104D2000A14A4FF00003A14CC2E936346DE0A04B1C
:104D3000D3F8A83207EE903AB8EE677A9A4BD3EDE3
:104D40006B7AB4EEE77AF1EE10FA00DA5DE0984B98
:104D5000012283F8B222944B93ED6D7AD7ED016A6C
:104D60009FED946AC6EE867A77EE677A8E4BC3ED36
:104D70006D7A8D4A4FF000034FF00004C2E93434DD
:104D8000894A4FF00003894CC2E93234864A4FF019
:104D900000034FF00004C2E9363436E0844BD3F808
:104DA000A83207EE903AB8EE677A7F4BD3ED697A76
:104DB000B4EEE77AF1EE10FA00DA25E07C4B02223D
:104DC00083F8B222784B93ED6D7AD7ED016A9FEDAF
:104DD000796AC6EE867A77EE277A734BC3ED6D7AE1
:104DE000714A4FF00003714CC2E934346E4A4FF0FF
:104DF00000034FF00004C2E932346B4A4FF0000365
:104E00004FF00004C2E9363400BF674B93ED6D7A72
:104E1000DFED696AC6EE877A634BC3ED6C7A644B4B
:104E2000D3F8AC32B3F1FF3F06D0614BD3F8AC32CC
:104E300001335F4AC2F8AC325D4B93F8B332002BBA
:104E400016D15B4B012283F8B322594B052283F81C
:104E5000B422554A4FF000034FF00004C2E93C343D
:104E6000514A4FF000034FF00004C2E93A34A2E384
:104E70004F4B93F8B432013B072B00F2E18101A2C2
:104E800052F823F0A54E0000AB4E0000B14E0000DA
:104E9000B74E0000BD4E0000C34E0000C94E0000DA
:104EA000CF4E0000FDF73EFC85E3FDF7BDFD82E33C
:104EB000FDF73CFF7FE3FEF74BF87CE3FEF7A6F936
:104EC00079E3FEF7AFFA76E3FEF7BEFB73E3364B0A
:104ED00093F83132042B16D0354B002283F8B822D8
:104EE000334B052283F8B4222F4A4FF000034FF0D2
:104EF0000004C2E93C342C4A4FF000034FF0000498
:104F0000C2E93A3457E32A4B93F8B832013B032BFA
:104F100000F2228101A252F823F000BF2D4F0000C1
:104F2000BD4F0000C9500000115100001E4A4FF053
:104F300000031E4CC2E938341B4A4FF000031B4CDF
:104F4000C2E94234184A4FF000034FF00004C2E9AE
:104F50003C34154A4FF000034FF00004C2E93E34E0
:104F6000114A4FF000034FF00004C2E93A340E4AF0
:104F70004FF000030D4CC2E940340B4A4FF00003E0
:104F80004FF00004C2E94634074A4FF000034FF0E7
:104F90000004C2E94434064B042283F8B822044BCF
:104FA0000022C3F8AC224AE1981000200000F03F34
:104FB000E012002000007A4400606A47AE4A4FF0D9
:104FC00000034FF00004C2E93834AB4A4FF000034D
:104FD000AA4CC2E94234A84A4FF000034FF0000443
:104FE000C2E93C34A44A4FF000034FF00004C2E988
:104FF0003E34A14A4FF000034FF00004C2E94634AA
:105000009D4A4FF000034FF00004C2E944349A4A2D
:105010004FF00003994CC2E93A34974A4FF000032D
:105020004FF00004C2E94034954BD3F8AC3207EEA0
:10503000903AB8EE677A904BD3ED707AB4EEE77A97
:10504000F1EE10FA00DAFAE08D4B012283F8B82273
:10505000894BD3F8D431884AC2F8E031864A4FF000
:105060000003864CC2E93834834A4FF00003834C76
:10507000C2E94234804A4FF000034FF00004C2E915
:105080003C347D4A4FF000034FF00004C2E93E3447
:10509000794A4FF000034FF00004C2E93A34764AEF
:1050A0004FF00003754CC2E94034734A4FF00003DF
:1050B0004FF00004C2E946346F4A4FF000034FF04E
:1050C0000004C2E94434BAE06D4BD3F8AC3207EEC9
:1050D000903AB8EE677A684BD3ED6F6A664BD3EDC2
:1050E000707A76EEE77AB4EEE77AF1EE10FA00DA4B
:1050F000A5E0634B052283F8B822614B0022C3F878
:10510000AC225D4A4FF000035C4CC2E9483496E0A3
:105110005B4BD3F8AC3207EE903AB8EE677A564B59
:10512000D3ED6F6A544BD3ED707A76EEE77AB4EE36
:10513000E77AF1EE10FA00DA81E0514B052283F8AC
:10514000B8224F4B0022C3F8AC224B4A4FF0000369
:105150004A4CC2E9483472E0474A4FF00003474CDA
:10516000C2E94834444B93F84032002B08D0444BFA
:10517000032283F8B822424B0022C3F8AC225DE040
:105180003F4BD3F8AC3207EE903AB8EE677A3A4B21
:10519000D3ED746A384BD3ED6F7A76EEE77AB4EEDE
:1051A000E77AF1EE10FA00DA48E0334B93F8403238
:1051B000002B43D1324B022283F8B822304B00221D
:1051C000C3F8AC222C4BD3F8D4312B4AC2F8E031CF
:1051D000294A4FF000034FF00004C2E93834264A50
:1051E0004FF00003254CC2E94234234A4FF000033C
:1051F0004FF00004C2E93C341F4A4FF000034FF067
:105200000004C2E93E341C4A4FF000034FF0000492
:10521000C2E94634184A4FF000034FF00004C2E9D7
:105220004434154A4FF00003144CC2E93A34124A90
:105230004FF000034FF00004C2E9403400BFBAE170
:105240000D4B93F83132082B1CD00D4B002283F804
:10525000BA220B4B052283F8B422074A4FF0000311
:105260004FF00004C2E93C34034A4FF000034FF012
:105270000004C2E93A349DE1981000200000F03F9C
:10528000E0120020A34B93F8BA32013B032B00F24B
:10529000178101A252F823F0A95200002553000003
:1052A00031540000795400009B4A4FF000039B4C9E
:1052B000C2E93834984A4FF00003984CC2E94234AE
:1052C000954A4FF000034FF00004C2E93C34924A83
:1052D0004FF000034FF00004C2E93E348E4A4FF015
:1052E00000034FF00004C2E93A348B4A4FF0000348
:1052F0008A4CC2E94034884A4FF000034FF0000462
:10530000C2E94634844A4FF000034FF00004C2E97A
:105310004434804B042283F8BA227E4B0022C3F827
:10532000AC2247E17C4A4FF000034FF00004C2E991
:105330003834794A4FF00003784CC2E94234764A57
:105340004FF000034FF00004C2E93C34724A4FF0C2
:1053500000034FF00004C2E93E346F4A4FF00003EF
:105360004FF00004C2E946346B4A4FF000034FF09F
:105370000004C2E94434684A4FF00003674CC2E9B4
:105380003A34654A4FF000034FF00004C2E940345C
:10539000604BD3F8AC3207EE903AB8EE677A5E4BCA
:1053A000D3ED707AB4EEE77AF1EE10FA00DA01E1AB
:1053B000584B012283F8BA22574BD3F8D431564ABE
:1053C000C2F8E031544A4FF00003544CC2E938347B
:1053D000514A4FF00003514CC2E942344E4A4FF05B
:1053E00000034FF00004C2E93C344B4A4FF0000385
:1053F0004FF00004C2E93E34474A4FF000034FF03B
:105400000004C2E93A34444A4FF00003434CC2E975
:105410004034414A4FF000034FF00004C2E94634E3
:105420003D4A4FF000034FF00004C2E94434C1E0AC
:10543000384BD3F8AC3207EE903AB8EE677A364B79
:10544000D3ED6F6A344BD3ED707A76EEE77AB4EE33
:10545000E77AF1EE10FA00DAACE02E4B052283F881
:10546000BA222C4B0022C3F8AC222B4A4FF0000387
:105470002A4CC2E948349DE0264BD3F8AC3207EE03
:10548000903AB8EE677A244BD3ED6F6A224BD3ED96
:10549000707A76EEE77AB4EEE77AF1EE10FA00DA97
:1054A00088E01C4B052283F8BA221A4B0022C3F86D
:1054B000AC22194A4FF00003184CC2E9483479E095
:1054C000154A4FF00003154CC2E94834124B93F8CB
:1054D0004032002B08D00F4B032283F8BA220D4B29
:1054E0000022C3F8AC2264E00A4BD3F8AC3207EEDA
:1054F000903AB8EE677A084BD3ED6C6A064BD3ED61
:105500006F7A76EEE77AB4EEE77AF1EE10FA07DA20
:105510004FE000BFE0120020981000200000F03F94
:10552000C54B93F84032002B43D1C44B022283F881
:10553000BA22C24B0022C3F8AC22BF4BD3F8D431FD
:10554000BD4AC2F8E031BC4A4FF000034FF00004FE
:10555000C2E93834B84A4FF00003B94CC2E94234CA
:10556000B54A4FF000034FF00004C2E93C34B24AA0
:105570004FF000034FF00004C2E93E34AE4A4FF052
:1055800000034FF00004C2E94634AB4A4FF0000379
:105590004FF00004C2E94434A74A4FF00003A84C7E
:1055A000C2E93A34A44A4FF000034FF00004C2E9C4
:1055B000403400BF00BFA14BD3F8B4419E4BD3E9A8
:1055C000380101231D464FF000024FF00003FBF7A6
:1055D0008BFC0346002B01D000231D46EBB219467D
:1055E000204601F09DFE954BD3F8C841924BD3E97C
:1055F0003A0101231D464FF000024FF00003FBF774
:1056000073FC0346002B01D000231D46EBB2194664
:10561000204601F085FE894BD3F8DC41864BD3E967
:105620003C0101231D464FF000024FF00003FBF741
:105630005BFC0346002B01D000231D46EBB219464C
:10564000204601F06DFE7D4BD3F8F0417A4BD3E953
:105650003E0101231D464FF000024FF00003FBF70F
:1056600043FC0346002B01D000231D46EBB2194634
:10567000204601F055FE714BD3F804426E4BD3E93E
:10568000400101231D464FF000024FF00003FBF7DD
:105690002BFC0346002B01D000231D46EBB219461C
:1056A000204601F03DFE654BD3F81842624BD3E92A
:1056B000420101231D464FF000024FF00003FBF7AB
:1056C00013FC0346002B01D000231D46EBB2194604
:1056D000204601F025FE594BD3F82C42564BD3E916
:1056E000440101231D464FF000024FF00003FBF779
:1056F000FBFB0346002B01D000231D46EBB21946ED
:10570000204601F00DFE4D4BD3F840424A4BD3E901
:10571000460101231D464FF000024FF00003FBF746
:10572000E3FB0346002B01D000231D46EBB21946D4
:10573000204601F0F5FD414BD3F854423E4BD3E9EE
:10574000480101231D464FF000024FF00003FBF714
:10575000CBFB0346002B01D000231D46EBB21946BC
:10576000204601F0DDFD354BD3F86842324BD3F8CB
:10577000E0311846FBF7F8F802460B4643EC102BD5
:10578000204600F0F1FF2D4BD3F87C422A4BD3F892
:1057900090311846FBF7E8F802460B4643EC102B15
:1057A000204600F0E1FF254BD3F89042224BD3F87E
:1057B00094311846FBF7D8F802460B4643EC102B01
:1057C000204600F0D1FF1D4BD3F878411A4BD3E9A6
:1057D000320101231D464FF000024FF00003FBF79A
:1057E00083FB0346002B01D000231D46EBB2194674
:1057F000204601F095FD114BD3F88C410E4BD3E9B7
:10580000340101231D464FF000024FF00003FBF767
:105810006BFB0346002B01D000231D46EBB219465B
:10582000204601F07DFD054BD3F8A041024BD3E9A2
:10583000360101231D4605E098100020E0120020EB
:105840000000F03F4FF000024FF00003FBF74CFB6D
:105850000346002B01D000231D46EBB2194620461B
:1058600001F05EFD00BF4C37BD46F0BD00000000FA
:1058700090B587B000AF082003F038FCB14B02228E
:1058800083F8B022B04B052283F83022AE4BAF4AEA
:10589000C3F87421AC4BAE4AC3F87821AA4BAC4A8A
:1058A000C3F87C21A84BAB4AC3F88021A64BA94A78
:1058B000C3F88421A44BA84AC3F88821A24BA64A66
:1058C000C3F88C21A04B4FF07D52C3F890219E4B22
:1058D000A24AC3F894219C4BA14AC3F898219A4B41
:1058E000A04AC3F89C21984BFA22A3F8E621964BD4
:1058F0009D4AC3F8A021944B4FF07E52C3F8A421D7
:10590000914B9A4AC3F8A8218F4B994AC3F8AC210E
:1059100002F060FE8B4B012283F84821894A4FF048
:105920000003944CC2E95834864B0022C3F84C2142
:10593000844B002283F84821824B012283F8D22233
:105940008D4BD3E900347F4AC2E958348B48FEF7C7
:105950002FF97C4B012283F808217A4B0022C3F8EF
:105960000C21784A4FF00003824CC2E94834754B51
:10597000002283F80821734B012283F8CE227E4B4C
:10598000D3E908346F4AC2E948347D4B7B616D4BE3
:10599000002283F810216B4B0122C3F80C21102048
:1059A00000F056FC02467B691A61674B002283F8BF
:1059B000B320644BD3F81801634B93F8B330002243
:1059C000194600F099FC5F4B012283F810215D4BD2
:1059D000012283F828215B4B0022C3F82C21594A6D
:1059E0004FF00003634CC2E95034564B002283F859
:1059F0002821544B012283F8CF225F4BD3E9063490
:105A0000504AC2E950345F4B7B614E4B002283F811
:105A100030214C4B0122C3F82C21112000F018FC3E
:105A200002467B691A61484B002283F8B320454B3C
:105A3000D3F83801444B93F8B3300022194600F0F4
:105A40005BFC404B012283F830213E4B012283F85E
:105A5000C8203C4B0022C3F8CC203A4A4FF0000348
:105A6000444CC2E93834374B002283F8C820354B08
:105A7000012283F8D022404BD3E90434314AC2E9F1
:105A80003834414B3B612F4B002283F8D0202D4B03
:105A90000122C3F8CC200021012001F099FB02462D
:105AA0003B691A61274B012283F8D020254B012244
:105AB00083F8E820234B0022C3F8EC20214A4FF062
:105AC00000032C4CC2E940341E4B002283F8E8202E
:105AD0001C4B012283F8D122274BD3E90234194A07
:105AE000C2E94034294B3B61164B002283F8F02079
:105AF000144B0122C3F8EC200021002001F068FBC8
:105B000002463B691A610F4B012283F8F0200D4BCE
:105B1000012283F8B0200B4B012283F898201C4B04
:105B2000FB60084B0022C3F89C20064A4FF000039C
:105B3000104CC2E92A34FB680022DA61FB680022BB
:105B40001A7627E0E0120020981000200000F041B3
:105B50000000F042000060400000A0410000204032
:105B600000007A430000A043CDCCCC3F0000A0420F
:105B7000000096430000F0BF000000202814002021
:105B8000E813002008140020A8130020C8130020E8
:105B900078130020B94B002283F89820B74B0122DC
:105BA00083F8BD22B64BD3E90A34B44AC2E92A3499
:105BB000B448FEF741F8B14B01221A70AF4B0022F6
:105BC0005A60AE4B4FF0FF321A63AC4B00221A7092
:105BD000AA4B012283F8BE22A84B00221A72A74BBF
:105BE00001225A60A54B01221A63A44B00229A6637
:105BF000A24BA54ADA62A14B01221A729F4B0022E6
:105C00005A729E4BDB6A1B68012B26D19B4BDA6ACA
:105C10004FF000034FF00004C2E90234974BDA6AF8
:105C20004FF000034FF00004C2E90434934BDA6AEA
:105C30004FF000034FF00004C2E906348F4BDA6ADC
:105C40004FF000034FF00004C2E908348B4BDA6ACE
:105C50004FF000038D4CC2E90A34884B012283F8CF
:105C6000A421864B0022C3F8A821844B002283F88C
:105C7000A421824B012283F8C222854BBB607F4B5B
:105C8000002283F8AC217D4B0122C3F8A821012119
:105C9000022001F09DFA0246BB681A61774B01228F
:105CA00083F8AC21754B012283F8B821734B002295
:105CB000C3F8BC21714B002283F8B8216F4B01223D
:105CC00083F8C322734BBB606C4B002283F8C02166
:105CD0006A4B0122C3F8BC210121092001F078FAA6
:105CE0000246BB681A61654B012283F8C021634BF1
:105CF000012283F8CC21614B0022C3F8D0215F4BF5
:105D0000002283F8CC215D4B012283F8C422624B30
:105D1000BB605A4B002283F8D421584B0122C3F8B0
:105D2000D0210121082001F053FA0246BB681A6114
