:1000000000000020F5040000834C0000894C000033
:100010008F4C0000954C00009B4C0000000000003D
:100020000000000000000000000000006505000066
:10003000A14C0000000000000B0600006B06000051
:10004000114B00001F4B00002D4B00003B4B0000EC
:10005000494B0000574B0000654B0000734B0000FC
:10006000814B00008F4B00009D4B0000AB4B00000C
:10007000B94B0000C74B0000D54B0000E34B00001C
:10008000F14B0000A74C0000AD4C0000B34C000049
:10009000B94C0000BF4C0000C54C0000CB4C000028
:1000A000D14C0000D74C0000DD4C0000E34C0000B8
:1000B000E94C0000EF4C0000F54C0000FF4B000045
:1000C000FB4C00000D4C0000014D00001B4C0000DB
:1000D000074D0000294C00000D4D0000134D00009D
:1000E000194D00001F4D0000254D00002B4D000054
:1000F000314D0000374D00003D4D0000434D0000E4
:1001000005050000050500000505000005050000C7
:10011000494D00004F4D0000554D00005B4D000063
:10012000614D0000674D00006D4D0000734D0000F3
:10013000794D00007F4D0000854D00008B4D000083
:10014000914D0000974D0000374C00009D4D000080
:10015000454C0000A34D0000A94D0000AF4D00002C
:10016000B54D0000BB4D0000C14D0000C74D000063
:10017000CD4D0000D34D0000D94D0000DF4D0000F3
:10018000E54D00000505000005050000050500001F
:100190000505000005050000050500000505000037
:1001A0000505000005050000050500000505000027
:1001B0000505000005050000050500000505000017
:1001C0000505000005050000050500000505000007
:1003F000050500000505000005050000FFFFFFFFE3
:10040000FFFFFFFFFFFFFFFFFFFFFFFFFEFFFFFFFD
:1004400010B5054C237833B9044B13B10448AFF30E
:1004500000800123237010BDB810002000000000B0
:10046000FCC3000008B5034B1BB103490348AFF3BD
:10047000008008BD00000000BC100020FCC300008C
:10048000154B002B08BF134B9D46A3F5803A002166
:100490008B460F461348144A121A08F0D9FD0F4B29
:1004A000002B00D098470E4B002B00D0984700201F
:1004B000002104000D000D48002802D00C4808F06F
:1004C000A5FA08F0EDFA2000290004F0FDFA08F082
:1004D000A9FA00BF00000800000000200000000092
:1004E000F9470000B8100020B04300200D8A00003A
:1004F000458A000072B604F0FDFD04F095FD62B679
:10050000FFF7BEFFFFF7FEBF80F309887047EFF3E8
:1005100009807047684680F309885A480078C00708
:1005200014BF0220032080F314887047DFF858C1FD
:10053000EFF305831B0618BF6047EFF31483DB0757
:1005400008BF604700DF7047DFF840C1EFF3058365
:100550001B0618BF6047EFF31483DB0708BF604733
:1005600000DF7047EFF30980816911F8021CE1BBDD
:1005700090E80F1010B5E047BDE81040EFF3098C8C
:100580008CE80700424B93E80600914208BF704791
:1005900041B91EF0100F16D13E49086820F0010045
:1005A000086010E01EF0100F06BF2CED108A01202D
:1005B000002081F825002CE9F00FC1F828C00CB408
:1005C00006F076F90CBC1A60D2F828C0BCE8F00F2F
:1005D00092F8250000280EBF6FF0020E6FF0120E89
:1005E000BCEC108A8CF30988704710B52A4A12684F
:1005F000914209D8294C54F8214090E80F10A047A7
:10060000EFF3098C8CE80F0010BD10B506F0D4F89C
:10061000BDE810401E4B93E80600914208BF7047AA
:10062000EFF3098C1EF0100F06BF2CED108A01208D
:10063000002081F825002CE9F00FC1F828C00CB487
:1006400006F036F90CBC1A60D2F828C0BCE8F00FEE
:1006500092F8250000280EBF6FF0020E6FF0120E08
:10066000BCEC108A8CF30988704710B506F002F9CB
:10067000FFF7CEBF10B506F0FBF806F0FBF8FFF76A
:10068000C7BF0000FCB400003D61000059610000DC
:100690004C43002034EF00E000000000FCFFFFFFAF
:1006A00081F0004102E000BF83F0004330B54FEA23
:1006B00041044FEA430594EA050F08BF90EA020F90
:1006C0001FBF54EA000C55EA020C7FEA645C7FEA23
:1006D000655C00F0E2804FEA5454D4EB5555B8BF46
:1006E0006D420CDD2C4480EA020281EA030382EAB7
:1006F000000083EA010180EA020281EA0303362D49
:1007000088BF30BD11F0004F4FEA01314FF4801C1B
:100710004CEA113102D0404261EB410113F0004F2D
:100720004FEA03334CEA133302D0524263EB4303E4
:1007300094EA050F00F0A780A4F10104D5F1200E82
:100740000DDB02FA0EFC22FA05F2801841F10001DD
:1007500003FA0EF2801843FA05F359410EE0A5F1B1
:1007600020050EF1200E012A03FA0EFC28BF4CF0E2
:10077000020C43FA05F3C01851EBE37101F0004598
:1007800007D54FF0000EDCF1000C7EEB00006EEBA5
:100790000101B1F5801F1BD3B1F5001F0CD349082F
:1007A0005FEA30004FEA3C0C04F101044FEA445286
:1007B00012F5800F80F09A80BCF1004F08BF5FEA0D
:1007C000500C50F1000041EB045141EA050130BDED
:1007D0005FEA4C0C404141EB010111F4801FA4F190
:1007E0000104E9D191F0000F04BF01460020B1FAE5
:1007F00081F308BF2033A3F10B03B3F120020CDA1D
:100800000C3208DD02F1140CC2F10C0201FA0CF0FA
:1008100021FA02F10CE002F11402D8BFC2F1200C5F
:1008200001FA02F120FA0CFCDCBF41EA0C01904015
:10083000E41AA2BF01EB0451294330BD6FEA04045E
:100840001F3C1CDA0C340EDC04F11404C4F1200249
:1008500020FA04F001FA02F340EA030021FA04F35B
:1008600045EA030130BDC4F10C04C4F1200220FAB2
:1008700002F001FA04F340EA0300294630BD21FAF0
:1008800004F0294630BD94F0000F83F4801306BFB6
:1008900081F480110134013D4EE77FEA645C18BFAA
:1008A0007FEA655C29D094EA050F08BF90EA020F41
:1008B00005D054EA000C04BF1946104630BD91EA39
:1008C000030F1EBF0021002030BD5FEA545C05D13C
:1008D0004000494128BF41F0004130BD14F580047B
:1008E0003CBF01F5801130BD01F0004545F0FE41EF
:1008F00041F470014FF0000030BD7FEA645C1ABF24
:10090000194610467FEA655C1CBF0B46024650EA5A
:10091000013406BF52EA033591EA030F41F4002186
:1009200030BD00BF90F0000F04BF0021704730B50C
:100930004FF4806404F132044FF000054FF00001E1
:1009400050E700BF90F0000F04BF0021704730B5A2
:100950004FF4806404F1320410F0004548BF404277
:100960004FF000013EE700BF42004FEAE2014FEACC
:1009700031014FEA02701FBF12F07F4393F07F4FA7
:1009800081F06051704732F07F4208BF704793F0AA
:100990007F4F04BF41F40021704730B54FF46074BD
:1009A00001F0004521F000411CE700BF50EA0102C0
:1009B00008BF704730B54FF000050AE050EA010269
:1009C00008BF704730B511F0004502D5404261EBD9
:1009D00041014FF4806404F132045FEA915C3FF41A
:1009E000D8AE4FF003025FEADC0C18BF03325FEAB7
:1009F000DC0C18BF033202EBDC02C2F1200300FA68
:100A000003FC20FA02F001FA03FE40EA0E0021FA8C
:100A100002F11444BDE600BF70B54FF0FF0C4CF47A
:100A2000E06C1CEA11541DBF1CEA135594EA0C0F2C
:100A300095EA0C0F00F0DEF82C4481EA030621EA67
:100A40004C5123EA4C5350EA013518BF52EA0335A2
:100A500041F4801143F4801338D0A0FB02CE4FF054
:100A60000005E1FB02E506F00042E0FB03E54FF084
:100A70000006E1FB03569CF0000F18BF4EF0010E7C
:100A8000A4F1FF04B6F5007F64F5407404D25FEA78
:100A90004E0E6D4146EB060642EAC62141EA55512B
:100AA0004FEAC52040EA5E504FEACE2EB4F1FD0C6D
:100AB00088BFBCF5E06F1ED8BEF1004F08BF5FEAEB
:100AC000500E50F1000041EB045170BD06F000469D
:100AD00046EA010140EA020081EA0301B4EB5C044A
:100AE000C2BFD4EB0C0541EA045170BD41F4801142
:100AF0004FF0000E013C00F3AB8014F1360FDEBF67
:100B0000002001F0004170BDC4F10004203C35DA42
:100B10000C341BDC04F11404C4F1200500FA05F3C5
:100B200020FA04F001FA05F240EA020001F0004266
:100B300021F0004110EBD37021FA04F642EB0601DC
:100B40005EEA430E08BF20EAD37070BDC4F10C0406
:100B5000C4F1200500FA04F320FA05F001FA04F2CA
:100B600040EA020001F0004110EBD37041F10001B6
:100B70005EEA430E08BF20EAD37070BDC4F12005C1
:100B800000FA05F24EEA020E20FA04F301FA05F229
:100B900043EA020321FA04F001F0004121FA04F2D1
:100BA00020EA020000EBD3705EEA430E08BF20EAA1
:100BB000D37070BD94F0000F0FD101F000464000DB
:100BC00041EB010111F4801F08BF013CF7D041EA5D
:100BD000060195F0000F18BF704703F00046520061
:100BE00043EB030313F4801F08BF013DF7D043EA32
:100BF0000603704794EA0C0F0CEA135518BF95EAE8
:100C00000C0F0CD050EA410618BF52EA4306D1D16E
:100C100081EA030101F000414FF0000070BD50EA8D
:100C2000410606BF1046194652EA430619D094EA17
:100C30000C0F02D150EA013613D195EA0C0F05D101
:100C400052EA03361CBF104619460AD181EA030155
:100C500001F0004141F0FE4141F470014FF000000D
:100C600070BD41F0FE4141F4780170BD70B54FF0A8
:100C7000FF0C4CF4E06C1CEA11541DBF1CEA135528
:100C800094EA0C0F95EA0C0F00F0A7F8A4EB05040A
:100C900081EA030E52EA03354FEA013100F0888001
:100CA0004FEA03334FF0805545EA131343EA1263CA
:100CB0004FEA022245EA111545EA10654FEA00267F
:100CC0000EF000419D4208BF964244F1FD0404F538
:100CD000407402D25B084FEA3202B61A65EB030594
:100CE0005B084FEA32024FF480104FF4002CB6EB51
:100CF000020E75EB030E22BFB61A754640EA0C00D1
:100D00005B084FEA3202B6EB020E75EB030E22BF10
:100D1000B61A754640EA5C005B084FEA3202B6EB51
:100D2000020E75EB030E22BFB61A754640EA9C0010
:100D30005B084FEA3202B6EB020E75EB030E22BFE0
:100D4000B61A754640EADC0055EA060E18D04FEA9E
:100D5000051545EA16754FEA06164FEAC30343EA3E
:100D600052734FEAC2025FEA1C1CC0D111F4801F0B
:100D70000BD141EA00014FF000004FF0004CB6E704
:100D800011F4801F04BF01430020B4F1FD0C88BFA3
:100D9000BCF5E06F3FF6AFAEB5EB030C04BFB6EBAE
:100DA000020C5FEA500C50F1000041EB045170BDA1
:100DB0000EF0004E4EEA113114EB5C04C2BFD4EBCE
:100DC0000C0541EA045170BD41F480114FF0000E52
:100DD000013C90E645EA060E8DE60CEA135594EACE
:100DE0000C0F08BF95EA0C0F3FF43BAF94EA0C0FD1
:100DF0000AD150EA01347FF434AF95EA0C0F7FF446
:100E000025AF104619462CE795EA0C0F06D152EA99
:100E100003353FF4FDAE1046194622E750EA41067D
:100E200018BF52EA43067FF4C5AE50EA41047FF48E
:100E30000DAF52EA43057FF4EBAE12E74FF0FF3CF3
:100E400006E000BF4FF0010C02E000BF4FF0010CC4
:100E50004DF804CD4FEA410C7FEA6C5C4FEA430C3D
:100E600018BF7FEA6C5C1BD001B050EA410C0CBF8C
:100E700052EA430C91EA030F02BF90EA020F0020EE
:100E8000704710F1000F91EA030F58BF994208BF55
:100E900090422CBFD8176FEAE37040F00100704712
:100EA0004FEA410C7FEA6C5C02D150EA013C07D169
:100EB0004FEA430C7FEA6C5CD6D152EA033CD3D0B4
:100EC0005DF8040B704700BF8446104662468C46AE
:100ED0001946634600E000BF01B5FFF7B7FF0028E1
:100EE00048BF10F1000F01BD4DF808EDFFF7F4FF0A
:100EF0000CBF012000205DF808FB00BF4DF808ED95
:100F0000FFF7EAFF34BF012000205DF808FB00BFB7
:100F10004DF808EDFFF7E0FF94BF012000205DF8D9
:100F200008FB00BF4DF808EDFFF7CEFF94BF01208E
:100F300000205DF808FB00BF4DF808EDFFF7C4FF87
:100F400034BF012000205DF808FB00BF4A0011D229
:100F500012F5001211D20DD56FF47873B3EB625213
:100F60000ED44FEAC12343F0004343EA505323FA1F
:100F700002F070474FF00000704750EA013002D194
:100F80004FF0FF3070474FF00000704753B94AB937
:100F9000002908BF00281CBF4FF0FF314FF0FF3081
:100FA00001F0F8B8ADF1080C6DE904CE00F006F8D8
:100FB000DDF804E0DDE9022304B070472DE9F047D5
:100FC000089E04468846002B4BD18A42154667D9B5
:100FD000B2FA82F24AB1C2F1200701FA02F320FA12
:100FE00007F7954047EA030894404FEA154E230C53
:100FF000B8FBFEF71FFA85FC0EFB178843EA08438F
:1010000007FB0CF1994209D9EB1807F1FF3080F08A
:101010001B81994240F21881023F2B445B1AA4B213
:10102000B3FBFEF00EFB103344EA034400FB0CFC60
:10103000A44509D92C1900F1FF3380F00781A4459C
:1010400040F2048102382C4440EA0740A4EB0C042F
:1010500000271EB1D4400023C6E900433946BDE84D
:10106000F0878B4209D9002E00F0EB800027C6E9FB
:10107000000138463946BDE8F087B3FA83F7002F00
:1010800047D18B4202D3824200F2FA80841A61EB8C
:10109000030301209846002EE0D0C6E90048DDE7B2
:1010A00002B9FFDEB2FA82F2002A40F08F80491BBB
:1010B0004FEA154E1FFA85F80127B1FBFEFC230C01
:1010C0000EFB1C1143EA014308FB0CF1994207D9BE
:1010D000EB180CF1FF3002D2994200F2CD80844629
:1010E000591AA3B2B1FBFEF00EFB101443EA0444FC
:1010F00008FB00F8A04507D92C1900F1FF3302D2F4
:10110000A04500F2B6801846A4EB080440EA0C4063
:101110009FE7C7F1200CBB4022FA0CFE4EEA030EFB
:1011200001FA07F420FA0CF521FA0CF34FEA1E48F5
:101130002543B3FBF8F92C0C08FB19331FFA8EFA80
:1011400044EA034309FB0AF49C4202FA07F200FA5C
:1011500007F10BD91EEB030309F1FF3080F0878004
:101160009C4240F28480A9F1020973441B1BADB27A
:10117000B3FBF8F008FB103345EA034400FB0AFA1E
:10118000A24508D91EEB040400F1FF336BD2A2453F
:1011900069D90238744440EA0940A0FB0289A4EBF3
:1011A0000A044C45C2464B4654D351D0002E69D058
:1011B000B1EB0A0564EB030404FA0CFCFD40FC40AF
:1011C0004CEA0505C6E90054002747E7C2F12003B1
:1011D00020FA03F7954001FA02F021FA03F34FEAEF
:1011E000154E3843010CB3FBFEF71FFA85F80EFBD2
:1011F000173341EA034107FB08F38B4204FA02F478
:1012000007D9691807F1FF3C2FD28B422DD9023F35
:101210002944CB1A81B2B3FBFEF00EFB103341EA36
:10122000034100FB08F38B4207D9691800F1FF3C2A
:1012300017D28B4215D902382944C91A40EA074708
:101240003BE73746304609E70746E7E61846FBE640
:101250004145ABD2B8EB020A69EB0E0201381346E6
:10126000A4E76046E9E7184695E76746D1E7814677
:101270007CE702382C4447E7ACF1020C2B442FE703
:10128000384608E73746E9E603685A004CBF43F0A2
:10129000004323F000431844704700BF61B32DE9B9
:1012A000F84F01F1FF3A90460646D146002707EB7A
:1012B000090404EBD4746410E50071190846FFF7C3
:1012C000E3FFA245834605F10800304409D0FFF74B
:1012D000DBFFC34500F1FF3005D8404509D2671C4C
:1012E000E5E7C34505D9A74202D004F1FF39DEE79F
:1012F00000210846BDE8F88F08467047012807D04E
:10130000022807D0044B00280CBF18460020704765
:101310000248704702487047E9190000ED190000C3
:10132000F119000030B5254B83B004468D1E4BB338
:1013300001A92846AFF30080F0B101992A46FFF7D2
:10134000ADFF0146C0B1FFF79FFF4B68A064012BC2
:101350002ED0002B01F1040026DBFFF795FF0023C0
:10136000C4E913030368002B12DBFFF78DFF002392
:101370002061184603B030BD0023236109231846BD
:1013800003B030BD0E490F48091AC9100191D5E7C5
:10139000C3F30360FFF7B2FF002814BF0023092343
:1013A0002061184603B030BD0123C4E91303D9E717
:1013B000002323610523184603B030BD0000000060
:1013C000C0C8000030C600000368DA0710B5044644
:1013D00006D49B0700F1480009D500F05FFC2368A4
:1013E000590709D51A070ED5DB0613D510BD00F035
:1013F0004DFC23685907F5D404F1D00000F056FCE9
:1014000023681A07F0D404F5A87000F057FC23688D
:10141000DB06EBD404F5E870BDE8104000F092BCA8
:10142000036803B103441846704700BF09207047A2
:10143000704700BF70B504460D4608E02B6C636131
:101440002A462369214601209847082808D1296C9B
:101450002046FFF767FF06460028EFD007F0B0FAF6
:101460000728FBD13046296CFFF7E2FF281D00F06A
:1014700001FC00BF2DE9F0470C1D054617460FCCB7
:10148000ADF5727D03AE0FC60FCC0FC60FCC0FC6E5
:1014900094E80F0002ACD5F80C80D5F8189086E8D7
:1014A0000F000023236021E0236C6B614FF4F07286
:1014B00021467AA800F070FE2B697AAA29463046A8
:1014C0009847889BCDE900498246636431462B46A4
:1014D0002A460120C0470746F8B94FF4F0727AA9AE
:1014E000204600F059FEBAF1080F1CD1216C2846A5
:1014F000FFF718FF002F08BF0926074618BF0A2666
:101500000028D1D0A36B46F01001CDE900492A464E
:10151000636401202B46C04700B1092738460DF50A
:10152000727DBDE8F087BAF1070FF6D13846216C1D
:10153000FFF77EFF03A800F09DFB00BF406C7047E3
:10154000F0B5CB6B0B640D1D0F4606460FCDF9B001
:1015500001AC0FC40FCD0FC40FCD0FC495E80F0021
:101560004FF0FF3584E80F00009506E033696A46C6
:10157000314698470828044608D110993046FFF7AD
:10158000D1FE0028F2D0092079B0F0BD6846FFF7FF
:101590001BFF062CF7D139463046FFF74BFF00BF43
:1015A00030B4DD6BC160826119461D64002230BC1D
:1015B00060E700BF70B5C66843690B64BEB90369D4
:1015C0000A4604460D46014602209847072807D0E0
:1015D000082803D129462046FFF72CFF07F0F0F931
:1015E0003046296CFFF724FF281D00F043FB012241
:1015F000FFF740FF07F0E4F9C2681AB1CA6B0A644A
:10160000002237E79CE700BF704700BF836813B133
:101610000146012018477047042907D8DFE801F088
:101620000308060808000BB90F2A03D902207047E7
:101630000120704700EB820218465368009A13603D
:10164000704700BF10B584B0002303AC0A46009475
:101650001946FFF7E1FF039804B010BD042907D82D
:10166000DFE801F00308060808000BB90F2A03D9C8
:10167000022070470120704700EB8200009A126838
:1016800042601846704700BF10B584B004AC002318
:1016900044F8042D0A4600941946FFF7DFFF04B012
:1016A00010BD00BFF0B5D36B1364151D07460E4681
:1016B0000FCDADF50F7D17AC0FC40FCD0FC40FCDFF
:1016C0000FC495E80F004FF0FF3584E80F00169522
:1016D00010E016A8FFF7D8FF314616A8B84716AA9B
:1016E000694678B9049B08209847052804460AD023
:1016F000092807D026996846FFF714FE6A460C2190
:101700000028E6D0092416A8FFF75EFE20460DF556
:101710000F7DF0BD2DE9F04F0D46C96C89B00C1D51
:10172000164600F0030B0A6806941F46002B68D08B
:10173000130CD9B212048DF81D30022304EB81047E
:1017400005928DF81C302B6DBBF1020F08BFAC6BFE
:1017500013F0010346D1019300F008030093D4F87D
:101760000090B9F1000F00F0F380022F45D0B4F8DB
:101770000090B4F802800434AB6C28F0010A0F2109
:1017800030469A44FFF75EFF824534D829F00103C2
:101790005344834294BF002001204FEA480808F0D8
:1017A000020809F0010948EA0908B8F1010F3AD026
:1017B00031D3B8F1020F1AD1236823F0004ABBF1EC
:1017C000000F66D130B1009A002A6CD0BAF1000F38
:1017D00000F09080002B00DA04340AF1010304EBDE
:1017E0008304BCE7304605A900F046FB78B1092028
:1017F00009B0BDE8F08F0020CFE7D4F804800834AA
:10180000BAE7120203230592ADF81C309BE70820CB
:1018100009B0BDE8F08FBBF1000F02D0002840F006
:10182000B48004349BE7BBF1000F18D1A8B1D4E910
:101830000023991C4FEAD272D9D005F15801013327
:10184000049100F0B580201DFFF7EAFD04AB0146CE
:101850002846AFF30080002867D108347FE70D21C8
:101860003046D5F82080FFF7EDFE8045F5D1AB6A14
:101870009C42F2D12046FFF707FD0F210246304679
:10188000FFF702FF30462A460021FFF7FDFE072042
:10189000AEE70D213046D5F82080FFF7D3FE804516
:1018A00032D0236896E7BAF1000F23D005F1580330
:1018B00004F10408CDF808B0DDF800900397A346C2
:1018C0001C4602E05745B94640D040460494FFF715
:1018D000A7FD04AB014600222846AFF3008009F1C2
:1018E000010708F104080028ECD0D1455C46DDE989
:1018F00002B7D6D130460D21FFF7A4FE049B286223
:10190000C5E90934062073E7AB6A9C42C9D10422B9
:101910004FF00008A318C5E90AA8C5E90C232368FD
:1019200043454DDB0123019357E780460D213046A7
:10193000FFF788FEB8F1020F28623ED12B46049AC9
:1019400043F82C2F6B62AC62062051E75C46D1E76E
:1019500005A9304600F090FA00287FF448AF019BBB
:10196000002B3FF454AF0F213046FFF76BFE0E21E2
:1019700002463046FFF788FE30461A4A0F21FFF72D
:1019800083FE072009B0BDE8F08F2046FFF77CFCFE
:1019900004340746AC632846AFF3008000283FF4C8
:1019A00026AF30463A460F21FFF76EFE07201FE7AD
:1019B00030460D21FFF746FE2862049B6B62C2E7AA
:1019C0000AF1010004EB8000FFF75EFC0F210246E4
:1019D0003046FFF759FE30462A464146FFF754FE8F
:1019E000072005E700000000002393E6012391E6AD
:1019F00002238FE62DE9F0410546C4B0042906D83C
:101A0000DFE801F04D2B05030900032B5FD0022016
:101A100044B0BDE8F081002BF9D1102AF7D82B682B
:101A2000DC0600F1F48022AC2046019200F094F92B
:101A3000A86B019A0023012606FA03F1114203D094
:101A4000016844F8231004300133042BF4D1A86357
:101A5000204600F077F90020DAE7012B4FEA124622
:101A600097B252D0052BD2D106EB0708B8F1200F60
:101A7000CDD80F2E40F29980B846002F40F0DB8081
:101A8000AA6BAA630F2E40F2BE80B8F1000F02D0FD
:101A900002A800F00BF9002044B0BDE8F081002B53
:101AA000B5D1AC6B97B2281D012606FA03F1394275
:101AB00003F1010302D0216801600434102B00F10E
:101AC0000400F2D112F40050E5D1AC63A0E7160C8B
:101AD00097B2F319102B9AD82B681A075DD422AC51
:101AE000204600F00DF904EBC601AB6B3FB103EBF0
:101AF000C702186841F8040B04339342F9D1204619
:101B0000AB6300F0DBF8002082E7F219102A3FF601
:101B10007EAF0F2E3FF67BAF2A68D10708D5284647
:101B200022F0030240F8482B019300F0B3F8019B28
:101B3000019322AC204600F0ADF8A96B019B002F69
:101B400000F095807F0004EBC6044FF00008043CD1
:101B500001EB870251F8040B44F8040F9142F9D1CC
:101B6000B8F1000F0FD002AC102E314638BF102153
:101B700004EBC101843902EBC80452F8040B41F8AC
:101B8000040F9442F9D1012B7FF47BAF22AC0432D5
:101B9000AA63204600F07AF87DE723F008032B6063
:101BA00005F5A87000F0ACF899E7B8F1100F2A68B5
:101BB00043D9D007A8F110080BD5284622F001021E
:101BC00042F0020240F8482B019300F06BF82A68BB
:101BD000019B510725D40F2E04D822A8019300F0B1
:101BE00061F8019B019302AC204600F063F8C6F156
:101BF00010010029AA6B019BB6DD22AC4F0004EB5B
:101C0000C6041146A3E722A800F048F83DE723F0F8
:101C100010032B6005F5E870019200F09DF8019A21
:101C200001E7284622F0040240F8D02B019300F08F
:101C300041F8019BCFE72A68CBE7D0070AD52846B1
:101C400022F0010242F0020240F8482B019300F01A
:101C500029F8019B019322AC204600F023F8B846F6
:101C6000A96B019B002F7FF46DAF0A4609E70A4676
:101C70008DE700BF00F1340191E838009C46A6468C
:101C80004CF8045D90E8FF0FE54600BD90EC210B99
:101C9000704700BF80EC210B704700BF90EC200B19
:101CA000704700BF80EC200B704700BFD0EC200BCA
:101CB000704700BFC0EC200B704700BFF0EC020182
:101CC000F0EC0211F0EC0221F0EC0231F0EC0241F8
:101CD000F0EC0251F0EC0261F0EC0271F0EC0281E8
:101CE000F0EC0291F0EC02A1F0EC02B1F0EC02C1D8
:101CF000F0EC02D1F0EC02E1F0EC02F1704700BF31
:101D0000E0EC0201E0EC0211E0EC0221E0EC023137
:101D1000E0EC0241E0EC0251E0EC0261E0EC027127
:101D2000E0EC0281E0EC0291E0EC02A1E0EC02B117
:101D3000E0EC02C1E0EC02D1E0EC02E1E0EC02F107
:101D4000704700BFB0FC0181B0FC0191B0FC01A163
:101D5000B0FC01B1704700BFA0FC0181A0FC019163
:101D6000A0FC01A1A0FC01B1704700BFEC4600B58A
:101D70002DE900502DE9FF1F4FF000032DE90C0065
:101D800001A9FFF7DDFBDDF840E012B0704700BFAE
:101D9000EC4600B52DE900502DE9FF1F4FF0000380
:101DA0002DE90C0001A9FFF705FCDDF840E012B0B9
:101DB000704700BFEC4600B52DE900502DE9FF1F2C
:101DC0004FF000032DE90C0001A9FFF715FCDDF829
:101DD00040E012B0704700BFEC4600B52DE900505E
:101DE0002DE9FF1F4FF000032DE90C0001ABFFF7B9
:101DF000D7FBDDF840E012B0704700BFEC4600B5FD
:101E00002DE900502DE9FF1F4FF000032DE90C00D4
:101E100001AAFFF747FCDDF840E012B0704700BFB1
:101E2000027A82B9437AABB14268013B10B4437283
:101E300013680321141D01721A02446002605DF8E8
:101E4000044B180E70470368013A02721A020260CE
:101E5000180E7047B020704700B585B003AA002364
:101E6000009219460C22FFF7D7FB039805B05DF8E6
:101E700004FB00BFF0E700BF2DE9F043054685B045
:101E80000E464FF000083046FFF7CAFFB028044660
:101E900000F0B180070620D500F0F003802B65D05C
:101EA000902B36D0A02B78D0B02B47D0C02B00F091
:101EB0008A8000F0F803D02B0BD100F0070201322A
:101EC00042F40022052301212846FFF793FD002854
:101ED000D9D0092005B0BDE8F0830DF10C0900232D
:101EE00019468700CDF800900D222846FFF794FB95
:101EF000FFB2039BCDF80090043760064CBFDF1B98
:101F0000FF18002319460D2228460397FFF7A6FB6A
:101F1000B9E700F00D030D2BDBD003AF002300F079
:101F20000F02194600972846FFF776FB002300971B
:101F300019460D222846FFF791FBA4E7B1285FD090
:101F4000B22800F0CC80B3287ED000F0FC03B42B84
:101F5000BFD000F007020132012342F400221946EB
:101F60002846FFF747FD00288DD0B2E73046FFF73F
:101F700057FF24020443B4F5004FAAD024010023E4
:101F8000A2B219462846FFF735FD0028A1D114F466
:101F9000004F18BF4FF0010875E7C24302F0070376
:101FA0004FF47F621A41010702F47F624FF0000391
:101FB00048BF42F4804219462846FFF71BFD00281F
:101FC0003FF461AF85E7C62851D0C7285AD000F04A
:101FD000F803C02B69D0C82875D0C9287FF479AF21
:101FE0003046FFF71DFF020300F00F0002F47022DD
:101FF0000130024366E7B8F1000F14D0002069E712
:102000003046FFF70DFF00283FF463AF10F0F003F8
:102010007FF45FAF024619462846FFF7EBFC002825
:102020003FF431AF55E703AC43460E2241460094DE
:102030002846FFF7F1FA0094284643460F2241460E
:10204000FFF70CFB404645E73046FFF7E9FE01038A
:1020500000F00F0001F47021421C01230A432846BE
:102060001946FFF7C7FC00283FF40DAF31E73046B3
:10207000FFF7D6FE010300F00F0001F47021421CAF
:102080000323EBE73046FFF7CBFE024600283FF480
:1020900020AF10F0F0037FF41CAF04212846FFF7B7
:1020A000A9FC00283FF4EFAE13E700F00F02013265
:1020B000032342F4202219462846FFF79BFC002800
:1020C0003FF4E1AE05E73046FFF7AAFE00F0F0026C
:1020D00000F00F031032013343EA0232F2E600232C
:1020E0000DF10C090D221946CDF800902846FFF796
:1020F00093FA3046FFF794FE02064FF002070CD524
:10210000039B00F07F00B840034430460393FFF781
:1021100087FE030607F10707F2D4039BCDF8009072
:1021200000F07F0403F50172BC40002314441946FB
:102130000D2228460394FFF791FAA4E610B5C36C6C
:1021400084B05A6803208DF80C00DC798DF80D40BE
:1021500012020833084601A901920293FFF78CFE90
:1021600004B010BD08B5FFF785FE806C08BD00BF48
:1021700008B5FFF77FFEC06CC37900EB8300083021
:1021800008BD00BF08B506F01BFC00BF08B5FFF78F
:10219000F9FF00BF704700BF844641EA000313F017
:1021A00003036DD1403A41D351F8043B40F8043B5E
:1021B00051F8043B40F8043B51F8043B40F8043B21
:1021C00051F8043B40F8043B51F8043B40F8043B11
:1021D00051F8043B40F8043B51F8043B40F8043B01
:1021E00051F8043B40F8043B51F8043B40F8043BF1
:1021F00051F8043B40F8043B51F8043B40F8043BE1
:1022000051F8043B40F8043B51F8043B40F8043BD0
:1022100051F8043B40F8043B51F8043B40F8043BC0
:1022200051F8043B40F8043B403ABDD2303211D360
:1022300051F8043B40F8043B51F8043B40F8043BA0
:1022400051F8043B40F8043B51F8043B40F8043B90
:10225000103AEDD20C3205D351F8043B40F8043B60
:10226000043AF9D2043208D0D2071CBF11F8013B5E
:1022700000F8013B01D30B8803806046704700BF24
:10228000082A13D38B078DD010F003038AD0C3F133
:102290000403D21ADB071CBF11F8013B00F8013B15
:1022A00080D331F8023B20F8023B7BE7043AD9D3D4
:1022B000013A11F8013B00F8013BF9D20B780370A9
:1022C0004B7843708B788370604670470000000045
:1022D00001F0FF01102A2BDB10F0070F08D010F8D7
:1022E000013B013A8B422DD010F0070F42B3F6D1DB
:1022F000F0B441EA012141EA014122F007047FF0F4
:1023000000070023F0E80256083C85EA010586EA4A
:10231000010685FA47F5A3FA87F586FA47F6A5FA86
:1023200087F68EB9EED1F0BC01F0FF0102F0070292
:1023300032B110F8013B013A83EA010313B1F8D13D
:102340000020704701387047002D06BF354603381E
:10235000073815F0010F07D1013015F4807F02BF57
:10236000013015F4C03F0130F0BC0138704700BFA8
:10237000000000000000000000000000000000005D
:1023800090F800F06DE9024520F007016FF0000CB5
:1023900010F0070491F820F040F049804FF000045D
:1023A0006FF00700D1E9002391F840F000F1080038
:1023B00082FA4CF2A4FA8CF283FA4CF3A2FA8CF370
:1023C0004BBBD1E9022382FA4CF200F10800A4FAD7
:1023D0008CF283FA4CF3A2FA8CF3E3B9D1E904232B
:1023E00082FA4CF200F10800A4FA8CF283FA4CF362
:1023F000A2FA8CF37BB9D1E9062301F1200182FA1C
:102400004CF200F10800A4FA8CF283FA4CF3A2FA21
:102410008CF3002BC6D0002A04BF04301A4612BA2F
:10242000B2FA82F2FDE8024500EBD2007047D1E932
:10243000002304F00305C4F100004FEAC50514F0C1
:10244000040F91F840F00CFA05F562EA05021CBF92
:1024500063EA050362464FF00004A9E790B400AFB9
:10246000254BD3E91A34254AC2E91234234A4FF0E6
:102470000003234CC2E91434204A4FF00003214CDE
:10248000C2E900341D4A4FF000031E4CC2E90A3471
:102490001A4A4FF000034FF00004C2E90434174A0F
:1024A0004FF00003174CC2E90634144A4FF0000302
:1024B0004FF00004C2E90234104A4FF000034FF01D
:1024C0000004C2E908340D4A4FF000034FF0000445
:1024D000C2E90E34094A4FF000034FF00004C2E98C
:1024E0000C34064A4FF000034FF00004C2E91034E8
:1024F00000BFBD4690BC704700000020D8100020EF
:10250000008051400000F03FB0B584B000AF78606B
:10251000A54BD3E90E014FF00002A44BFEF7E4FCFB
:102520000346002B16D1A24B002283F8D621A04BE4
:10253000032283F8D5219F4A4FF000034FF0000497
:10254000C2E904349B4A4FF000034FF00004C2E993
:1025500002348AE1964B93F8D631022B4FD0032BED
:1025600000F0A680012B40F0C880924A4FF0000393
:10257000914CC2E914348F4A4FF000038F4CC2E9EA
:1025800000348C4A4FF000038C4CC2E90A34894A6B
:102590004FF000034FF00004C2E90434854A4FF0C5
:1025A0000003864CC2E90634824A4FF000034FF024
:1025B0000004C2E902347F4A4FF000034FF00004E8
:1025C000C2E908347B4A4FF000034FF00004C2E92F
:1025D0000E34784A4FF000034FF00004C2E90C3487
:1025E000734B042283F8D621714B0022C3F8D0210B
:1025F000704A4FF00003714CC2E9103435E16D4A66
:102600004FF000036C4CC2E914346A4A4FF00003E7
:102610004FF00004C2E90034664A4FF00003674CF3
:10262000C2E90A34634A4FF00003644CC2E904343F
:10263000604A4FF000034FF00004C2E906345D4ADF
:102640004FF000034FF00004C2E90234594A4FF042
:1026500000034FF00004C2E90834564A4FF000036B
:102660004FF00004C2E90E34524A4FF000034FF01D
:102670000004C2E90C344E4BD3F8D0414A4B93EDE1
:10268000107BB0EE470AF0EE670A06F011F953EC42
:10269000102B10461946FEF759FC03469C42C0F029
:1026A000DF80434B012283F8D621FFF7D7FED7E026
:1026B0003F4BD3F8D0413C4B93ED167BB0EE470A2D
:1026C000F0EE670A06F0F4F853EC102B10461946AA
:1026D000FEF73CFC03469C42C0F0C480344B04220D
:1026E00083F8D621324B0022C3F8D021314A4FF073
:1026F0000003324CC2E91034B4E02E4A4FF000031C
:102700002E4CC2E910347B681B78002B08D0284B74
:10271000032283F8D621264B0022C3F8D021A3E060
:10272000234BD3F8D051204BD3E914341A46234617
:102730001BA1D1E90001FEF799FA03460C461846A1
:102740002146194BD3E910341A462346FDF7ACFF56
:1027500003460C4618462146134BD3E916341A4655
:102760002346FDF7A3FF03460C4644EC173BB0EEAF
:10277000470AF0EE670A06F09BF854EC103B184647
:102780002146FEF7E3FB03469D4219D37B681B7885
:10279000002B0CBF01230023DBB2FB7312E000BF50
:1027A00000000000004CED40000000200000084048
:1027B00038110020D8100020008051400000F03F68
:1027C0000023FB73FB7B002B4ED02A4B022283F8A5
:1027D000D621284B0022C3F8D021274BD3E91A3445
:1027E000264AC2E91234254A4FF00003244CC2E9BC
:1027F0001434224A4FF000034FF00004C2E90034C1
:102800001E4A4FF000031F4CC2E90A341B4A4FF026
:1028100000031C4CC2E90434184A4FF000034FF087
:102820000004C2E90634154A4FF000034FF00004DB
:10283000C2E90234114A4FF000034FF00004C2E92C
:1028400008340E4A4FF000034FF00004C2E90E3482
:102850000A4A4FF000034FF00004C2E90C3403E0D1
:1028600000BF02E000BF00E000BF00BF1037BD4660
:10287000B0BD00BF3811002000000020D81000209B
:10288000008051400000F03FB0B500AFA04BD3E94D
:102890000E014FF000029F4BFEF726FB0346002B74
:1028A00016D19D4B002283F8D8219B4B032283F83D
:1028B000D5219A4A4FF000034FF00004C2E90434D6
:1028C000964A4FF000034FF00004C2E9023419E1C8
:1028D000914B93F8D831012B40F0B9808F4A4FF0DB
:1028E00000038F4CC2E914348C4A4FF00003894C2A
:1028F000C2E90034894A4FF00003864CC2E90A3429
:10290000864A4FF000034FF00004C2E90434834AC2
:102910004FF000037F4CC2E90634804A4FF00003B9
:102920004FF00004C2E902347C4A4FF000034FF03C
:102930000004C2E90834794A4FF000034FF0000464
:10294000C2E90E34754A4FF000034FF00004C2E9AB
:102950000C34724A4FF000034FF00004C2E9103407
:102960006D4BD3F8D0516A4BD3E914341A46234641
:1029700065A1D1E90001FEF779F903460C46184636
:102980002146634BD3E910341A462346FDF78CFEEB
:1029900003460C4644EC173BB0EE470AF0EE670ADC
:1029A00005F086FF54EC103B18462146FEF7CEFAA0
:1029B00003469D42C0F0A680574B022283F8D821DF
:1029C000554B0022C3F8D021514BD3E91A34534A56
:1029D000C2E91234514A4FF00003514CC2E9143499
:1029E0004E4A4FF000034FF00004C2E900344B4A56
:1029F0004FF00003474CC2E90A34484A4FF0000345
:102A0000444CC2E90434454A4FF000034FF000043F
:102A1000C2E90634414A4FF000034FF00004C2E916
:102A200002343E4A4FF000034FF00004C2E908347C
:102A30003A4A4FF000034FF00004C2E90E34374A1F
:102A40004FF000034FF00004C2E90C345AE0334A5F
:102A50004FF00003324CC2E91434304A4FF0000307
:102A60004FF00004C2E900342C4A4FF00003294C17
:102A7000C2E90A34294A4FF00003264CC2E9043463
:102A8000264A4FF000034FF00004C2E90634234AFF
:102A90004FF000034FF00004C2E902341F4A4FF028
:102AA00000034FF00004C2E908341C4A4FF0000351
:102AB0004FF00004C2E90E34184A4FF000034FF003
:102AC0000004C2E90C34144BD3F8D041104B93ED01
:102AD000107BB0EE470AF0EE670A05F0E9FE53EC12
:102AE000102B10461946FEF731FA03469C4209D3D3
:102AF000094B012283F8D821074B0022C3F8D021CB
:102B0000FFF7ACFC00BFB0BD00000000004CED4082
:102B1000000000200000F03F38110020D8100020F5
:102B20000080514090B400AF254BD3E91A34254AB8
:102B3000C2E91234234A4FF00003234CC2E9163491
:102B4000204A4FF00003214CC2E900341D4A4FF0E7
:102B500000031E4CC2E90A341A4A4FF000034FF03A
:102B60000004C2E90434174A4FF000034FF0000498
:102B7000C2E90634134A4FF000034FF00004C2E9E3
:102B80000234104A4FF00003104CC2E908340D4AD9
:102B90004FF000034FF00004C2E90E34094A4FF031
:102BA00000034FF00004C2E90C34064A4FF0000362
:102BB0004FF00004C2E9103400BFBD4690BC70471E
:102BC00000000020D8100020008051400000F03F9D
:102BD00080B582B000AF78607B685B68012B08D15C
:102BE0007B681B7A002B04D07B681B69184601F0B8
:102BF000CAFD00BF0837BD4680BD80B582B000AFBA
:102C000078607868FFF7E4FF00BF0837BD4680BDF5
:102C100080B582B000AF78607B681B78002B05D14F
:102C20007B6801221A707868FFF7E7FF00BF08375A
:102C3000BD4680BD80B582B000AF78607B685B68C0
:102C4000012B08D17B681B7A002B04D07B681B69A1
:102C5000184601F098FD00BF0837BD4680BD80B51D
:102C600082B000AF78607868FFF7E4FF00BF0837F4
:102C7000BD4680BD80B582B000AF78607B681B78B0
:102C8000002B05D17B6801221A707868FFF7E7FFF7
:102C900000BF0837BD4680BD80B582B000AF786008
:102CA0007B685B68012B0DD17B681B7A002B09D0F8
:102CB0007B681B69184601F05FFC7B681B6918463E
:102CC00001F070FC00BF0837BD4680BD80B582B002
:102CD00000AF78607868FFF7DFFF00BF0837BD46B8
:102CE00080BD80B582B000AF78607B681B78002B18
:102CF00005D17B6801221A707868FFF7E7FF00BFF3
:102D00000837BD4680BD80B582B000AF78607B6873
:102D10005B68012B0DD17B681B7A002B09D07B6887
:102D20001B69184601F0D6FA7B681B69184601F04A
:102D3000DBFA00BF0837BD4680BD80B582B000AF6A
:102D400078607868FFF7DFFF00BF0837BD4680BDB9
:102D500080B582B000AF78607B681B78002B05D10E
:102D60007B6801221A707868FFF7E7FF00BF083719
:102D7000BD4680BD00000000B0B586B000AFA74BD7
:102D8000D3E92E01A64BD3E90C341A462346FEF7AD
:102D9000ABF80346002B05D1A14BD3E90C349F4A75
:102DA000C2E92E349D4BD3F8B030184601F074FCC4
:102DB0000346FB75994BD3E93601994BD3E90A34A5
:102DC0001A462346FEF790F80346002B05D1944B94
:102DD000D3E90A34914AC2E93634904BD3F8D03063
:102DE000184601F059FC0346FB718C4BD3F8D031E7
:102DF000B3F1FF3F06D0894BD3F8D0310133874A76
:102E0000C2F8D031854B93F8D431002B17D1834BC6
:102E1000012283F8D421814B032283F8D521814AF2
:102E20004FF000034FF00004C2E904347D4A4FF034
:102E300000034FF00004C2E9023400F028BC774BD5
:102E400093F8D531013B032B00F21D8201A252F809
:102E500023F000BF652E0000712E0000792E0000C7
:102E6000D72F0000FB1D1846FFF74EFB00F00FBCEC
:102E7000FFF70AFD00F00BBC6A4A4FF000034FF069
:102E80000004C2E90434674A4FF000034FF0000425
:102E9000C2E90234624BD3E90E014FF00002624BEB
:102EA000FEF722F80346002B0AD05C4B012283F880
:102EB000D5215A4B012283F8D621FFF7CFFAE6E35A
:102EC000574BD3E90E014FF00002584BFEF70CF8B8
:102ED0000346002B0ED0514B022283F8D5214F4BD5
:102EE000012283F8D8214D4B0022C3F8D021FFF7EF
:102EF000B5FACCE34A4BD3E90E014FF000024C4B3C
:102F0000FDF7F2FF0346002B49D0444B052283F81E
:102F1000D521424B012283F8D721414BD3E91A3402
:102F2000404AC2E912343F4A4FF00003414CC2E923
:102F300016343C4A4FF000033C4CC2E90034394A95
:102F40004FF00003394CC2E90A34364A4FF000030F
:102F50004FF00004C2E90434324A4FF000034FF04E
:102F60000004C2E906342F4A4FF000034FF000047A
:102F7000C2E902342B4A4FF000032C4CC2E908345A
:102F8000284A4FF000034FF00004C2E90E34254AEE
:102F90004FF000034FF00004C2E90C3477E3204BFC
:102FA000D3E90E014FF000024FF08043FDF79CFF84
:102FB0000346002B00D16AE3184B042283F8D52185
:102FC000164B012283F8D921144B0022C3F8D021DB
:102FD000FFF7A8FD5BE3124BD3E90E014FF00002AF
:102FE0004FF08043FDF780FF0346002B24D10B4BAD
:102FF000002283F8D921094B032283F8D521094AFD
:103000004FF000034FF00004C2E90434054A4FF0CA
:1030100000034FF00004C2E9023437E33811002006
:1030200000000020D8100020000008400000F03F01
:103030000000104000805140A74B93F8D931012B7C
:1030400040F0C480A54A4FF00003A54CC2E91634F5
:10305000A24A4FF00003A34CC2E900349F4A4FF04C
:103060000003A04CC2E90A349C4A4FF000034FF021
:103070000004C2E90434994A4FF000034FF0000401
:10308000C2E90634954A4FF000034FF00004C2E94C
:103090000234924A4FF00003924CC2E908348F4A3E
:1030A0004FF000034FF00004C2E90E348B4A4FF09A
:1030B00000034FF00004C2E90C34884A4FF00003CB
:1030C0004FF00004C2E91034834BD3F8D051864B43
:1030D000D3E914341A4623467DA1D1E90001FDF756
:1030E000C5FD03460C46184621467F4BD3E91234F2
:1030F0001A462346FDF7D8FA03460C4618462146E1
:10310000794BD3E91E341A462346FDF7CFFA03461E
:103110000C4644EC173BB0EE470AF0EE670A05F0A8
:10312000C7FB54EC103B18462146FDF70FFF034642
:103130009D42C0F0AB82684B022283F8D921664BD6
:103140000022C3F8D021684BD3E91A34634AC2E99C
:103150001234624A4FF00003614CC2E916345F4AF0
:103160004FF000034FF00004C2E900345B4A4FF017
:1031700000035C4CC2E90A34584A4FF000034FF098
:103180000004C2E90434554A4FF000034FF0000434
:10319000C2E90634514A4FF000034FF00004C2E97F
:1031A0000E344E4A4FF000034FF00004C2E90C34D5
:1031B0004A4A4FF000034B4CC2E90234474A4FF0F1
:1031C00000034FF00004C2E908345FE2434A4FF0C5
:1031D0000003434CC2E91634404A4FF000034FF05D
:1031E0000004C2E900343D4A4FF000033D4CC2E9FF
:1031F0000A343A4A4FF000034FF00004C2E90434A5
:10320000364A4FF000034FF00004C2E90634334A57
:103210004FF000034FF00004C2E90E342F4A4FF084
:1032200000034FF00004C2E90C342C4A4FF00003B5
:103230002C4CC2E90234294A4FF000034FF000043D
:10324000C2E90834244BD3F8D041274B93ED127BCD
:10325000B0EE470AF0EE670A05F02AFB53EC102B9C
:1032600010461946FDF772FE03469C42C0F00E82DE
:10327000194B012283F8D921174B0022C3F8D02122
:10328000FFF750FC02E2184BD3E90E014FF00002A9
:10329000164BFDF729FE0346002B29D10E4B0022C9
:1032A00083F8D7210C4B032283F8D5210B4A4FF02A
:1032B00000034FF00004C2E90434084A4FF0000351
:1032C0004FF00004C2E90234E1E100BFAFF3008037
:1032D00000000000004CED4038110020D810002004
:1032E000008051400000F03F00000020000010402E
:1032F000914B93F8D731022B4FD0032B00F0E58090
:10330000012B40F007818D4A4FF000038C4CC2E93D
:1033100016348A4A4FF000038A4CC2E90034874AC7
:103320004FF00003874CC2E90A34844A4FF000038F
:103330004FF00004C2E90434804A4FF000034FF01C
:103340000004C2E906347D4A4FF000034FF0000448
:10335000C2E90234794A4FF000037A4CC2E90834DA
:10336000764A4FF000034FF00004C2E90E34734A6E
:103370004FF000034FF00004C2E90C346E4B0422FE
:1033800083F8D7216C4B0022C3F8D0216B4A4FF051
:1033900000036C4CC2E9103469E1684A4FF0000345
:1033A000674CC2E91634654A4FF000034FF0000441
:1033B000C2E90034614A4FF00003624CC2E90A34AA
:1033C0005E4A4FF000034FF00004C2E904345B4A48
:1033D0004FF000034FF00004C2E90634574A4FF0A3
:1033E00000034FF00004C2E90E34544A4FF00003CA
:1033F0004FF00004C2E90C34504A4FF00003514C26
:10340000C2E902344D4A4FF000034FF00004C2E914
:103410000834494BD3F8D0414B4B93ED127BB0EEBF
:10342000470AF0EE670A05F043FA53EC102B1046FA
:103430001946FDF78BFD03469C42C0F013813E4BBD
:10344000012283F8D721404BD3E91A343B4AC2E921
:1034500012343A4A4FF00003394CC2E91634374A65
:103460004FF00003374CC2E90034344A4FF00003F8
:10347000344CC2E90A34314A4FF000034FF00004E3
:10348000C2E904342D4A4FF000034FF00004C2E9B2
:1034900006342A4A4FF000034FF00004C2E9023418
:1034A000264A4FF00003274CC2E90834234A4FF064
:1034B00000034FF00004C2E90E34204A4FF000032D
:1034C0004FF00004C2E90C34CCE01B4BD3F8D041E0
:1034D0001D4B93ED187BB0EE470AF0EE670A05F03E
:1034E000E7F953EC102B10461946FDF72FFD034664
:1034F0009C42C0F0B980104B042283F8D7210E4BB8
:103500000022C3F8D0210D4A4FF000030D4CC2E950
:103510001034A9E0094A4FF000030A4CC2E9103404
:10352000FB7D002B12D0044B032283F8D721024BE2
:103530000022C3F8D02199E038110020D8100020D3
:10354000008051400000F03F000000204A4BD3F8BB
:10355000D0514A4BD3E914341A46234644A1D1E949
:103560000001FDF783FB03460C4618462146434BFA
:10357000D3E912341A462346FDF796F803460C4663
:10358000184621463D4BD3E918341A462346FDF729
:103590008DF803460C4618462146384BD3E91C34B7
:1035A0001A462346FDF782F803460C4644EC173BC7
:1035B000B0EE470AF0EE670A05F07AF954EC103BDA
:1035C00018462146FDF7C2FC03469D424ED32A4BC6
:1035D000022283F8D721284B0022C3F8D021274BA1
:1035E000D3E91A34264AC2E91234254A4FF00003BF
:1035F000244CC2E91634224A4FF000034FF0000475
:10360000C2E900341E4A4FF000031F4CC2E90A34DD
:103610001B4A4FF000034FF00004C2E90434184A7B
:103620004FF000034FF00004C2E90634144A4FF093
:1036300000034FF00004C2E90E34114A4FF00003BA
:103640004FF00004C2E90C340D4A4FF000030E4C59
:10365000C2E902340A4A4FF000034FF00004C2E905
:10366000083403E000BF12E000BF10E000BF0EE02E
:1036700000000000004CED40381100200000002048
:10368000D8100020008051400000F03F00BFBD4B2B
:10369000D3F8F040BC4BD3E9000101231D464FF0A5
:1036A00000024FF00003FDF71FFC0346002B01D082
:1036B00000231D46EBB21946204601F025F8B14B18
:1036C000D3F8A421B04B93ED147BB0EE470AF0EE93
:1036D000670A104600F012FFAA4BD3F80441AA4B28
:1036E000D3E90E0101231D464FF000024FF0000305
:1036F000FDF7FAFB0346002B01D000231D46EBB279
:103700001946204601F000F89E4BD3F8B8219E4B95
:1037100093ED127BB0EE470AF0EE670A104600F018
:10372000EDFE984BD3F8CC21974B93ED167BB0EE82
:10373000470AF0EE670A104600F0E0FE914BD3F81E
:103740001841914BD3E90C0101231D464FF00002B3
:103750004FF00003FDF7C8FB0346002B01D0002308
:103760001D46EBB21946204600F0CEFF854BD3F83C
:103770002C41854BD3E9040101231D464FF0000283
:103780004FF00003FDF7B0FB0346002B01D00023F0
:103790001D46EBB21946204600F0B6FF794BD3F830
:1037A0004041794BD3E9020101231D464FF000024D
:1037B0004FF00003FDF798FB0346002B01D00023D8
:1037C0001D46EBB21946204600F09EFF6D4BD3F824
:1037D00054416D4BD3E9060101231D464FF0000211
:1037E0004FF00003FDF780FB0346002B01D00023C0
:1037F0001D46EBB21946204600F086FF614BD3F818
:103800006841614BD3E90A0101231D464FF00002D4
:103810004FF00003FDF768FB0346002B01D00023A7
:103820001D46EBB21946204600F06EFF554BD3F80B
:103830007C41554BD3E9080101231D464FF000029E
:103840004FF00003FDF750FB0346002B01D000238F
:103850001D46EBB21946204600F056FF494BD3F8FF
:103860009041494BD3E9100101231D464FF000025E
:103870004FF00003FDF738FB0346002B01D0002377
:103880001D46EBB21946204600F03EFF3D4BD3E902
:1038900006013E4BD3E908341A462346FDF724FBC4
:1038A0000346002B05D1394BD3E90834354AC2E928
:1038B0000634344B1B69184600F002FD314B1B697E
:1038C00007F108010722184600F09EFC2D4BD3E9B2
:1038D0000E012E4BD3E906341A462346FDF704FBAE
:1038E0000346002B05D1294BD3E90634254AC2E90A
:1038F0000E34244B1B6B184600F0E2FC214B1B6B73
:1039000007F108010722184600F07EFC1D4BD3E9A1
:1039100016011E4BD3E904341A462346FDF7E4FA98
:103920000346002B05D1194BD3E90434154AC2E9EB
:103930001634144B1B6D184600F0C2FC114B1B6D66
:1039400007F108010722184600F05EFC0D4BD3E991
:103950001E010E4BD3E902341A462346FDF7C4FA82
:103960000346002B05D1094BD3E90234054AC2E9CD
:103970001E34044B1B6F184600F0A2FC014B1B6F5A
:1039800006E000BF38110020D81000200000002001
:1039900007F108010722184600F036FC124BD3E964
:1039A0002601124BD3E900341A462346FDF79CFA50
:1039B0000346002B05D10D4BD3E900340A4AC2E976
:1039C0002634094BD3F89030184600F079FC064BAA
:1039D000D3F8903007F108010722184600F014FCD4
:1039E00000BF1837BD46B0BD3811002000000020D0
:1039F00090B587B000AFC04B012283F8A020BE4B2A
:103A00000022C3F8A420BC4A4FF00003BB4CC2E91B
:103A10002E34B94B002283F8A020B94BD3E90C34E3
:103A2000B54AC2E92E34B74B7B61B34B002283F811
:103A3000A820B14B0122C3F8A4200021012000F0EE
:103A4000BBFD02467B691A61AB4B012283F8A820BB
:103A5000A94B012283F8C020A74B0022C3F8C42041
:103A6000A54A4FF00003A54CC2E93634A24B002210
:103A700083F8C020A24BD3E90A349F4AC2E9363406
:103A8000A14B7B619C4B002283F8C8209A4B0122FA
:103A9000C3F8C4200021002000F08EFD02467B699F
:103AA0001A61954B012283F8C820934B012283F8B9
:103AB000E020914B0022C3F8E4208F4B002283F8D2
:103AC000E020924B3B618C4B002283F8E8208A4B2C
:103AD0000122C3F8E4200121022000F06DFD02461E
:103AE0003B691A61844B012283F8E820824B012252
:103AF00083F89421804B0022C3F898217E4B00224A
:103B000083F89421824BFB607B4B002283F89C213D
:103B1000794B0122C3F898219FED731B9FED740B25
:103B2000062000F02FFC0246FB681A61724BD3F8A6
:103B3000A431184600F0D8FC6F4B012283F89C2179
:103B40006D4B012283F8F4206B4B0022C3F8F82060
:103B5000694B002283F8F4206E4B3B61664B0022D8
:103B600083F8FC20644B0122C3F8F82001210420D3
:103B700000F022FD02463B691A615F4B012283F887
:103B8000FC205D4B012283F8A8215B4B0022C3F887
:103B9000AC21594B002283F8A8215F4BFB60564BA8
:103BA000002283F8B021544B0122C3F8AC219FEDD1
:103BB0004E1B9FED4F0B052000F0E4FB0246FB6817
:103BC0001A614D4BD3F8B831184600F08DFC4A4BC2
:103BD000012283F8B021484B012283F8BC21464BD7
:103BE0000022C3F8C021444B002283F8BC214B4B78
:103BF000FB60414B002283F8C4213F4B0122C3F8F4
:103C0000C0219FED391B9FED3A0B032000F0BAFB5A
:103C10000246FB681A61384BD3F8CC31184600F0E5
:103C200063FC354B012283F8C421334B012283F816
:103C30000821314B0022C3F80C212F4B002283F8BE
:103C40000821374B3B612C4B002283F810212A4B73
:103C50000122C3F80C210121072000F0ADFC02462F
:103C60003B691A61244B012283F81021224B012267
:103C700083F81C21204B0022C3F820211E4B002278
:103C800083F81C21274B3B611B4B002283F8242126
:103C9000194B0122C3F820210121082000F08CFCDF
:103CA00002463B691A61144B012283F82421124B0E
:103CB000012283F83021104B0022C3F834210E4B2F
:103CC000002283F83021184B3B610B4B002283F814
:103CD0003821094B0122C3F834210121092000F0C9
:103CE0006BFC02463B6921E0000000000000000080
:103CF0000000000000409F40381100200000F0BF8D
:103D000000000020D8110020F81100201812002017
:103D1000CC1200202C120020E0120020F41200200F
:103D20004012002054120020681200201A61B24B89
:103D3000012283F83821B04B012283F84421AE4B95
:103D40000022C3F84821AC4B002283F84421AB4B3E
:103D50003B61A94B002283F84C21A74B0122C3F8F9
:103D6000482101210B2000F027FC02463B691A6123
:103D7000A14B012283F84C219F4B012283F858214B
:103D80009D4B0022C3F85C219B4B002283F85821F5
:103D90009B4B3B61984B002283F86021964B01229C
:103DA000C3F85C2101210A2000F006FC02463B69B1
:103DB0001A61914B012283F860218F4B012283F815
:103DC0006C218D4B0022C3F870218B4B002283F8AD
:103DD0006C218C4B3B61884B002283F87421864B0D
:103DE0000122C3F8702101210C2000F0E5FB0246FE
:103DF0003B691A61804B012283F874217E4B0122BA
:103E000083F880217C4B0022C3F884217A4B002266
:103E100083F880217C4B3B61774B002283F888211B
:103E2000754B0122C3F8842101210D2000F0C4FB51
:103E300002463B691A61704B012283F888216E4B60
:103E400001221A706C4B00225A606B4A4FF000033B
:103E50006E4CC2E90634684B00221A706C4BD3E9F1
:103E60000834654AC2E90634634BBB60624B0022EA
:103E70001A72614B01225A60142000F061F9024667
:103E8000BB681A610023FB715B4B1B69F979002247
:103E9000184600F0A9F9584B01221A72564B01221C
:103EA00083F82020544B00225A62534A4FF00003FB
:103EB000564CC2E90E34504B002283F82020544B5C
:103EC000D3E906344C4AC2E90E34524BBB604A4B2C
:103ED000002283F82820484B01225A62132000F068
:103EE0002FF90246BB681A610023FB71424B1B6B22
:103EF000F9790022184600F077F93F4B012283F848
:103F000028203D4B012283F840203B4B00225A647D
:103F1000394A4FF000033D4CC2E91634364B0022BB
:103F200083F840203A4BD3E90434334AC2E91634CB
:103F3000394BBB60304B002283F848202E4B0122C6
:103F40005A64122000F0FCF80246BB681A61002394
:103F5000FB71294B1B6DF9790022184600F044F9DA
:103F6000254B012283F84820234B012283F860204F
:103F7000214B00225A66204A4FF00003234CC2E92D
:103F80001E341D4B002283F86020214BD3E90234FC
:103F9000194AC2E91E34214BBB60174B002283F83B
:103FA0006820154B01225A66112000F0C9F802461C
:103FB000BB681A610023FB710F4B1B6FF97900225C
:103FC000184600F011F90C4B012283F868200A4BC7
:103FD000012283F88020084B0022C3F88420064A7F
:103FE0004FF00003094CC2E92634034B002283F84A
:103FF0008020074B14E000BF381100207C12002005
:1040000090120020A4120020B81200200000F0BF7F
:104010000000002058110020781100209811002085
:10402000D3E90034124AC2E92634124BBB60104B6C
:10403000002283F888200E4B0122C3F88420102030
:1040400000F07EF80246BB681A610023FB71084B42
:10405000D3F89030F9790022184600F0C5F8044BE7
:10406000012283F8882000BF1C37BD4690BD00BFE9
:1040700038110020B811002080B500AF1D48FEF7B0
:10408000C7FD1D48FEF7C4FD1C48FEF7F3FD1C48A4
:10409000FEF727FE1B48FEF7EDFD1B48FEF721FE4D
:1040A0001A48FEF71EFE1A48FEF7E4FD1948FEF70F
:1040B000E1FD1948FEF7DEFD1848FEF7DBFD184864
:1040C000FEF7D8FD1748FEF7D5FD1748FEF7D2FDDD
:1040D0001648FEF73DFE1648FEF73AFE1548FEF775
:1040E00037FE1548FEF734FE1448FEF731FE00BFD8
:1040F00080BD00BFD8110020F81100201812002048
:10410000CC1200202C120020E0120020F41200201B
:104110004012002054120020681200207C1200205F
:1041200090120020A4120020B812002038110020A4
:10413000581100207811002098110020B81100209B
:1041400080B586B000AF786026497A6813465B0078
:1041500013449B000B4409331B78002B27D107F134
:104160000803184603F07AF90323FB721D497A68A5
:1041700013465B0013449B000B441B6807F10802C5
:104180001146184603F07CF916497A6813465B001D
:1041900013449B000B44093303221A707A681346B8
:1041A0005B0013449B000F4A13447B6115E00D49EB
:1041B0007A6813465B0013449B000B4409331B7859
:1041C000032B08D17A6813465B0013449B00054A11
:1041D00013447B6101E000237B617B69184618373B
:1041E000BD4680BDC004002080B485B000AFF8603B
:1041F0000B467A60FB7200BF1437BD465DF8047B46
:10420000704700000000000090B58BB000AFF86070
:10421000B9601346FB71FB68FB61FB69002B3AD068
:10422000FB691B7A3B750023BB7500237B75FB691B
:104230001B680121184603F06BF9FB691868FB69DC
:104240005B6807F11402194603F082F9FB691A68EA
:10425000FB695B681946104603F096F9FB691A681A
:10426000FB695B681946104603F0B2F903467B838D
:104270007B8B07EE903AF8EE677A17EE900AFCF720
:1042800073FB0DA3D3E90023FCF7C6FB03460C46E2
:10429000C7E9083405E04FF000034FF00004C7E918
:1042A0000834BA68D7E90834C2E9003400BF2C37B3
:1042B000BD4690BDAFF30080100010001000F03E2E
:1042C00080B483B000AF786000BF0C37BD465DF8A6
:1042D000047B704780B483B000AF786000BF0C37B8
:1042E000BD465DF8047B704780B483B000AF786052
:1042F00000BF0C37BD465DF8047B704780B584B0C5
:1043000000AFF860B9601346FB71BB681F2B05D97D
:104310000D4B0E4AFF210E4804F05AFBFB68BA68A9
:1043200053F8223023F0807323F4E063FA79120209
:1043300002F4E06243EA0201FB68BA6843F8221023
:1043400000BF1037BD4680BD0CB40000DCB40000D7
:1043500018B4000080B483B000AF78600B46FB70E7
:104360007B681B6823F01802FB78DB0003F018035E
:104370001A437B681A6000BF0C37BD465DF8047BAA
:104380007047000090B58FB000AF786187ED020BE9
:1043900087ED001B524A7B695B01134411331B7884
:1043A000002B40F08780002387F82830002387F80F
:1043B0002930002387F82A308023FB62484A7B6932
:1043C0005B0113441868464A7B695B01134404335C
:1043D0001968434A7B695B01134410331B781A4602
:1043E000FFF78CFF3E4A7B695B01134408331B686F
:1043F00007F128021146184603F086F9384A7B690E
:104400005B01134408331B68DBB20022012118460C
:1044100003F0FEF9324A7B695B0113441133042235
:104420001A702F4A7B695B01134403F11802D7E924
:104430000234C2E9003402233B7600237B76284A0B
:104440007B695B0113441833D3E9003418462146D5
:10445000FCF77CFD0346FB61D7E90001FCF776FD24
:1044600003463B620023BB841D4A7B695B01134406
:1044700008331B681B4A52F823303B630021386B1A
:10448000FFF768FF164A7B695B011344083318681D
:10449000134A7B695B0113440C331B68DAB207F1E2
:1044A0001803194603F012FA7B695B010C4A1344A6
:1044B0007B630FE00A4A7B695B01134411331B786D
:1044C000042B05D17B695B01054A13447B6301E042
:1044D00000237B637B6B18463C37BD4690BD00BF15
:1044E0000002002024BD000080B483B000AF7860DB
:1044F00000BF0C37BD465DF8047B704790B58BB0AC
:1045000000AFF86087ED000BFB687B627B6A002BD5
:104510002CD07B6A5B7C042B28D102233B740023C4
:104520007B747B6AD3E9063418462146FCF70EFDFE
:1045300003467B61D7E90001FCF708FD0346BB6138
:104540000023BB837B6A9B680A4A52F823303B6294
:104550000021386AFFF7FEFE7B6A98687B6ADB6899
:10456000DAB207F11003194603F0B0F900BF2C3797
:10457000BD4690BD24BD000080B485B000AF78601A
:104580007B68FB60FB68002B06D0FB685B7C042B20
:1045900002D1FB6800225A7400BF1437BD465DF893
:1045A000047B704780B483B000AF786000BF0C37E5
:1045B000BD465DF8047B704780B590B000AF786071
:1045C0000B46FB70FB78002B27D107F12403002258
:1045D0001A605A609A60DA601A615A612D4A7B68E3
:1045E00052F833307B62012387F82830012387F8A3
:1045F00029304FF0FF333B6307F12403184603F0E3
:1046000057FA244A7B68DB00134401221A717B6845
:10461000DB00204A1344FB6336E0FB78012B31D1E9
:1046200007F10C0300221A605A609A60DA601A617E
:104630005A61184A7B6852F83330FB6001233B759E
:104640004FF0FF33BB6107F10C03184603F0A0FAEB
:10465000104A7B68DB00134402221A717B68292B05
:104660000AD97B682C2B07D80A4A7B6852F833306A
:104670000121184603F0C4FA7B68DB00054A1344A5
:10468000FB6301E00023FB63FB6B18464037BD462C
:1046900080BD00BF8400002080B586B000AF786088
:1046A0007B683B613B69002B0BD03B691B79012B7D
:1046B00007D13B691B68184603F0B0FA0346FB7547
:1046C00001E00023FB753B691B681B0ADBB2FB6042
:1046D0003B691B68DBB2BB60FB68022B02D1BB6885
:1046E000062B05D0FB68002B09D1BB68042B06D133
:1046F000FB7D002B0CBF01230023DBB2FB75FB7D90
:1047000018461837BD4680BD80B586B000AF7860CA
:104710000B46FB707B687B617B69002B2FD07B692C
:104720001B79022B2BD17B691B681B0ADBB23B6117
:104730007B691B68DBB2FB603B69012B05D1FB6821
:10474000162B08D0FB68152B05D03B69042B0FD125
:10475000FB681A2B0CD17B691A68FB78012B14BFFC
:1047600001230023DBB21946104603F049FA06E0A4
:104770007B691B68FA781146184603F041FA00BFBE
:104780001837BD4680BD80B485B000AF78607B68C7
:10479000FB60FB68002B0ED0FB681B79022B03D15A
:1047A000FB6800221A7106E0FB681B79012B02D11D
:1047B000FB6800221A7100BF1437BD465DF8047B08
:1047C000704780B400AFFEE780B483B000AF78607C
:1047D0007B68013B032B0BD801A252F823F000BFEA
:1047E000F1470000F1470000F1470000F1470000E9
:1047F00000BFFEE7704770470020002104460D46C9
:10480000084804F003F904F04BF92046294600F06B
:104810004DFF0548002101F07DF800F0D7FF04F0BE
:1048200001F90000458A000030B5000080B584B071
:1048300000AFF860B9601346FB71BB681F2B05D948
:104840000D4B0E4AFF210E4804F0C2F8FB68BA680F
:1048500053F8223023F0807323F4E063FA791202D4
:1048600002F4E06243EA0201FB68BA6843F82210EE
:1048700000BF1037BD4680BD6CB4000058B50000C5
:1048800078B4000080B483B000AF78600B46FB7052
:104890007B68FA781A7000BF0C37BD465DF8047B60
:1048A0007047000080B584B000AF3B4600221A601C
:1048B0005A609A60DA60064B3B6002237B723B468B
:1048C0001946002002F046FC00BF1037BD4680BDEF
:1048D00080F0FA0280B584B000AF074A3B1D07CADA
:1048E00083E807003B1D1946002002F081FC00BF51
:1048F0001037BD4680BD00BFCCB4000080B500AF0E
:104900002A210848FFF7BEFF002212210648FFF7C0
:104910008DFFFFF7C7FFFFF7DDFF044802F0BCFC87
:1049200000BF80BD00E007400090044040B500009B
:1049300080B582B000AF7860034800F0A0FA00BFF5
:104940000837BD4680BD00BF1842002098B500AFB3
:10495000094B0A4A1A600A4B0A4A1C1D13460FCB20
:1049600084E80F0000F0E1FA0246054B1A60064B9E
:10497000034A1A6000BF98BD184200202042002060
:10498000F841002030B500001042002080B586B00C
:1049900002AF87ED010A38600223FB60FFF7D6FF04
:1049A000164800F05CFA0346BB60154800F057FA61
:1049B0000346BB60002300930023FA6811491248A4
:1049C00000F08AFA0346BB600023104A0121104818
:1049D00000F0C3FA0346BB60D7ED017A9FED0D7A74
:1049E00067EE877AFCEEE77A17EE901A084800F037
:1049F000DBFA00BF1037BD4680BD00BF1842002063
:104A000010420020194A00002042002031490000D5
:104A1000D441002000007A4480B586B000AF7861B0
:104A2000184B1B681B68002B0CBF01230023DBB253
:104A30001A46154B1A7011E03B461449184600F00F
:104A400031FAFEF799F90F4B1B681B68002B14BF56
:104A500001230023DBB21A460D4B1A700A4B1B7858
:104A6000DBB2002BE8D1084B00221A70786900F005
:104A700011F8002000F060FA002318461837BD46F0
:104A800080BD00BFD8B40000800000201842002084
:104A90000C42002080B582B000AF7860074B012245
:104AA0001A60074B00221A70FFF7E6FA054800F07B
:104AB000E6F9002318460837BD4680BD3442002081
:104AC000800000201042002080B586B000AF7861E1
:104AD000396100F0FDFB00F0BCF80A4B1B680022B6
:104AE0001A60FEF785FF00209FED070AFFF74EFFD3
:104AF0003B460649184600F0D5F9002318461837FA
:104B0000BD4680BDD8B400006F12833A1042002029
:104B100080B500AF002002F083FD00BF80BD80B5EE
:104B200000AF012002F07CFD00BF80BD80B500AF6A
:104B3000022002F075FD00BF80BD80B500AF0320EC
:104B400002F06EFD00BF80BD80B500AF042002F012
:104B500067FD00BF80BD80B500AF052002F060FD9D
:104B600000BF80BD80B500AF062002F059FD00BF38
:104B700080BD80B500AF072002F052FD00BF80BDB0
:104B800080B500AF082002F04BFD00BF80BD80B5AE
:104B900000AF092002F044FD00BF80BD80B500AF2A
:104BA0000A2002F03DFD00BF80BD80B500AF0B20A4
:104BB00002F036FD00BF80BD80B500AF0C2002F0D2
:104BC0002FFD00BF80BD80B500AF0D2002F028FD95
:104BD00000BF80BD80B500AF0E2002F021FD00BFF8
:104BE00080BD80B500AF0F2002F01AFD00BF80BD70
:104BF00080B500AF002002F02BFD00BF80BD80B566
:104C000000AF002003F0B4FB00BF80BD80B500AF53
:104C1000012003F0ADFB00BF80BD80B500AF0220D6
:104C200003F0A6FB00BF80BD80B500AF032003F0FA
:104C30009FFB00BF80BD80B500AF042003F098FB50
:104C400000BF80BD80B500AF052003F091FB00BF21
:104C500080BD80B582B000AF02F0BAF90023FB71CD
:104C600006E0FB79184602F091FBFB790133FB71FA
:104C7000FB79042BF5D9FFF741FE00BF0837BD468D
:104C800080BD80B400AFFEE780B400AFFEE780B423
:104C900000AFFEE780B400AFFEE780B400AFFEE7F0
:104CA00080B400AFFEE780B400AFFEE780B400AF91
:104CB000FEE780B400AFFEE780B400AFFEE780B44B
:104CC00000AFFEE780B400AFFEE780B400AFFEE7C0
:104CD00080B400AFFEE780B400AFFEE780B400AF61
:104CE000FEE780B400AFFEE780B400AFFEE780B41B
:104CF00000AFFEE780B400AFFEE780B400AFFEE790
:104D000080B400AFFEE780B400AFFEE780B400AF30
:104D1000FEE780B400AFFEE780B400AFFEE780B4EA
:104D200000AFFEE780B400AFFEE780B400AFFEE75F
:104D300080B400AFFEE780B400AFFEE780B400AF00
:104D4000FEE780B400AFFEE780B400AFFEE780B4BA
:104D500000AFFEE780B400AFFEE780B400AFFEE72F
:104D600080B400AFFEE780B400AFFEE780B400AFD0
:104D7000FEE780B400AFFEE780B400AFFEE780B48A
:104D800000AFFEE780B400AFFEE780B400AFFEE7FF
:104D900080B400AFFEE780B400AFFEE780B400AFA0
:104DA000FEE780B400AFFEE780B400AFFEE780B45A
:104DB00000AFFEE780B400AFFEE780B400AFFEE7CF
:104DC00080B400AFFEE780B400AFFEE780B400AF70
:104DD000FEE780B400AFFEE780B400AFFEE780B42A
:104DE00000AFFEE780B400AFFEE784B080B582B0CC
:104DF00000AF07F1100C8CE80F003B69796A184688
:104E000000F0DAFF03467B607B6818460837BD4632
:104E1000BDE8804004B0704784B080B500AF07F1B2
:104E2000080C8CE80F00BB68F969184600F0E4FF35
:104E300003461846BD46BDE8804004B0704780B5C3
:104E400082B000AF786039607B684FF0FF3239681C
:104E5000184600F0DFFF78680837BD4680BD80B493
:104E600085B000AF78607B6801225A600123FB6047
:104E7000FB6818461437BD465DF8047B704780B563
:104E800084B002AF78607B681B687A6852680192D0
:104E90001A6900920FCBFFF7A8FF034618460837A0
:104EA000BD4680BD80B584B002AF786039603B6894
:104EB0001B683A68526801921A6900920FCBFFF79B
:104EC000ABFF3B685A687B6811461846FFF7B7FF8F
:104ED00078680837BD4680BD80B586B000AFF86001
:104EE000B9607A603B60FB68BA685A60FB687A68B0
:104EF0009A60FB680122DA603A68FB681A61FB6815
:104F00000433396A184600F005FD0246FB681A6052
:104F1000FB681B68002B14BF01230023DBB27B61FD
:104F20007B6918461837BD4680BD80B500AF00F0DC
:104F30003FFD0346184680BD80B584B000AF786061
:104F400000F036FD0346FB60F86800F03DFD0346C7
:104F5000BB6000BF1037BD4680BD80B586B000AFD6
:104F6000F8607A603B600B46FB72FB6803F10C0251
:104F7000FB689A60FB687A685A60FB680433F97AC8
:104F80003A68184600F014FE0246FB681A60FB6897
:104F90001B68002B14BF01230023DBB27B617B69FC
:104FA00018461837BD4680BD80B584B000AF786024
:104FB00039607B681B683968184600F02BFE034691
:104FC000FB60FB6818461037BD4680BD80B584B0D5
:104FD00000AF7860114B1B68002B02D10F4B104AB9
:104FE0001A600E4B1B68FB600C4B1A687B681344FD
:104FF0000C4A934207D903F00FFD02460C231360BD
:105000004FF0FF3306E0054B1A687B681344034AF0
:105010001360FB6818461037BD4680BD384200203B
:105020000000FF1F0000002080B489B000AF284BB3
:10503000FB60284A284B9A4216D00023FB610AE005
:10504000254AFB6952F823202249FB6941F82320B5
:10505000FB690133FB61FB689B08FA699A42EFD355
:105060001E4B1C4A9A6002E01C4B1B4A9A601C4B68
:10507000BB611C4B7B611C4BBB60BA687B69D31A5C
:10508000FB6107E07A69531C7B61BB69591CB961FC
:1050900012781A70FB695A1EFA61002BF2D1134B79
:1050A0003B61134B7B607A683B69D31AFB6104E078
:1050B0003B695A1C3A6100221A70FB695A1EFA6158
:1050C000002BF5D100BF2437BD465DF8047B704747
:1050D00000000000000000000000000000ED00E003
:1050E00000000020CCC8000084D90000B8100020C7
:1050F000B043002080B400AF6B4BD3F888306A4ACD
:1051000043F47003C2F88830684B4CF22052DA81C5
:10511000664B4DF62812DA81644B4FF4E9721A801F
:10512000634B1B78DBB203F00103002B0FD0614B04
:105130009B78DBB203F00803002B2ED05D4B9B78ED
:10514000DBB25C4A43F00803DBB2937025E05A4BB4
:1051500003F581531C331B68574943F0005201F596
:1051600081531C331A60554B1B6903F48073002B69
:1051700013D1524B1B6923F47C53504A43F44073C0
:1051800013614E4B1B694D4A43F4807313614B4BC3
:105190001B694A4A23F400731361494B2A221A708F
:1051A000454B03F5825304334FF08A721A60424B29
:1051B0001B6823F44023404A43F4002313603E4B12
:1051C00003F5805304331B6823F440333A4943F416
:1051D000803201F5805304331A60374B03F5815355
:1051E00018331B68344943F4007201F581531833B6
:1051F0001A60344B9B6C334A23F0807323F4E063D2
:105200009364314B00221A722F4B5B78DBB223F090
:105210006003DBB22C4A43F02003DBB253702B4B0C
:1052200080221A70284B00221A73274BBA221A7058
:1052300000BF254B9B79DBB203F01003002BF8D1A4
:10524000214BDB78DBB2204A03F01F03DBB2D370C3
:105250001D4B13221A711C4B18225A711A4B5B7981
:10526000DBB2194A43F04003DBB2537100BF164B67
:105270009B79DBB203F04003002BF8D0124B1B7874
:10528000DBB2114A03F03F03DBB2137000BF0E4BD9
:105290009B79DBB203F00C030C2BF8D100BFBD46A9
:1052A0005DF8047B704700BF00ED00E00020054082
:1052B00000F0074000D007400070044000D00340D9
:1052C00000E00740009004400040064000500640C7
:1052D00080B483B000AF964B1B78DBB203F0C00301
:1052E000002B40F0D280924B5B79DBB203F040039D
:1052F000002B40F0AD808E4B1B78DBB203F0040333
:10530000002B4ED18A4B1B7BDBB203F00303002B37
:1053100002D0012B03D006E0864B7B6006E04FF401
:1053200000437B6002E0844B7B6000BF804B5B7876
:10533000DBB203F03003002B23D07D4B1B7BDBB2B1
:1053400003F00303012B1CD0794B1B78DBB203F075
:105350003803302B05D0382B07D14FF4C0637B8046
:105360000EE04FF4A0637B800AE0714B1B78DBB248
:10537000DB0803F00703202202FA03F37B8000BF5F
:1053800009E06B4B1B78DBB2DB0803F0070301225B
:1053900002FA03F37B807B887A68B2FBF3F37B60CD
:1053A00002E04FF400437B60614BDB78DBB203F03B
:1053B000E003602B29D0602B06D8202B17D0402B80
:1053C0001CD0002B0CD09DE0A02B2CD0A02B02D801
:1053D000802B21D096E0C02B2CD0E02B31D091E057
:1053E0007A6813469B001344DB017B608AE07A688D
:1053F00013469B0013441B027B6083E07A681346CC
:105400001B019B1ADB017B607CE07A6813469B00E2
:1054100013445B027B6075E07B684FF4377202FBDC
:1054200003F37B606EE07B684FF4B76202FB03F32B
:105430007B6067E07B6840F6950202FB03F37B60CC
:1054400060E07B6840F6713202FB03F37B6059E059
:10545000374B1B79DBB29BB203F01F039BB20133C6
:105460007B807B88334AB2FBF3F37B60304B5B7904
:10547000DBB29BB203F01F039BB218337B807A88A8
:105480007B6802FB03F37B603CE0294B1B78DBB2BB
:1054900003F0C003402B1AD1254B5B78DBB203F03D
:1054A0000103002B03D14FF400437B602AE0204B23
:1054B0001B7ADBB25B0803F00703012202FA03F355
:1054C0007B807B881D4AB2FBF3F37B601AE0184BAC
:1054D0001B78DBB203F0C003802B22D1144B1B7B63
:1054E000DBB203F00303002B02D0012B03D006E054
:1054F000104B7B6006E04FF400437B6002E00E4BF4
:105500007B6000BF0E4B03F5825304331B681B0FF7
:1055100003F00F0301337A68B2FBF3F3094A136017
:1055200000E000BF0C37BD465DF8047B704700BF4C
:105530000040064080F0FA02006CDC0200093D00E9
:10554000007004400007002000B5DFF80CC000DF49
:10555000DFF808C000DFFEE7B9580000D1580000AE
:105560002DE9F041334C237853B1334B1B68FF22B4
:105570009A70324A0020012310702370BDE8F08138
:105580002F4B3048196800F055FD10B18520BDE85B
:10559000F08101F005FC284B21781B68FF229A70EE
:1055A0000029E6D1284A1368002B40D0556845B140
:1055B0002A78002A39D1191D890089B2284600F0BD
:1055C000F9FD224B224A1E68156066B35D68EA1C2D
:1055D000062A28D8DF68B7B139461A4800F038FDE6
:1055E000804600B3291D41EA072130460023424688
:1055F00001F06CFA054670B94146124800F050FDC2
:10560000144B1D60B5E7291D30463B463A4601F074
:105610005DFA054638B1104B104A013D53F825504C
:10562000AB6A5A63ECE70025EAE70D46C9E71D4679
:10563000C7E700BF084300204C4300200943002077
:105640000CB50000D835002024B5000014B50000CA
:10565000CC410020A84100209C4100204955000079
:1056600038B5104C207808B1002038BD0E4D2B689D
:1056700093F8241001F0AEF92B68DA78FF2A08D0ED
:105680006A68094952B101F001FC0123237000202E
:1056900038BD9A6A203282F30988F1E781E80C006C
:1056A000F1E700BF094300204C4300202DE9F04101
:1056B000EFF3058414B18220BDE8F081EFF3148488
:1056C000E40704D5DFF800C100DFBDE8F081334C0A
:1056D000237853B1324B1B68FF229A70314A002065
:1056E000012310702370BDE8F0812F4B2F481968FB
:1056F00000F0A0FC10B18520BDE8F08101F050FB66
:10570000274B21781B68FF229A700029E6D1284A8E
:105710001368002B40D0556845B12A78002A39D14A
:10572000191D890089B2284600F044FD214B224A08
:105730001E68156066B35D68EA1C062A28D8DF6813
:10574000B7B13946194800F083FC804600B3291DE3
:1057500041EA072130460023424601F0B7F90546E9
:1057600070B94146114800F09BFC144B1D60B5E731
:10577000291D30463B463A4601F0A8F9054638B1A6
:105780000F4B104A013D53F82550AB6A5A63ECE7C2
:105790000025EAE70D46C9E71D46C7E70843002094
:1057A0004C430020094300200CB50000D8350020F0
:1057B00024B5000014B50000CC410020A841002011
:1057C0009C410020495500006155000010B588B08B
:1057D000EFF3058414B1822008B010BDEFF31484F8
:1057E00004F00304022C1DD0032C14D0012C16D07D
:1057F00008AC84F309880F4C2478E40716D50224FA
:1058000084F31488BFF34F8FBFF36F8FDFF828C086
:1058100000DF08B010BD074C2478E407F6D5FF2060
:1058200008B010BD034C2478E407EFD4032484F3BC
:105830001488E7E7FCB4000061560000002833D06C
:10584000F8B5066876B34768FB1C062B2AD8C268F1
:1058500004460D46BAB11146144800F0F9FB06465D
:1058600000B36268E1682068043242EA01212B46F5
:10587000324601F02BF9044660B931460B4800F07E
:105880000FFC2046F8BD0B463046391D01F01EF9CD
:10589000044638B1013C064B064A53F82400836A9B
:1058A0005A63F8BD0020F8BD00207047D8350020AD
:1058B0009C4100204955000008B501F083F818B15B
:1058C0000138024B53F8200008BD00BF9C41002066
:1058D00098B1830711D103787BB9C18C10B571B928
:1058E000C0780C4601F07AF9FF280ED01CB1214691
:1058F000074800F0D5FB002010BD80207047C46A27
:10590000C07801F06BF9FF28F0D1812010BD00BFF5
:10591000D8350020F8B5EFF305846CBBEFF31484A1
:10592000E40702D41D4C24781CB1DFF880C000DFEE
:10593000F8BD08B30668FEB14768FB1C062B1BD8F0
:10594000C2680D460446CAB11146154800F080FBF6
:10595000064688B16268E1682068043242EA0121A3
:105960002B46324601F0B2F8044678B931460C486D
:1059700000F096FB2046F8BD0020F8BD0B463046EF
:10598000391D01F0A3F804460028F5D0601E054B30
:10599000054A53F82000836A5A63F8BD0943002082
:1059A000D83500209C410020495500003D5800009A
:1059B00010B5EFF305841CB9DFF808C000DF10BD97
:1059C000002010BDB958000010B5EFF305840CB1EC
:1059D000822010BDDFF804C000DF10BDD1580000E8
:1059E00098B130B404689CB143689BB101290DD8CB
:1059F000094C246864B11C7944B9012558611C60C4
:105A000059711A611D71184630BC70470020FBE7C0
:105A10002046F9E71846F7E7A8410020820703D19E
:105A200010B119B98620704780207047F8B52B4B0C
:105A30001A68002312F1FF3643F1FF3704464FF492
:105A40007A70E0FB016730463946FBF79FFA23790D
:105A5000012B10D0022B0CD1214D2B684BB19C4255
:105A600037D0194602E0944226D011460A68002A2F
:105A7000F9D18120F8BD1A4DE06002222B68227115
:105A80005BB19968884204D20EE0916881420DD8DA
:105A900013461A68401A002AF7D10022A06022603B
:105AA000A3B11C600020F8BD1A460023A0609168D5
:105AB0002260081A9060F3E722680A602268002AD0
:105AC000DED09668A16831449160D9E72C60184611
:105AD000F8BD22682A601346F1E700BF00B5000058
:105AE0000C430020830704D130B143690169186871
:105AF0007047002001467047014670472DE9F04F7E
:105B0000294F3C6883B054B3A668DFF8A080013EFB
:105B1000A660B9464FF0000A0EBBD8F800302568E1
:105B20003D6023B193F800B0BBF1010F02D0042017
:105B3000FEF74AFE1846019300F09EFB019B0028E9
:105B4000F5D01846214600F09BFB6379012B09D064
:105B500084F804B01DB1AE682C46002EDDD003B031
:105B6000BDE8F08FD9F80000E26858B18168914231
:105B700004D90DE0996891420CD818460368521A6E
:105B8000002BF7D1C4F800A0A26050B10460E1E797
:105B900003463046A260996823608A1A9A600028FA
:105BA000F4D13C60D6E700BF0C430020CC4100207C
:105BB00030B5EFF3058404BBEFF31484E40702D49B
:105BC000114C24781CB1DFF848C000DF30BD98B11B
:105BD0000368A3B1436893B101290CD80B4D2D681C
:105BE0007DB11D793DB9012459711C7158611D6049
:105BF0001A61184630BD204630BD002030BD184621
:105C000030BD284630BD00BF09430020A841002018
:105C1000E159000010B5EFF305840CB1822010BDEE
:105C2000DFF804C000DF10BD1D5A000008B50C4E9F
:105C30003568EFF305844FF0FF312846002CF8D18A
:105C4000DFF820C000DF1028F2D10846DFF818C0C6
:105C500000DF04460028EBD00846A047E8E700BF75
:105C6000CC4100203D5E0000E55A000078B183077A
:105C70000DD103785BB90B0C1B0443B910B50B466F
:105C8000048BC17898B200F015FD204610BD4FF08E
:105C90000040704778B183070DD103785BB90B0CD6
:105CA0001B0443B910B50B46048BC17898B200F0C1
:105CB0002DFD204610BD4FF0004070472DE9F0410A
:105CC0004FEA10484FEA0848B8F1000F37D10D46A7
:105CD000044698B180B2002937D1012200F0C4FCFB
:105CE00002284FD0002D0CBF00234023002425465E
:105CF000184641462A462B46BDE8F081002938D097
:105D00004B1C4CD0294B994244D8294B1A684FF66A
:105D1000FE714FF47A73501E03FB0505B5FBF2F5D7
:105D20008D423AD900224FF6FF7000F09DFC022808
