:1000000000000020F5040000A3430000A943000005
:10001000AF430000B5430000BB43000000000000F8
:100020000000000000000000000000006505000066
:10003000C1430000000000000B0600006B0600003A
:10004000314200003F4200004D4200005B42000090
:1000500069420000774200008542000093420000A0
:10006000A1420000AF420000BD420000CB420000B0
:10007000D9420000E7420000F542000003430000BF
:1000800011430000C7430000CD430000D3430000EC
:10009000D9430000DF430000E5430000EB430000CC
:1000A000F1430000F7430000FD430000034400005B
:1000B000094400000F440000154400001F430000E5
:1000C0001B4400002D430000214400003B4300007E
:1000D00027440000494300002D4400003344000041
:1000E000394400003F440000454400004B440000F8
:1000F00051440000574400005D4400006344000088
:1001000005050000050500000505000005050000C7
:10011000694400006F440000754400007B44000007
:1001200081440000874400008D4400009344000097
:10013000994400009F440000A5440000AB44000027
:10014000B1440000B744000057430000BD44000024
:1001500065430000C3440000C9440000CF440000D0
:10016000D5440000DB440000E1440000E744000007
:10017000ED440000F3440000F9440000FF44000097
:100180000545000005050000050500000505000007
:100190000505000005050000050500000505000037
:1001A0000505000005050000050500000505000027
:1001B0000505000005050000050500000505000017
:1001C0000505000005050000050500000505000007
:1003F000050500000505000005050000FFFFFFFFE3
:10040000FFFFFFFFFFFFFFFFFFFFFFFFFEFFFFFFFD
:1004400010B5054C237833B9044B13B10448AFF30E
:1004500000800123237010BD680E00200000000002
:1004600054B4000008B5034B1BB103490348AFF374
:10047000008008BD000000006C0E002054B4000095
:10048000154B002B08BF134B9D46A3F5803A002166
:100490008B460F461348144A121A07F0F1FF0F4B10
:1004A000002B00D098470E4B002B00D0984700201F
:1004B000002104000D000D48002802D00C4807F070
:1004C000BDFC07F005FD2000290003F08DFE07F0BC
:1004D000C1FC00BF00000800000000200000000078
:1004E000193F0000680E0020F04000203D7E000013
:1004F000757E000072B604F08DF904F025F962B63D
:10050000FFF7BEFFFFF7FEBF80F309887047EFF3E8
:1005100009807047684680F309885A480078C00708
:1005200014BF0220032080F314887047DFF858C1FD
:10053000EFF305831B0618BF6047EFF31483DB0757
:1005400008BF604700DF7047DFF840C1EFF3058365
:100550001B0618BF6047EFF31483DB0708BF604733
:1005600000DF7047EFF30980816911F8021CE1BBDD
:1005700090E80F1010B5E047BDE81040EFF3098C8C
:100580008CE80700424B93E80600914208BF704791
:1005900041B91EF0100F16D13E49086820F0010045
:1005A000086010E01EF0100F06BF2CED108A01202D
:1005B000002081F825002CE9F00FC1F828C00CB408
:1005C00005F006FD0CBC1A60D2F828C0BCE8F00F9C
:1005D00092F8250000280EBF6FF0020E6FF0120E89
:1005E000BCEC108A8CF30988704710B52A4A12684F
:1005F000914209D8294C54F8214090E80F10A047A7
:10060000EFF3098C8CE80F0010BD10B505F064FC09
:10061000BDE810401E4B93E80600914208BF7047AA
:10062000EFF3098C1EF0100F06BF2CED108A01208D
:10063000002081F825002CE9F00FC1F828C00CB487
:1006400005F0C6FC0CBC1A60D2F828C0BCE8F00F5C
:1006500092F8250000280EBF6FF0020E6FF0120E08
:10066000BCEC108A8CF30988704710B505F092FC39
:10067000FFF7CEBF10B505F08BFC05F08BFCFFF744
:10068000C7BF0000F4A800005D58000079580000C2
:100690008C40002034EF00E000000000FCFFFFFF72
:1006A00081F0004102E000BF83F0004330B54FEA23
:1006B00041044FEA430594EA050F08BF90EA020F90
:1006C0001FBF54EA000C55EA020C7FEA645C7FEA23
:1006D000655C00F0E2804FEA5454D4EB5555B8BF46
:1006E0006D420CDD2C4480EA020281EA030382EAB7
:1006F000000083EA010180EA020281EA0303362D49
:1007000088BF30BD11F0004F4FEA01314FF4801C1B
:100710004CEA113102D0404261EB410113F0004F2D
:100720004FEA03334CEA133302D0524263EB4303E4
:1007300094EA050F00F0A780A4F10104D5F1200E82
:100740000DDB02FA0EFC22FA05F2801841F10001DD
:1007500003FA0EF2801843FA05F359410EE0A5F1B1
:1007600020050EF1200E012A03FA0EFC28BF4CF0E2
:10077000020C43FA05F3C01851EBE37101F0004598
:1007800007D54FF0000EDCF1000C7EEB00006EEBA5
:100790000101B1F5801F1BD3B1F5001F0CD349082F
:1007A0005FEA30004FEA3C0C04F101044FEA445286
:1007B00012F5800F80F09A80BCF1004F08BF5FEA0D
:1007C000500C50F1000041EB045141EA050130BDED
:1007D0005FEA4C0C404141EB010111F4801FA4F190
:1007E0000104E9D191F0000F04BF01460020B1FAE5
:1007F00081F308BF2033A3F10B03B3F120020CDA1D
:100800000C3208DD02F1140CC2F10C0201FA0CF0FA
:1008100021FA02F10CE002F11402D8BFC2F1200C5F
:1008200001FA02F120FA0CFCDCBF41EA0C01904015
:10083000E41AA2BF01EB0451294330BD6FEA04045E
:100840001F3C1CDA0C340EDC04F11404C4F1200249
:1008500020FA04F001FA02F340EA030021FA04F35B
:1008600045EA030130BDC4F10C04C4F1200220FAB2
:1008700002F001FA04F340EA0300294630BD21FAF0
:1008800004F0294630BD94F0000F83F4801306BFB6
:1008900081F480110134013D4EE77FEA645C18BFAA
:1008A0007FEA655C29D094EA050F08BF90EA020F41
:1008B00005D054EA000C04BF1946104630BD91EA39
:1008C000030F1EBF0021002030BD5FEA545C05D13C
:1008D0004000494128BF41F0004130BD14F580047B
:1008E0003CBF01F5801130BD01F0004545F0FE41EF
:1008F00041F470014FF0000030BD7FEA645C1ABF24
:10090000194610467FEA655C1CBF0B46024650EA5A
:10091000013406BF52EA033591EA030F41F4002186
:1009200030BD00BF90F0000F04BF0021704730B50C
:100930004FF4806404F132044FF000054FF00001E1
:1009400050E700BF90F0000F04BF0021704730B5A2
:100950004FF4806404F1320410F0004548BF404277
:100960004FF000013EE700BF42004FEAE2014FEACC
:1009700031014FEA02701FBF12F07F4393F07F4FA7
:1009800081F06051704732F07F4208BF704793F0AA
:100990007F4F04BF41F40021704730B54FF46074BD
:1009A00001F0004521F000411CE700BF50EA0102C0
:1009B00008BF704730B54FF000050AE050EA010269
:1009C00008BF704730B511F0004502D5404261EBD9
:1009D00041014FF4806404F132045FEA915C3FF41A
:1009E000D8AE4FF003025FEADC0C18BF03325FEAB7
:1009F000DC0C18BF033202EBDC02C2F1200300FA68
:100A000003FC20FA02F001FA03FE40EA0E0021FA8C
:100A100002F11444BDE600BF4FF0FF3C06E000BF0A
:100A20004FF0010C02E000BF4FF0010C4DF804CD77
:100A30004FEA410C7FEA6C5C4FEA430C18BF7FEA37
:100A40006C5C1BD001B050EA410C0CBF52EA430C65
:100A500091EA030F02BF90EA020F0020704710F1E5
:100A6000000F91EA030F58BF994208BF90422CBF74
:100A7000D8176FEAE37040F0010070474FEA410C6D
:100A80007FEA6C5C02D150EA013C07D14FEA430C8B
:100A90007FEA6C5CD6D152EA033CD3D05DF8040BFC
:100AA000704700BF8446104662468C46194663462E
:100AB00000E000BF01B5FFF7B7FF002848BF10F105
:100AC000000F01BD4DF808EDFFF7F4FF0CBF01204A
:100AD00000205DF808FB00BF4DF808EDFFF7EAFFC6
:100AE00034BF012000205DF808FB00BF4DF808ED81
:100AF000FFF7E0FF94BF012000205DF808FB00BF76
:100B00004DF808EDFFF7CEFF94BF012000205DF8FF
:100B100008FB00BF4DF808EDFFF7C4FF34BF01200C
:100B200000205DF808FB00BF4A0011D212F5001248
:100B300011D20DD56FF47873B3EB62520ED44FEA35
:100B4000C12343F0004343EA505323FA02F07047B5
:100B50004FF00000704750EA013002D14FF0FF30F3
:100B600070474FF00000704753B94AB9002908BFD9
:100B700000281CBF4FF0FF314FF0FF3001F0F8B8F4
:100B8000ADF1080C6DE904CE00F006F8DDF804E0E4
:100B9000DDE9022304B070472DE9F047089E0446C2
:100BA0008846002B4BD18A42154667D9B2FA82F2A9
:100BB0004AB1C2F1200701FA02F320FA07F7954083
:100BC00047EA030894404FEA154E230CB8FBFEF7A2
:100BD0001FFA85FC0EFB178843EA084307FB0CF15C
:100BE000994209D9EB1807F1FF3080F01B81994237
:100BF00040F21881023F2B445B1AA4B2B3FBFEF013
:100C00000EFB103344EA034400FB0CFCA44509D955
:100C10002C1900F1FF3380F00781A44540F20481D4
:100C200002382C4440EA0740A4EB0C0400271EB114
:100C3000D4400023C6E900433946BDE8F0878B4223
:100C400009D9002E00F0EB800027C6E900013846E4
:100C50003946BDE8F087B3FA83F7002F47D18B42BE
:100C600002D3824200F2FA80841A61EB030301206E
:100C70009846002EE0D0C6E90048DDE702B9FFDE65
:100C8000B2FA82F2002A40F08F80491B4FEA154EDB
:100C90001FFA85F80127B1FBFEFC230C0EFB1C118B
:100CA00043EA014308FB0CF1994207D9EB180CF118
:100CB000FF3002D2994200F2CD808446591AA3B285
:100CC000B1FBFEF00EFB101443EA044408FB00F8ED
:100CD000A04507D92C1900F1FF3302D2A04500F23C
:100CE000B6801846A4EB080440EA0C409FE7C7F121
:100CF000200CBB4022FA0CFE4EEA030E01FA07F468
:100D000020FA0CF521FA0CF34FEA1E482543B3FBF9
:100D1000F8F92C0C08FB19331FFA8EFA44EA034346
:100D200009FB0AF49C4202FA07F200FA07F10BD918
:100D30001EEB030309F1FF3080F087809C4240F2F4
:100D40008480A9F1020973441B1BADB2B3FBF8F018
:100D500008FB103345EA034400FB0AFAA24508D910
:100D60001EEB040400F1FF336BD2A24569D90238AF
:100D7000744440EA0940A0FB0289A4EB0A044C45F4
:100D8000C2464B4654D351D0002E69D0B1EB0A0570
:100D900064EB030404FA0CFCFD40FC404CEA05053E
:100DA000C6E90054002747E7C2F1200320FA03F701
:100DB000954001FA02F021FA03F34FEA154E384349
:100DC000010CB3FBFEF71FFA85F80EFB173341EA5F
:100DD000034107FB08F38B4204FA02F407D96918B0
:100DE00007F1FF3C2FD28B422DD9023F2944CB1A69
:100DF00081B2B3FBFEF00EFB103341EA034100FB6E
:100E000008F38B4207D9691800F1FF3C17D28B42D7
:100E100015D902382944C91A40EA07473BE7374643
:100E2000304609E70746E7E61846FBE64145ABD200
:100E3000B8EB020A69EB0E0201381346A4E76046DC
:100E4000E9E7184695E76746D1E781467CE702382F
:100E50002C4447E7ACF1020C2B442FE7384608E757
:100E60003746E9E603685A004CBF43F0004323F0DD
:100E700000431844704700BF61B32DE9F84F01F1FA
:100E8000FF3A90460646D146002707EB090404EBDB
:100E9000D4746410E50071190846FFF7E3FFA2451A
:100EA000834605F10800304409D0FFF7DBFFC34556
:100EB00000F1FF3005D8404509D2671CE5E7C3457E
:100EC00005D9A74202D004F1FF39DEE70021084628
:100ED000BDE8F88F08467047012807D0022807D0E0
:100EE000044B00280CBF184600207047024870478A
:100EF00002487047C5150000C9150000CD15000057
:100F000030B5254B83B004468D1E4BB301A928464E
:100F1000AFF30080F0B101992A46FFF7ADFF01461B
:100F2000C0B1FFF79FFF4B68A064012B2ED0002BB0
:100F300001F1040026DBFFF795FF0023C4E913034A
:100F40000368002B12DBFFF78DFF0023206118469A
:100F500003B030BD002323610923184603B030BD20
:100F60000E490F48091AC9100191D5E7C3F3036070
:100F7000FFF7B2FF002814BF0023092320611846A1
:100F800003B030BD0123C4E91303D9E70023236173
:100F90000523184603B030BD00000000B0B80000C3
:100FA00058B600000368DA0710B5044606D49B075C
:100FB00000F1480009D500F05FFC2368590709D506
:100FC0001A070ED5DB0613D510BD00F04DFC2368C3
:100FD0005907F5D404F1D00000F056FC23681A0735
:100FE000F0D404F5A87000F057FC2368DB06EBD4BE
:100FF00004F5E870BDE8104000F092BC036803B14E
:1010000003441846704700BF09207047704700BF6F
:1010100070B504460D4608E02B6C63612A462369CF
:10102000214601209847082808D1296C2046FFF75F
:1010300067FF06460028EFD006F0DAFE0728FBD14E
:101040003046296CFFF7E2FF281D00F001FC00BFCD
:101050002DE9F0470C1D054617460FCCADF5727D06
:1010600003AE0FC60FCC0FC60FCC0FC694E80F000F
:1010700002ACD5F80C80D5F8189086E80F00002354
:10108000236021E0236C6B614FF4F07221467AA853
:1010900000F070FE2B697AAA294630469847889B53
:1010A000CDE900498246636431462B462A46012039
:1010B000C0470746F8B94FF4F0727AA9204600F00D
:1010C00059FEBAF1080F1CD1216C2846FFF718FF12
:1010D000002F08BF0926074618BF0A260028D1D0CE
:1010E000A36B46F01001CDE900492A466364012054
:1010F0002B46C04700B1092738460DF5727DBDE883
:10110000F087BAF1070FF6D13846216CFFF77EFF62
:1011100003A800F09DFB00BF406C7047F0B5CB6B9F
:101120000B640D1D0F4606460FCDF9B001AC0FC480
:101130000FCD0FC40FCD0FC495E80F004FF0FF3552
:1011400084E80F00009506E033696A463146984707
:101150000828044608D110993046FFF7D1FE002830
:10116000F2D0092079B0F0BD6846FFF71BFF062CCE
:10117000F7D139463046FFF74BFF00BF30B4DD6B87
:10118000C160826119461D64002230BC60E700BF67
:1011900070B5C66843690B64BEB903690A46044664
:1011A0000D46014602209847072807D0082803D19A
:1011B00029462046FFF72CFF06F01AFE3046296C20
:1011C000FFF724FF281D00F043FB0122FFF740FF3B
:1011D00006F00EFEC2681AB1CA6B0A64002237E735
:1011E0009CE700BF704700BF836813B10146012030
:1011F00018477047042907D8DFE801F003080608FC
:1012000008000BB90F2A03D902207047012070474C
:1012100000EB820218465368009A1360704700BFC3
:1012200010B584B0002303AC0A4600941946FFF7BA
:10123000E1FF039804B010BD042907D8DFE801F0EE
:101240000308060808000BB90F2A03D902207047CB
:101250000120704700EB8200009A12684260184635
:10126000704700BF10B584B004AC002344F8042DCF
:101270000A4600941946FFF7DFFF04B010BD00BF17
:10128000F0B5D36B1364151D07460E460FCDADF5B3
:101290000F7D17AC0FC40FCD0FC40FCD0FC495E851
:1012A0000F004FF0FF3584E80F00169510E016A8E8
:1012B000FFF7D8FF314616A8B84716AA694678B98D
:1012C000049B08209847052804460AD0092807D01F
:1012D00026996846FFF714FE6A460C210028E6D0DE
:1012E000092416A8FFF75EFE20460DF50F7DF0BD20
:1012F0002DE9F04F0D46C96C89B00C1D164600F063
:10130000030B0A6806941F46002B68D0130CD9B251
:1013100012048DF81D30022304EB810405928DF830
:101320001C302B6DBBF1020F08BFAC6B13F0010337
:1013300046D1019300F008030093D4F80090B9F16E
:10134000000F00F0F380022F45D0B4F80090B4F8FD
:1013500002800434AB6C28F0010A0F2130469A4415
:10136000FFF75EFF824534D829F0010353448342DE
:1013700094BF002001204FEA480808F0020809F055
:10138000010948EA0908B8F1010F3AD031D3B8F1A0
:10139000020F1AD1236823F0004ABBF1000F66D177
:1013A00030B1009A002A6CD0BAF1000F00F09080A2
:1013B000002B00DA04340AF1010304EB8304BCE7D8
:1013C000304605A900F046FB78B1092009B0BDE818
:1013D000F08F0020CFE7D4F804800834BAE7120277
:1013E00003230592ADF81C309BE7082009B0BDE847
:1013F000F08FBBF1000F02D0002840F0B48004341D
:101400009BE7BBF1000F18D1A8B1D4E90023991CC8
:101410004FEAD272D9D005F158010133049100F09E
:10142000B580201DFFF7EAFD04AB01462846AFF367
:101430000080002867D108347FE70D213046D5F8B9
:101440002080FFF7EDFE8045F5D1AB6A9C42F2D1DA
:101450002046FFF707FD0F2102463046FFF702FF47
:1014600030462A460021FFF7FDFE0720AEE70D219A
:101470003046D5F82080FFF7D3FE804532D0236870
:1014800096E7BAF1000F23D005F1580304F10408E0
:10149000CDF808B0DDF800900397A3461C4602E0A3
:1014A0005745B94640D040460494FFF7A7FD04AB2A
:1014B000014600222846AFF3008009F1010708F138
:1014C00004080028ECD0D1455C46DDE902B7D6D14E
:1014D00030460D21FFF7A4FE049B2862C5E90934BC
:1014E000062073E7AB6A9C42C9D104224FF0000882
:1014F000A318C5E90AA8C5E90C23236843454DDBB9
:101500000123019357E780460D213046FFF788FEFF
:10151000B8F1020F28623ED12B46049A43F82C2FD3
:101520006B62AC62062051E75C46D1E705A9304604
:1015300000F090FA00287FF448AF019B002B3FF4A5
:1015400054AF0F213046FFF76BFE0E2102463046A6
:10155000FFF788FE30461A4A0F21FFF783FE072067
:1015600009B0BDE8F08F2046FFF77CFC0434074645
:10157000AC632846AFF3008000283FF426AF304626
:101580003A460F21FFF76EFE07201FE730460D2178
:10159000FFF746FE2862049B6B62C2E70AF1010076
:1015A00004EB8000FFF75EFC0F2102463046FFF798
:1015B00059FE30462A464146FFF754FE072005E70C
:1015C00000000000002393E6012391E602238FE64A
:1015D0002DE9F0410546C4B0042906D8DFE801F042
:1015E0004D2B05030900032B5FD0022044B0BDE85A
:1015F000F081002BF9D1102AF7D82B68DC0600F116
:10160000F48022AC2046019200F094F9A86B019A74
:101610000023012606FA03F1114203D0016844F8C1
:10162000231004300133042BF4D1A863204600F0CA
:1016300077F90020DAE7012B4FEA124697B252D031
:10164000052BD2D106EB0708B8F1200FCDD80F2E0D
:1016500040F29980B846002F40F0DB80AA6BAA6365
:101660000F2E40F2BE80B8F1000F02D002A800F0A9
:101670000BF9002044B0BDE8F081002BB5D1AC6B74
:1016800097B2281D012606FA03F1394203F101033E
:1016900002D0216801600434102B00F10400F2D163
:1016A00012F40050E5D1AC63A0E7160C97B2F31921
:1016B000102B9AD82B681A075DD422AC204600F074
:1016C0000DF904EBC601AB6B3FB103EBC702186821
:1016D00041F8040B04339342F9D12046AB6300F088
:1016E000DBF8002082E7F219102A3FF67EAF0F2EBA
:1016F0003FF67BAF2A68D10708D5284622F00302BF
:1017000040F8482B019300F0B3F8019B019322AC01
:10171000204600F0ADF8A96B019B002F00F09580EA
:101720007F0004EBC6044FF00008043C01EB870285
:1017300051F8040B44F8040F9142F9D1B8F1000FAD
:101740000FD002AC102E314638BF102104EBC1017E
:10175000843902EBC80452F8040B41F8040F944298
:10176000F9D1012B7FF47BAF22AC0432AA6320466F
:1017700000F07AF87DE723F008032B6005F5A870E8
:1017800000F0ACF899E7B8F1100F2A6843D9D007F8
:10179000A8F110080BD5284622F0010242F00202FF
:1017A00040F8482B019300F06BF82A68019B510721
:1017B00025D40F2E04D822A8019300F061F8019BD4
:1017C000019302AC204600F063F8C6F11001002935
:1017D000AA6B019BB6DD22AC4F0004EBC604114698
:1017E000A3E722A800F048F83DE723F010032B60A0
:1017F00005F5E870019200F09DF8019A01E728468E
:1018000022F0040240F8D02B019300F041F8019B34
:10181000CFE72A68CBE7D0070AD5284622F0010295
:1018200042F0020240F8482B019300F029F8019B96
:10183000019322AC204600F023F8B846A96B019B27
:10184000002F7FF46DAF0A4609E70A468DE700BF17
:1018500000F1340191E838009C46A6464CF8045D3E
:1018600090E8FF0FE54600BD90EC210B704700BFEC
:1018700080EC210B704700BF90EC200B704700BF3D
:1018800080EC200B704700BFD0EC200B704700BFEE
:10189000C0EC200B704700BFF0EC0201F0EC02112D
:1018A000F0EC0221F0EC0231F0EC0241F0EC0251DC
:1018B000F0EC0261F0EC0271F0EC0281F0EC0291CC
:1018C000F0EC02A1F0EC02B1F0EC02C1F0EC02D1BC
:1018D000F0EC02E1F0EC02F1704700BFE0EC020135
:1018E000E0EC0211E0EC0221E0EC0231E0EC02411C
:1018F000E0EC0251E0EC0261E0EC0271E0EC02810C
:10190000E0EC0291E0EC02A1E0EC02B1E0EC02C1FB
:10191000E0EC02D1E0EC02E1E0EC02F1704700BF44
:10192000B0FC0181B0FC0191B0FC01A1B0FC01B19F
:10193000704700BFA0FC0181A0FC0191A0FC01A1A7
:10194000A0FC01B1704700BFEC4600B52DE9005086
:101950002DE9FF1F4FF000032DE90C0001A9FFF74F
:10196000DDFBDDF840E012B0704700BFEC4600B58B
:101970002DE900502DE9FF1F4FF000032DE90C0069
:1019800001A9FFF705FCDDF840E012B0704700BF89
:10199000EC4600B52DE900502DE9FF1F4FF0000384
:1019A0002DE90C0001A9FFF715FCDDF840E012B0AD
:1019B000704700BFEC4600B52DE900502DE9FF1F30
:1019C0004FF000032DE90C0001ABFFF7D7FBDDF86A
:1019D00040E012B0704700BFEC4600B52DE9005062
:1019E0002DE9FF1F4FF000032DE90C0001AAFFF7BE
:1019F00047FCDDF840E012B0704700BF027A82B9C0
:101A0000437AABB14268013B10B4437213680321BF
:101A1000141D01721A02446002605DF8044B180E36
:101A200070470368013A02721A020260180E70478A
:101A3000B020704700B585B003AA00230092194674
:101A40000C22FFF7D7FB039805B05DF804FB00BF3D
:101A5000F0E700BF2DE9F043054685B00E464FF094
:101A600000083046FFF7CAFFB028044600F0B180F6
:101A7000070620D500F0F003802B65D0902B36D0E0
:101A8000A02B78D0B02B47D0C02B00F08A8000F07C
:101A9000F803D02B0BD100F00702013242F40022F0
:101AA000052301212846FFF793FD0028D9D00920FE
:101AB00005B0BDE8F0830DF10C090023194687003D
:101AC000CDF800900D222846FFF794FBFFB2039B50
:101AD000CDF80090043760064CBFDF1BFF180023D1
:101AE00019460D2228460397FFF7A6FBB9E700F039
:101AF0000D030D2BDBD003AF002300F00F021946BE
:101B000000972846FFF776FB0023009719460D2221
:101B10002846FFF791FBA4E7B1285FD0B22800F078
:101B2000CC80B3287ED000F0FC03B42BBFD000F0F3
:101B300007020132012342F4002219462846FFF72A
:101B400047FD00288DD0B2E73046FFF757FF24024B
:101B50000443B4F5004FAAD024010023A2B21946D1
:101B60002846FFF735FD0028A1D114F4004F18BF17
:101B70004FF0010875E7C24302F007034FF47F629C
:101B80001A41010702F47F624FF0000348BF42F49C
:101B9000804219462846FFF71BFD00283FF461AF3D
:101BA00085E7C62851D0C7285AD000F0F803C02BCB
:101BB00069D0C82875D0C9287FF479AF3046FFF7BF
:101BC0001DFF020300F00F0002F4702201300243F7
:101BD00066E7B8F1000F14D0002069E73046FFF740
:101BE0000DFF00283FF463AF10F0F0037FF45FAF08
:101BF000024619462846FFF7EBFC00283FF431AFB8
:101C000055E703AC43460E22414600942846FFF7B1
:101C1000F1FA0094284643460F224146FFF70CFB99
:101C2000404645E73046FFF7E9FE010300F00F00AC
:101C300001F47021421C01230A4328461946FFF78C
:101C4000C7FC00283FF40DAF31E73046FFF7D6FE62
:101C5000010300F00F0001F47021421C0323EBE7A5
:101C60003046FFF7CBFE024600283FF420AF10F0CD
:101C7000F0037FF41CAF04212846FFF7A9FC0028DD
:101C80003FF4EFAE13E700F00F020132032342F4FA
:101C9000202219462846FFF79BFC00283FF4E1AEBE
:101CA00005E73046FFF7AAFE00F0F00200F00F0350
:101CB0001032013343EA0232F2E600230DF10C093F
:101CC0000D221946CDF800902846FFF793FA3046CA
:101CD000FFF794FE02064FF002070CD5039B00F0BD
:101CE0007F00B840034430460393FFF787FE0306A6
:101CF00007F10707F2D4039BCDF8009000F07F04B2
:101D000003F50172BC400023144419460D222846F5
:101D10000394FFF791FAA4E610B5C36C84B05A6837
:101D200003208DF80C00DC798DF80D401202083389
:101D3000084601A901920293FFF78CFE04B010BD82
:101D400008B5FFF785FE806C08BD00BF08B5FFF73A
:101D50007FFEC06CC37900EB8300083008BD00BF74
:101D600008B506F045F800BF08B5FFF7F9FF00BF5A
:101D7000704700BF844641EA000313F003036DD1AE
:101D8000403A41D351F8043B40F8043B51F8043B3E
:101D900040F8043B51F8043B40F8043B51F8043B45
:101DA00040F8043B51F8043B40F8043B51F8043B35
:101DB00040F8043B51F8043B40F8043B51F8043B25
:101DC00040F8043B51F8043B40F8043B51F8043B15
:101DD00040F8043B51F8043B40F8043B51F8043B05
:101DE00040F8043B51F8043B40F8043B51F8043BF5
:101DF00040F8043B51F8043B40F8043B51F8043BE5
:101E000040F8043B403ABDD2303211D351F8043B84
:101E100040F8043B51F8043B40F8043B51F8043BC4
:101E200040F8043B51F8043B40F8043B103AEDD233
:101E30000C3205D351F8043B40F8043B043AF9D284
:101E4000043208D0D2071CBF11F8013B00F8013B57
:101E500001D30B8803806046704700BF082A13D364
:101E60008B078DD010F003038AD0C3F10403D21A7C
:101E7000DB071CBF11F8013B00F8013B80D331F8B0
:101E8000023B20F8023B7BE7043AD9D3013A11F830
:101E9000013B00F8013BF9D20B7803704B7843709B
:101EA0008B788370604670470000000000000000DF
:101EB00001F0FF01102A2BDB10F0070F08D010F8FB
:101EC000013B013A8B422DD010F0070F42B3F6D1FF
:101ED000F0B441EA012141EA014122F007047FF018
:101EE00000070023F0E80256083C85EA010586EA6F
:101EF000010685FA47F5A3FA87F586FA47F6A5FAAB
:101F000087F68EB9EED1F0BC01F0FF0102F00702B6
:101F100032B110F8013B013A83EA010313B1F8D161
:101F20000020704701387047002D06BF3546033842
:101F3000073815F0010F07D1013015F4807F02BF7B
:101F4000013015F4C03F0130F0BC0138704700BFCC
:101F50000000000000000000000000000000000081
:101F60000000000000000000000000000000000071
:101F70000000000000000000000000000000000061
:101F800090F800F06DE9024520F007016FF0000CB9
:101F900010F0070491F820F040F049804FF0000461
:101FA0006FF00700D1E9002391F840F000F108003C
:101FB00082FA4CF2A4FA8CF283FA4CF3A2FA8CF374
:101FC0004BBBD1E9022382FA4CF200F10800A4FADB
:101FD0008CF283FA4CF3A2FA8CF3E3B9D1E904232F
:101FE00082FA4CF200F10800A4FA8CF283FA4CF366
:101FF000A2FA8CF37BB9D1E9062301F1200182FA20
:102000004CF200F10800A4FA8CF283FA4CF3A2FA25
:102010008CF3002BC6D0002A04BF04301A4612BA33
:10202000B2FA82F2FDE8024500EBD2007047D1E936
:10203000002304F00305C4F100004FEAC50514F0C5
:10204000040F91F840F00CFA05F562EA05021CBF96
:1020500063EA050362464FF00004A9E790B400AFBD
:10206000254A4FF00003254CC2E91634224A4FF0AE
:102070000003234CC2E91A341F4A4FF00003214CDD
:10208000C2E90A341C4A4FF000031C4CC2E90C346C
:10209000194A4FF00003194CC2E90E34164A4FF0AA
:1020A00000034FF00004C2E90634134A4FF0000366
:1020B0004FF00004C2E904340F4A4FF000034FF020
:1020C0000004C2E910340C4A4FF000034FF0000442
:1020D000C2E91234084A4FF00003084CC2E9143434
:1020E000054A4FF000034FF00004C2E9083400BF76
:1020F000BD4690BC704700BF880E00200000F03F36
:102100000080564000003E4090B400AF284A4FF097
:102110000003284CC2E91634254A4FF00003264C30
:10212000C2E91834224A4FF00003224CC2E90C34B1
:102130001F4A4FF00003214CC2E90A341C4A4FF0F9
:1021400000031C4CC2E90E34194A4FF000034FF053
:102150000004C2E90634164A4FF00003154CC2E9E8
:102160000434134A4FF000034FF00004C2E908346E
:102170000F4A4FF000034FF00004C2E914340C4A38
:102180004FF000034FF00004C2E91034084A4FF04A
:1021900000034FF00004C2E91234054A4FF0000377
:1021A000044CC2E9003400BFBD4690BC704700BF7C
:1021B000880E00200000F03F00805640000049409B
:1021C000B0B582B000AF7860654BD3F85851654B1D
:1021D000D3E90401634BD3E912341A462346FEF7D0
:1021E00065FA03460C4644EC173BB0EE470AF0EEA6
:1021F000670A05F075FD54EC103B18462146FEF7C2
:1022000093FC03469D424BD3554B032283F85D213B
:10221000534B0022C3F85821534A4FF000034FF0AC
:102220000004C2E91634504A4FF000034F4CC2E993
:1022300018344D4A4FF000034FF00004C2E90C344B
:10224000494A4FF000034A4CC2E90E34464A4FF067
:102250000003474CC2E90634434A4FF000034FF0F5
:102260000004C2E90434404A4FF000034FF0000478
:10227000C2E908343C4A4FF000034FF00004C2E9C1
:102280001434394A4FF000034FF00004C2E910340F
:10229000354A4FF000034FF00004C2E912345BE00E
:1022A0007B681B78002B0AD02D4B012283F85D211F
:1022B0002B4B0022C3F85821FFF726FF4CE02A4A97
:1022C0004FF000032A4CC2E91634274A4FF00003AE
:1022D000264CC2E91834244A4FF00003244CC2E9CA
:1022E0000C34214A4FF00003224CC2E90A341E4A42
:1022F0004FF000031E4CC2E90E341B4A4FF000039E
:102300004FF00004C2E90634174A4FF00003184C9E
:10231000C2E90434144A4FF000034FF00004C2E94C
:102320000834114A4FF000034FF00004C2E914349E
:102330000D4A4FF000034FF00004C2E910340A4A7E
:102340004FF000034FF00004C2E91234064A4FF088
:102350000003074CC2E9003400BF0837BD46B0BDDA
:10236000F80E002000000020880E0020008056405B
:102370000000F03F0000494090B583B000AF7860A6
:10238000394BD3F85841394B93ED047BB0EE470AF3
:10239000F0EE670A05F0A4FC53EC102B104619462A
:1023A000FEF7C2FB03469C424BD32F4B032283F81C
:1023B0005D212D4B0022C3F858212D4A4FF0000318
:1023C0004FF00004C2E91634294A4FF00003294CAB
:1023D000C2E91834264A4FF000034FF00004C2E966
:1023E0000C34234A4FF00003234CC2E90E34204A38
:1023F0004FF00003204CC2E906341D4A4FF00003A1
:102400004FF00004C2E90434194A4FF000034FF0C2
:102410000004C2E90834164A4FF000034FF00004EC
:10242000C2E91434124A4FF000034FF00004C2E92D
:1024300010340F4A4FF000034FF00004C2E9123489
:102440000DE07B681B78002B09D0074B012283F835
:102450005D21054B0022C3F85821FFF755FE00BF50
:102460000C37BD4690BD00BFF80E002000000020D4
:10247000880E0020008056400000F03F90B400AF6E
:10248000284A4FF00003284CC2E91634254A4FF081
:102490000003264CC2E91834224A4FF00003224CB4
:1024A000C2E90C341F4A4FF00003214CC2E90A3440
:1024B0001C4A4FF000031C4CC2E90E34194A4FF07D
:1024C00000034FF00004C2E90634164A4FF000033F
:1024D000154CC2E90434134A4FF000034FF00004D6
:1024E000C2E908340F4A4FF000034FF00004C2E97C
:1024F00014340C4A4FF000034FF00004C2E91034CA
:10250000084A4FF000034FF00004C2E91234054AB4
:102510004FF000034FF00004C2E9003400BFBD4695
:1025200090BC7047880E00200000F03F00805640AD
:102530000000494090B400AF254A4FF00003254CFD
:10254000C2E91834224A4FF00003234CC2E90C348C
:102550001F4A4FF00003214CC2E90A341C4A4FF0D5
:1025600000031D4CC2E90E34194A4FF000034FF02E
:102570000004C2E90634164A4FF00003164CC2E9C3
:102580000434134A4FF000034FF00004C2E908344A
:102590000F4A4FF000034FF00004C2E914340C4A14
:1025A0004FF000034FF00004C2E91034084A4FF026
:1025B00000034FF00004C2E91234054A4FF0000353
:1025C0004FF00004C2E9003400BFBD4690BC704724
:1025D000880E0020008056400000F03F0000494077
:1025E00090B400AF254A4FF00003254CC2E91634E1
:1025F000224A4FF00003234CC2E91A341F4A4FF01D
:102600000003214CC2E90A341C4A4FF000034FF08A
:102610000004C2E90C34194A4FF00003184CC2E917
:102620000E34164A4FF00003154CC2E90834134A21
:102630004FF000034FF00004C2E906340F4A4FF098
:1026400000034FF00004C2E904340C4A4FF00003C9
:102650004FF00004C2E91034084A4FF000034FF075
:102660000004C2E91234054A4FF000034FF00004A1
:10267000C2E9143400BFBD4690BC7047880E0020EC
:102680000000F03F0080564000003E4080B582B020
:1026900000AF78607B685B68012B08D17B681B7A90
:1026A000002B04D07B681B69184601F0FCFB00BFBF
:1026B0000837BD4680BD80B582B000AF78607868CD
:1026C000FFF7E4FF00BF0837BD4680BD80B582B08C
:1026D00000AF78607B681B78002B05D17B680122F6
:1026E0001A707868FFF7E7FF00BF0837BD4680BD66
:1026F00080B582B000AF78607B685B68012B08D141
:102700007B681B7A002B04D07B681B69184601F09C
:10271000CAFB00BF0837BD4680BD80B582B000AFA0
:1027200078607868FFF7E4FF00BF0837BD4680BDDA
:1027300080B582B000AF78607B681B78002B05D134
:102740007B6801221A707868FFF7E7FF00BF08373F
:10275000BD4680BD80B582B000AF78607B685B68A5
:10276000012B0DD17B681B7A002B09D07B681B697C
:10277000184601F091FA7B681B69184601F0A2FA2D
:1027800000BF0837BD4680BD80B582B000AF78601D
:102790007868FFF7DFFF00BF0837BD4680BD80B512
:1027A00082B000AF78607B681B78002B05D17B6816
:1027B00001221A707868FFF7E7FF00BF0837BD46AF
:1027C00080BD0000B0B582B000AFB74BD3E90601C1
:1027D000B64BD3E902341A462346FEF773F9034693
:1027E000002B05D1B14BD3E90234AF4AC2E906341C
:1027F000AD4B1B69184601F0DFFA0346BB71AA4BCB
:10280000D3E90E01A94BD3E900341A462346FEF75B
:1028100059F90346002B05D1A44BD3E90034A24A51
:10282000C2E90E34A04B1B6B184601F0C5FA0346F3
:10283000FB719D4BD3F85831B3F1FF3F06D09A4B53
:10284000D3F858310133984AC2F85831964B93F86F
:102850005C31002B17D1944B012283F85C21924B01
:10286000062283F85D21924A4FF000034FF00004E6
:10287000C2E902348E4A4FF000034FF00004C2E96F
:10288000003400F0CCBC884B93F85D31013B092B40
:1028900000F24E8401A252F823F000BFC5280000C8
:1028A000D1280000DD28000021290000692A00004D
:1028B0003B2B00008B2C0000E92D00002B2F00008B
:1028C00045300000BB1D1846FFF77AFC00F0A7BC9E
:1028D000BB1D1846FFF750FD00F0A1BC724BD3F8AA
:1028E0005841724B93ED0A7BB0EE470AF0EE670A4F
:1028F00005F0F6F953EC102B10461946FEF714F9C3
:1029000003469C42C0F08A84674B022283F85D2113
:10291000654B0022C3F85821FFF7B0FD00F07EBCE4
:10292000614BD3F85841614B93ED047BB0EE470AFD
:10293000F0EE670A05F0D4F953EC102B1046194657
:10294000FEF7F2F803469C4245D3574B052283F825
:102950005D21554B0022C3F85821554A4FF0000322
:10296000544CC2E91834524A4FF000034FF00004AF
:10297000C2E90C344E4A4FF000034F4CC2E90E340A
:102980004B4A4FF000034C4CC2E90634484A4FF022
:1029900000034FF00004C2E90434454A4FF000033D
:1029A0004FF00004C2E90834414A4FF000034FF0F1
:1029B0000004C2E914343E4A4FF000034FF0000413
:1029C000C2E910343A4A4FF000034FF00004C2E964
:1029D000123400F024BC364A4FF00003354CC2E9F3
:1029E0001834334A4FF00003334CC2E90C34304AF8
:1029F0004FF00003314CC2E90A342D4A4FF0000376
:102A00002D4CC2E90E342A4A4FF000034FF0000467
:102A1000C2E90634264A4FF00003274CC2E90434C9
:102A2000234A4FF000034FF00004C2E90834204A63
:102A30004FF000034FF00004C2E914341C4A4FF079
:102A400000034FF00004C2E91034194A4FF00003AC
:102A50004FF00004C2E91234154A4FF000034FF062
:102A60000004C2E90034DAE30F4BD3F858410F4BAE
:102A700093ED0A7BB0EE470AF0EE670A05F030F9F5
:102A800053EC102B10461946FEF74EF803469C42B5
:102A900016D3054B042283F85D21034B0022C3F8B3
:102AA0005821FFF747FDBAE3F80E00200000002090
:102AB000880E0020008056400000F03F0000494092
:102AC000A14A4FF00003A14CC2E918349E4A4FF0CE
:102AD00000034FF00004C2E90C349B4A4FF000039E
:102AE0009B4CC2E90E34984A4FF00003984CC2E95F
:102AF0000634954A4FF000034FF00004C2E9043455
:102B0000914A4FF000034FF00004C2E908348E4AA6
:102B10004FF000034FF00004C2E914348A4A4FF02A
:102B200000034FF00004C2E91034874A4FF000035D
:102B30004FF00004C2E9123471E3864BD3E910016F
:102B40004FF00002824BFDF7BDFF0346002B49D03A
:102B5000814B072283F85D217F4B0022C3F8582167
:102B6000794A4FF00003794CC2E91A34764A4FF0A3
:102B700000037A4CC2E90A34734A4FF00003744CE4
:102B8000C2E90C34704A4FF00003714CC2E90E34B4
:102B90006D4A4FF000034FF00004C2E906346A4A60
:102BA0004FF000034FF00004C2E90434664A4FF0CE
:102BB00000034FF00004C2E91034634A4FF00003F1
:102BC0004FF00004C2E912345F4A4FF00003604C3A
:102BD000C2E914345C4A4FF000034FF00004C2E92C
:102BE00008341CE35B4BD3E910014FF000025C4B4F
:102BF000FDF768FF0346002B0AD0574B0A2283F8E3
:102C00005D21554B0022C3F85821FFF727FA06E350
:102C1000504BD3E910014FF000024FF08043FDF715
:102C200051FF0346002B0AD04B4B022283F85D2153
:102C3000494B0022C3F85821FFF720FCEFE2454B37
:102C4000D3E910014FF000024FF00003FDF73AFF07
:102C50000346002B0AD0404B042283F85D213E4BF3
:102C60000022C3F85821FFF765FCD8E2364A4FF03E
:102C700000034FF00004C2E90234334A4FF000036E
:102C80004FF00004C2E90034C9E2334BD3F8584195
:102C9000304B93ED047BB0EE470AF0EE670A05F087
:102CA0001FF853EC102B10461946FDF73DFF034665
:102CB0009C4257D3284B082283F85D21264B0022E3
:102CC000C3F85821204A4FF00003204CC2E91A34BF
:102CD0001D4A4FF00003214CC2E90A341A4A4FF052
:102CE00000031B4CC2E90C34174A4FF00003184C88
:102CF000C2E90E34144A4FF000034FF00004C2E959
:102D00000634114A4FF000034FF00004C2E90434C6
:102D10000D4A4FF000034FF00004C2E910340A4A94
:102D20004FF000034FF00004C2E91234064A4FF09E
:102D300000034FF00004C2E91434034A4FF00003CB
:102D4000034CC2E908346AE2880E00200080564035
:102D50000000F03F00000020F80E002000003E4080
:102D6000000008408D4A4FF000038D4CC2E91A3430
:102D70008A4A4FF000038B4CC2E90A34874A4FF06D
:102D80000003894CC2E90C34844A4FF00003864C9E
:102D9000C2E90E34814A4FF000034FF00004C2E94B
:102DA00006347E4A4FF000034FF00004C2E90434B9
:102DB0007A4A4FF000034FF00004C2E91034774A1A
:102DC0004FF000034FF00004C2E91234734A4FF091
:102DD0000003754CC2E91434704A4FF000034FF001
:102DE0000004C2E908341AE2704BD3F85841704B22
:102DF00093ED167BB0EE470AF0EE670A04F070FF21
:102E000053EC102B10461946FDF78EFE03469C42EC
:102E100049D3664B072283F85D21644B0022C3F837
:102E200058215E4A4FF000035D4CC2E91A345B4AF8
:102E30004FF000035B4CC2E90A34584A4FF00003DC
:102E4000594CC2E90C34554A4FF00003564CC2E9C4
:102E50000E34524A4FF000034FF00004C2E906342A
:102E60004E4A4FF000034FF00004C2E904344B4ACD
:102E70004FF000034FF00004C2E91034474A4FF00E
:102E800000034FF00004C2E91234444A4FF000033B
:102E9000454CC2E91434414A4FF000034FF000049E
:102EA000C2E90834BBE13D4A4FF000033C4CC2E9A3
:102EB0001A343A4A4FF000033A4CC2E90A34374A0E
:102EC0004FF00003384CC2E90C34344A4FF0000391
:102ED000354CC2E90E34314A4FF000034FF0000484
:102EE000C2E906342D4A4FF000034FF00004C2E956
:102EF00004342A4A4FF000034FF00004C2E91034B2
:102F0000264A4FF000034FF00004C2E91234234A6E
:102F10004FF000034FF00004C2E914341F4A4FF091
:102F20000003214CC2E9083479E1204BD3F8585111
:102F30001F4BD3E904011E4BD3E912341A46234632
:102F4000FDF7B4FB03460C4644EC173BB0EE470AD2
:102F5000F0EE670A04F0C4FE54EC103B184621461C
:102F6000FDF7E2FD03469D420AD3104B0B2283F886
:102F70005D210E4B0022C3F85821FFF731FB4EE1D3
:102F8000FB79002B16D0094B092283F85D21074BF2
:102F90000022C3F85821FFF761F840E1880E0020B5
:102FA0000080564000003E400000F03FF80E002038
:102FB00000000020934A4FF00003934CC2E91634FE
:102FC000904A4FF00003914CC2E91A348D4A4FF0F9
:102FD00000038F4CC2E90A348A4A4FF000038A4C3E
:102FE000C2E90C34874A4FF00003874CC2E90E3423
:102FF000844A4FF000034FF00004C2E90634814ACE
:103000004FF000034FF00004C2E904347D4A4FF052
:1030100000034FF00004C2E910347A4A4FF0000375
:103020004FF00004C2E91234764A4FF00003764CA8
:10303000C2E91434734A4FF000034FF00004C2E9B0
:103040000834ECE0734BD3F85841734B93ED047B99
:10305000B0EE470AF0EE670A04F042FE53EC102B84
:1030600010461946FDF760FD03469C420AD3694BA2
:103070000B2283F85D21674B0022C3F85821FFF72C
:10308000AFFACCE0FB79002B0AD0624B092283F81F
:103090005D21604B0022C3F85821FEF7DFFFBEE040
:1030A000584A4FF00003584CC2E91634554A4FF0C5
:1030B0000003564CC2E91A34524A4FF00003544CF4
:1030C000C2E90A344F4A4FF000034F4CC2E90C34B6
:1030D0004C4A4FF000034C4CC2E90E34494A4FF0C1
:1030E00000034FF00004C2E90634464A4FF00003E3
:1030F0004FF00004C2E90434424A4FF000034FF09D
:103100000004C2E910343F4A4FF000034FF00004BE
:10311000C2E912343B4A4FF000033B4CC2E914347D
:10312000384A4FF000034FF00004C2E9083476E05B
:10313000384BD3F85841384B93ED167BB0EE470A25
:10314000F0EE670A04F0CCFD53EC102B1046194644
:10315000FDF7EAFC03469C420AD32E4B0A2283F871
:103160005D212C4B0022C3F85821FEF777FF56E073
:10317000244A4FF00003244CC2E91634214A4FF090
:103180000003224CC2E91A341E4A4FF00003204CBF
:10319000C2E90A341B4A4FF000034FF00004C2E9B1
:1031A0000C34184A4FF00003174CC2E90E34154A8C
:1031B0004FF00003144CC2E90834124A4FF00003E8
:1031C0004FF00004C2E906340E4A4FF000034FF0FE
:1031D0000004C2E904340B4A4FF000034FF000042E
:1031E000C2E91034074A4FF000034FF00004C2E96F
:1031F0001234044A4FF000034FF00004C2E91434C3
:103200000DE000BF880E00200000F03F0080564017
:1032100000003E40F80E00200000002000BF984B48
:103220001C6D984BD3E9040101231D464FF00002A9
:103230004FF00003FDF746FC0346002B01D00023AE
:103240001D46EBB21946204600F0EEFD8C4B5C6E3D
:103250008C4BD3E9060101231D464FF000024FF0CD
:103260000003FDF72FFC0346002B01D000231D4671
:10327000EBB21946204600F0D7FD814B9C6F814B85
:10328000D3E9000101231D464FF000024FF0000377
:10329000FDF718FC0346002B01D000231D46EBB2BE
:1032A0001946204600F0C0FD754BD3F88C40754B95
:1032B000D3E9020101231D464FF000024FF0000345
:1032C000FDF700FC0346002B01D000231D46EBB2A6
:1032D0001946204600F0A8FD694BD3F8A040694B81
:1032E000D3E9160101231D464FF000024FF0000301
:1032F000FDF7E8FB0346002B01D000231D46EBB28F
:103300001946204600F090FD5D4BD3F8B4405D4B6C
:10331000D3E90C0101231D464FF000024FF00003DA
:10332000FDF7D0FB0346002B01D000231D46EBB276
:103330001946204600F078FD514BD3F8C840514B58
:10334000D3E90E0101231D464FF000024FF00003A8
:10335000FDF7B8FB0346002B01D000231D46EBB25E
:103360001946204600F060FD454BD3F82C21454B13
:1033700093ED187BB0EE470AF0EE670A104600F0B6
:103380004DFC3F4BD3F840213E4B93ED1A7BB0EE02
:10339000470AF0EE670A104600F040FC384BD3F8BD
:1033A0005421384B93ED0A7BB0EE470AF0EE670AE2
:1033B000104600F033FC324BD3F8DC40314BD3E9FC
:1033C000140101231D464FF000024FF00003FDF7EA
:1033D00079FB0346002B01D000231D46EBB21946B2
:1033E000204600F021FD264BD3F8F040254BD3E9D1
:1033F000080101231D464FF000024FF00003FDF7C6
:1034000061FB0346002B01D000231D46EBB2194699
:10341000204600F009FD1A4BD3F80441194BD3E9BB
:10342000100101231D464FF000024FF00003FDF78D
:1034300049FB0346002B01D000231D46EBB2194681
:10344000204600F0F1FC0E4BD3F818410D4BD3E9A8
:10345000120101231D464FF000024FF00003FDF75B
:1034600031FB0346002B01D000231D46EBB2194669
:10347000204600F0D9FC00BF0837BD46B0BD00BFF4
:10348000F80E0020880E002090B585B000AFBA4B32
:1034900001221A70B84B00225A60B74A4FF000035D
:1034A000B64CC2E90634B44B00221A70B44BD3E9CF
:1034B0000234B14AC2E90634AF4BFB60AE4B002286
:1034C0001A72AD4B01225A600021002000F004FC6A
:1034D0000246FB681A61A84B01221A72A64B012210
:1034E00083F82020A44B00225A62A34A4FF0000325
:1034F000A24CC2E90E34A04B002283F82020A04B3E
:10350000D3E900349C4AC2E90E349E4BFB609A4BCF
:10351000002283F82820984B01225A6200210120C2
:1035200000F0DAFB0246FB681A61934B012283F834
:103530002820914B012283F840208F4B00225A64AF
:103540008D4B002283F840208F4BBB608A4B0022BA
:1035500083F84820884B01225A6401210B2000F097
:10356000BBFB0246BB681A61834B012283F84820EB
:10357000814B012283F854207F4B00229A657E4BB9
:10358000002283F85420814BBB607B4B002283F8E0
:103590005C20794B01229A650121082000F09CFBF8
:1035A0000246BB681A61744B012283F85C20724B9F
:1035B000012283F86820704B0022DA666E4B0022ED
:1035C00083F86820724BBB606B4B002283F870203D
:1035D000694B0122DA6601212A2000F07DFB0246B8
:1035E000BB681A61644B012283F87020624B012290
:1035F00083F87C20604B0022C3F880205E4B0022C1
:1036000083F87C20634BBB605B4B002283F88420F3
:10361000594B0122C3F8802001212C2000F05CFBD3
:103620000246BB681A61544B012283F88420524B36
:10363000012283F89020504B0022C3F894204E4B77
:10364000002283F89020544BBB604B4B002283F840
:103650009820494B0122C3F8942001210D2000F04D
:103660003BFB0246BB681A61434B012283F898205A
:10367000414B012283F8A4203F4B0022C3F8A8202D
:103680003D4B002283F8A420444BBB603A4B002200
:1036900083F8AC20384B0122C3F8A8200121022076
:1036A00000F01AFB0246BB681A61334B012283F813
:1036B000AC20314B012283F8B8202F4B0022C3F8F5
:1036C000BC202D4B002283F8B820354BBB602A4B21
:1036D000002283F8C020284B0122C3F8BC2001211E
:1036E0000A2000F0F9FA0246BB681A61224B012257
:1036F00083F8C020204B012283F81C211E4B00229E
:10370000C3F820211C4B002283F81C21254B7B6031
:10371000194B002283F82421174B0122C3F82021E2
:103720009FED111B9FED120B062000F0BBF9024626
:103730007B681A61104BD3F82C31184600F064FAFC
:103740000D4B012283F824210B4B012283F83021F9
:10375000094B0022C3F83421074B002283F83021A3
:1037600022E000BFAFF30080000000000000000076
:103770000000000000409F40F80E00200000F0BF55
:1037800000000020180F0020380F00204C0F0020F0
:10379000600F0020740F0020880F00209C0F002075
:1037A000B00F0020141000206B4B7B606B4B00228D
:1037B00083F83821694B0122C3F834219FED621B45
:1037C0009FED630B032000F06DF902467B681A61E0
:1037D000624BD3F84031184600F016FA5F4B0122D5
:1037E00083F838215D4B012283F844215B4B002292
:1037F000C3F84821594B002283F84421584B7B6081
:10380000564B002283F84C21544B0122C3F8482127
:103810009FED4D1B9FED4E0B052000F043F9024636
:103820007B681A614D4BD3F85431184600F0ECF91F
:103830004A4B012283F84C21484B012283F8CC20CB
:10384000464B0022C3F8D020444B002283F8CC2002
:10385000444BBB60414B002283F8D4203F4B0122F4
:10386000C3F8D02001210C2000F036FA0246BB68D4
:103870001A613A4B012283F8D420384B012283F895
:10388000E020364B0022C3F8E420344B002283F8BA
:10389000E020354BBB60314B002283F8E8202F4BF2
:1038A0000122C3F8E4200121092000F015FA0246A4
:1038B000BB681A61294B012283F8E820274B0122BB
:1038C00083F8F420254B0022C3F8F820234B002274
:1038D00083F8F420254BBB60204B002283F8FC20AA
:1038E0001E4B0122C3F8F8200121042000F0F4F956
:1038F0000246BB681A61194B012283F8FC20174B62
:10390000012283F80821154B0022C3F80C21134B28
:10391000002283F80821164BBB60104B002283F86D
:1039200010210E4B0122C3F80C210121072000F0C9
:10393000D3F90246BB681A61084B012283F81021B3
:1039400000BF1437BD4690BD00000000000000001D
:103950000000000000409F4028100020F80E0020CA
:103960003C100020C40F0020D80F0020EC0F0020D6
:103970000010002080B500AF1848FEF7A7FE1848D9
:10398000FEF7A4FE1748FEF7D3FE1748FEF7D0FE59
:103990001648FEF7CDFE1648FEF7CAFE1548FEF79C
:1039A000C7FE1548FEF7C4FE1448FEF7C1FE1448D2
:1039B000FEF7F5FE1348FEF7F2FE1348FEF7EFFEA2
:1039C0001248FEF7B5FE1248FEF7B2FE1148FEF7A8
:1039D000AFFE1148FEF7ACFE00BF80BDF80E002020
:1039E000180F0020380F00204C0F0020600F00201F
:1039F000740F0020880F00209C0F0020B00F0020C3
:103A000014100020281000203C100020C40F0020BB
:103A1000D80F0020EC0F00200010002080B584B0EB
:103A200000AFF860B9601346FB71BB681F2B05D966
:103A30000D4B0E4AFF210E4804F0E2F9FB68BA680C
:103A400053F8223023F0807323F4E063FA791202F2
:103A500002F4E06243EA0201FB68BA6843F822100C
:103A600000BF1037BD4680BD3CA80000D4A80000B0
:103A700048A8000080B483B000AF78600B46FB70AC
:103A80007B681B6823F01802FB78DB0003F0180347
:103A90001A437B681A6000BF0C37BD465DF8047B93
:103AA0007047000090B58FB000AF786187ED020BD2
:103AB00087ED001B524A7B695B01134411331B786D
:103AC000002B40F08780002387F82830002387F8F8
:103AD0002930002387F82A308023FB62484A7B691B
:103AE0005B0113441868464A7B695B011344043345
:103AF0001968434A7B695B01134410331B781A46EB
:103B0000FFF78CFF3E4A7B695B01134408331B6857
:103B100007F128021146184603F07EF8384A7B69FF
:103B20005B01134408331B68DBB2002201211846F5
:103B300003F0F6F8324A7B695B0113441133042227
:103B40001A702F4A7B695B01134403F11802D7E90D
:103B50000234C2E9003402233B7600237B76284AF4
:103B60007B695B0113441833D3E9003418462146BE
:103B7000FCF7DAFF0346FB61D7E90001FCF7D4FF4D
:103B800003463B620023BB841D4A7B695B011344EF
:103B900008331B681B4A52F823303B630021386B03
:103BA000FFF768FF164A7B695B0113440833186806
:103BB000134A7B695B0113440C331B68DAB207F1CB
:103BC0001803194603F00AF97B695B010C4A134498
:103BD0007B630FE00A4A7B695B01134411331B7856
:103BE000042B05D17B695B01054A13447B6301E02B
:103BF00000237B637B6B18463C37BD4690BD00BFFE
:103C0000F001002064AE000080B483B000AF7860A3
:103C100000BF0C37BD465DF8047B704790B58BB094
:103C200000AFF86087ED000BFB687B627B6A002BBE
:103C30002CD07B6A5B7C042B28D102233B740023AD
:103C40007B747B6AD3E9063418462146FCF76CFF87
:103C500003467B61D7E90001FCF766FF0346BB61C1
:103C60000023BB837B6A9B680A4A52F823303B627D
:103C70000021386AFFF7FEFE7B6A98687B6ADB6882
:103C8000DAB207F11003194603F0A8F800BF2C3789
:103C9000BD4690BD64AE000080B485B000AF7860D2
:103CA0007B68FB60FB68002B06D0FB685B7C042B09
:103CB00002D1FB6800225A7400BF1437BD465DF87C
:103CC000047B704780B483B000AF786000BF0C37CE
:103CD000BD465DF8047B704780B590B000AF78605A
:103CE0000B46FB70FB78002B27D107F12403002241
:103CF0001A605A609A60DA601A615A612D4A7B68CC
:103D000052F833307B62012387F82830012387F88B
:103D100029304FF0FF333B6307F12403184603F0CB
:103D20004FF9244A7B68DB00134401221A717B6837
:103D3000DB00204A1344FB6336E0FB78012B31D1D2
:103D400007F10C0300221A605A609A60DA601A6167
:103D50005A61184A7B6852F83330FB6001233B7587
:103D60004FF0FF33BB6107F10C03184603F098F9DD
:103D7000104A7B68DB00134402221A717B68292BEE
:103D80000AD97B682C2B07D80A4A7B6852F8333053
:103D90000121184603F0BCF97B68DB00054A134497
:103DA000FB6301E00023FB63FB6B18464037BD4615
:103DB00080BD00BF7400002080B586B000AF786081
:103DC0007B683B613B69002B0BD03B691B79012B66
:103DD00007D13B691B68184603F0A8F90346FB7539
:103DE00001E00023FB753B691B681B0ADBB2FB602B
:103DF0003B691B68DBB2BB60FB68022B02D1BB686E
:103E0000062B05D0FB68002B09D1BB68042B06D11B
:103E1000FB7D002B0CBF01230023DBB2FB75FB7D78
:103E200018461837BD4680BD80B586B000AF7860B3
:103E30000B46FB707B687B617B69002B2FD07B6915
:103E40001B79022B2BD17B691B681B0ADBB23B6100
:103E50007B691B68DBB2FB603B69012B05D1FB680A
:103E6000162B08D0FB68152B05D03B69042B0FD10E
:103E7000FB681A2B0CD17B691A68FB78012B14BFE5
:103E800001230023DBB21946104603F041F906E096
:103E90007B691B68FA781146184603F039F900BFB0
:103EA0001837BD4680BD80B485B000AF78607B68B0
:103EB000FB60FB68002B0ED0FB681B79022B03D143
:103EC000FB6800221A7106E0FB681B79012B02D106
:103ED000FB6800221A7100BF1437BD465DF8047BF1
:103EE000704780B400AFFEE780B483B000AF786065
:103EF0007B68013B032B0BD801A252F823F000BFD3
:103F0000113F0000113F0000113F0000113F000071
:103F100000BFFEE7704770470020002104460D46B1
:103F2000084803F08BFF03F0D3FF2046294600F03A
:103F30004DFF0548002101F07DF800F0D7FF03F0A8
:103F400089FF0000757E000028A9000080B584B0BC
:103F500000AFF860B9601346FB71BB681F2B05D931
:103F60000D4B0E4AFF210E4803F04AFFFB68BA686A
:103F700053F8223023F0807323F4E063FA791202BD
:103F800002F4E06243EA0201FB68BA6843F82210D7
:103F900000BF1037BD4680BD80A8000050A90000BA
:103FA0008CA8000080B483B000AF78600B46FB7033
:103FB0007B68FA781A7000BF0C37BD465DF8047B49
:103FC0007047000080B584B000AF3B4600221A6005
:103FD0005A609A60DA60064B3B6002237B723B4674
:103FE0001946002002F046FC00BF1037BD4680BDD8
:103FF00080F0FA0280B584B000AF074A3B1D07CAC3
:1040000083E807003B1D1946002002F081FC00BF39
:104010001037BD4680BD00BFC4A8000080B500AF0A
:104020002A210848FFF7BEFF002212210648FFF7A9
:104030008DFFFFF7C7FFFFF7DDFF044802F0BCFC70
:1040400000BF80BD00E007400090044038A9000098
:1040500080B582B000AF7860034800F0A0FA00BFDE
:104060000837BD4680BD00BF583F002098B500AF5F
:10407000094B0A4A1A600A4B0A4A1C1D13460FCB09
:1040800084E80F0000F0E1FA0246054B1A60064B87
:10409000034A1A6000BF98BD583F0020603F0020CF
:1040A000383F002028A90000503F002080B586B08E
:1040B00002AF87ED010A38600223FB60FFF7D6FFED
:1040C000164800F05CFA0346BB60154800F057FA4A
:1040D0000346BB60002300930023FA68114912488D
:1040E00000F08AFA0346BB600023104A0121104801
:1040F00000F0C3FA0346BB60D7ED017A9FED0D7A5D
:1041000067EE877AFCEEE77A17EE901A084800F01F
:10411000DBFA00BF1037BD4680BD00BF583F00200E
:10412000503F002039410000603F00205140000016
:10413000143F002000007A4480B586B000AF78615B
:10414000184B1B681B68002B0CBF01230023DBB23C
:104150001A46154B1A7011E03B461449184600F0F8
:1041600031FAFEF72FFB0F4B1B681B68002B14BFA7
:1041700001230023DBB21A460D4B1A700A4B1B7841
:10418000DBB2002BE8D1084B00221A70786900F0EE
:1041900011F8002000F060FA002318461837BD46D9
:1041A00080BD00BFD0A8000070000020583F002054
:1041B0004C3F002080B582B000AF7860074B0122F1
:1041C0001A60074B00221A70FFF7D4FB054800F075
:1041D000E6F9002318460837BD4680BD743F00202D
:1041E00070000020503F002080B586B000AF78619D
:1041F000396100F0FDFB00F0BCF80A4B1B6800229F
:104200001A60FFF741F900209FED070AFFF74EFF04
:104210003B460649184600F0D5F9002318461837E2
:10422000BD4680BDD0A800006F12833A503F0020E9
:1042300080B500AF002002F07BFC00BF80BD80B5E0
:1042400000AF012002F074FC00BF80BD80B500AF5C
:10425000022002F06DFC00BF80BD80B500AF0320DE
:1042600002F066FC00BF80BD80B500AF042002F004
:104270005FFC00BF80BD80B500AF052002F058FC98
:1042800000BF80BD80B500AF062002F051FC00BF2A
:1042900080BD80B500AF072002F04AFC00BF80BDA2
:1042A00080B500AF082002F043FC00BF80BD80B5A0
:1042B00000AF092002F03CFC00BF80BD80B500AF1C
:1042C0000A2002F035FC00BF80BD80B500AF0B2096
:1042D00002F02EFC00BF80BD80B500AF0C2002F0C4
:1042E00027FC00BF80BD80B500AF0D2002F020FC90
:1042F00000BF80BD80B500AF0E2002F019FC00BFEA
:1043000080BD80B500AF0F2002F012FC00BF80BD61
:1043100080B500AF002002F023FC00BF80BD80B557
:1043200000AF002003F0ACFA00BF80BD80B500AF45
:10433000012003F0A5FA00BF80BD80B500AF0220C8
:1043400003F09EFA00BF80BD80B500AF032003F0EC
:1043500097FA00BF80BD80B500AF042003F090FA4B
:1043600000BF80BD80B500AF052003F089FA00BF13
:1043700080BD80B582B000AF02F0BAF90023FB71B6
:1043800006E0FB79184602F091FBFB790133FB71E3
:10439000FB79042BF5D9FFF741FE00BF0837BD4676
:1043A00080BD80B400AFFEE780B400AFFEE780B40C
:1043B00000AFFEE780B400AFFEE780B400AFFEE7D9
:1043C00080B400AFFEE780B400AFFEE780B400AF7A
:1043D000FEE780B400AFFEE780B400AFFEE780B434
:1043E00000AFFEE780B400AFFEE780B400AFFEE7A9
:1043F00080B400AFFEE780B400AFFEE780B400AF4A
:10440000FEE780B400AFFEE780B400AFFEE780B403
:1044100000AFFEE780B400AFFEE780B400AFFEE778
:1044200080B400AFFEE780B400AFFEE780B400AF19
:10443000FEE780B400AFFEE780B400AFFEE780B4D3
:1044400000AFFEE780B400AFFEE780B400AFFEE748
:1044500080B400AFFEE780B400AFFEE780B400AFE9
:10446000FEE780B400AFFEE780B400AFFEE780B4A3
:1044700000AFFEE780B400AFFEE780B400AFFEE718
:1044800080B400AFFEE780B400AFFEE780B400AFB9
:10449000FEE780B400AFFEE780B400AFFEE780B473
:1044A00000AFFEE780B400AFFEE780B400AFFEE7E8
:1044B00080B400AFFEE780B400AFFEE780B400AF89
:1044C000FEE780B400AFFEE780B400AFFEE780B443
:1044D00000AFFEE780B400AFFEE780B400AFFEE7B8
:1044E00080B400AFFEE780B400AFFEE780B400AF59
:1044F000FEE780B400AFFEE780B400AFFEE780B413
:1045000000AFFEE780B400AFFEE784B080B582B0B4
:1045100000AF07F1100C8CE80F003B69796A184670
:1045200000F0DAFF03467B607B6818460837BD461B
:10453000BDE8804004B0704784B080B500AF07F19B
:10454000080C8CE80F00BB68F969184600F0E4FF1E
:1045500003461846BD46BDE8804004B0704780B5AC
:1045600082B000AF786039607B684FF0FF32396805
:10457000184600F0DFFF78680837BD4680BD80B47C
:1045800085B000AF78607B6801225A600123FB6030
:10459000FB6818461437BD465DF8047B704780B54C
:1045A00084B002AF78607B681B687A6852680192B9
:1045B0001A6900920FCBFFF7A8FF03461846083789
:1045C000BD4680BD80B584B002AF786039603B687D
:1045D0001B683A68526801921A6900920FCBFFF784
:1045E000ABFF3B685A687B6811461846FFF7B7FF78
:1045F00078680837BD4680BD80B586B000AFF860EA
:10460000B9607A603B60FB68BA685A60FB687A6898
:104610009A60FB680122DA603A68FB681A61FB68FD
:104620000433396A184600F005FD0246FB681A603B
:10463000FB681B68002B14BF01230023DBB27B61E6
:104640007B6918461837BD4680BD80B500AF00F0C5
:104650003FFD0346184680BD80B584B000AF78604A
:1046600000F036FD0346FB60F86800F03DFD0346B0
:10467000BB6000BF1037BD4680BD80B586B000AFBF
:10468000F8607A603B600B46FB72FB6803F10C023A
:10469000FB689A60FB687A685A60FB680433F97AB1
:1046A0003A68184600F014FE0246FB681A60FB6880
:1046B0001B68002B14BF01230023DBB27B617B69E5
:1046C00018461837BD4680BD80B584B000AF78600D
:1046D00039607B681B683968184600F02BFE03467A
:1046E000FB60FB6818461037BD4680BD80B584B0BE
:1046F00000AF7860114B1B68002B02D10F4B104AA2
:104700001A600E4B1B68FB600C4B1A687B681344E5
:104710000C4A934207D903F097FB02460C2313601F
:104720004FF0FF3306E0054B1A687B681344034AD9
:104730001360FB6818461037BD4680BD783F0020E7
:104740000000FF1F0000002080B489B000AF284B9C
:10475000FB60284A284B9A4216D00023FB610AE0EE
:10476000254AFB6952F823202249FB6941F823209E
:10477000FB690133FB61FB689B08FA699A42EFD33E
:104780001E4B1C4A9A6002E01C4B1B4A9A601C4B51
:10479000BB611C4B7B611C4BBB60BA687B69D31A45
:1047A000FB6107E07A69531C7B61BB69591CB961E5
:1047B00012781A70FB695A1EFA61002BF2D1134B62
:1047C0003B61134B7B607A683B69D31AFB6104E061
:1047D0003B695A1C3A6100221A70FB695A1EFA6141
:1047E000002BF5D100BF2437BD465DF8047B704730
:1047F00000000000000000000000000000ED00E0EC
:1048000000000020BCB8000024C70000680E002093
:10481000F040002080B400AF6B4BD3F888306A4A78
:1048200043F47003C2F88830684B4CF22052DA81AE
:10483000664B4DF62812DA81644B4FF4E9721A8008
:10484000634B1B78DBB203F00103002B0FD0614BED
:104850009B78DBB203F00803002B2ED05D4B9B78D6
:10486000DBB25C4A43F00803DBB2937025E05A4B9D
:1048700003F581531C331B68574943F0005201F57F
:1048800081531C331A60554B1B6903F48073002B52
:1048900013D1524B1B6923F47C53504A43F44073A9
:1048A00013614E4B1B694D4A43F4807313614B4BAC
:1048B0001B694A4A23F400731361494B2A221A7078
:1048C000454B03F5825304334FF08A721A60424B12
:1048D0001B6823F44023404A43F4002313603E4BFB
:1048E00003F5805304331B6823F440333A4943F4FF
:1048F000803201F5805304331A60374B03F581533E
:1049000018331B68344943F4007201F5815318339E
:104910001A60344B9B6C334A23F0807323F4E063BA
:104920009364314B00221A722F4B5B78DBB223F079
:104930006003DBB22C4A43F02003DBB253702B4BF5
:1049400080221A70284B00221A73274BBA221A7041
:1049500000BF254B9B79DBB203F01003002BF8D18D
:10496000214BDB78DBB2204A03F01F03DBB2D370AC
:104970001D4B13221A711C4B18225A711A4B5B796A
:10498000DBB2194A43F04003DBB2537100BF164B50
:104990009B79DBB203F04003002BF8D0124B1B785D
:1049A000DBB2114A03F03F03DBB2137000BF0E4BC2
:1049B0009B79DBB203F00C030C2BF8D100BFBD4692
:1049C0005DF8047B704700BF00ED00E0002005406B
:1049D00000F0074000D007400070044000D00340C2
:1049E00000E00740009004400040064000500640B0
:1049F00080B483B000AF964B1B78DBB203F0C003EA
:104A0000002B40F0D280924B5B79DBB203F0400385
:104A1000002B40F0AD808E4B1B78DBB203F004031B
:104A2000002B4ED18A4B1B7BDBB203F00303002B20
:104A300002D0012B03D006E0864B7B6006E04FF4EA
:104A400000437B6002E0844B7B6000BF804B5B785F
:104A5000DBB203F03003002B23D07D4B1B7BDBB29A
:104A600003F00303012B1CD0794B1B78DBB203F05E
:104A70003803302B05D0382B07D14FF4C0637B802F
:104A80000EE04FF4A0637B800AE0714B1B78DBB231
:104A9000DB0803F00703202202FA03F37B8000BF48
:104AA00009E06B4B1B78DBB2DB0803F00703012244
:104AB00002FA03F37B807B887A68B2FBF3F37B60B6
:104AC00002E04FF400437B60614BDB78DBB203F024
:104AD000E003602B29D0602B06D8202B17D0402B69
:104AE0001CD0002B0CD09DE0A02B2CD0A02B02D8EA
:104AF000802B21D096E0C02B2CD0E02B31D091E040
:104B00007A6813469B001344DB017B608AE07A6875
:104B100013469B0013441B027B6083E07A681346B4
:104B20001B019B1ADB017B607CE07A6813469B00CB
:104B300013445B027B6075E07B684FF4377202FBC5
:104B400003F37B606EE07B684FF4B76202FB03F314
:104B50007B6067E07B6840F6950202FB03F37B60B5
:104B600060E07B6840F6713202FB03F37B6059E042
:104B7000374B1B79DBB29BB203F01F039BB20133AF
:104B80007B807B88334AB2FBF3F37B60304B5B79ED
:104B9000DBB29BB203F01F039BB218337B807A8891
:104BA0007B6802FB03F37B603CE0294B1B78DBB2A4
:104BB00003F0C003402B1AD1254B5B78DBB203F026
:104BC0000103002B03D14FF400437B602AE0204B0C
:104BD0001B7ADBB25B0803F00703012202FA03F33E
:104BE0007B807B881D4AB2FBF3F37B601AE0184B95
:104BF0001B78DBB203F0C003802B22D1144B1B7B4C
:104C0000DBB203F00303002B02D0012B03D006E03C
:104C1000104B7B6006E04FF400437B6002E00E4BDC
:104C20007B6000BF0E4B03F5825304331B681B0FE0
:104C300003F00F0301337A68B2FBF3F3094A136000
:104C400000E000BF0C37BD465DF8047B704700BF35
:104C50000040064080F0FA02006CDC0200093D00D2
:104C600000700440B004002000B5DFF80CC000DF85
:104C7000DFF808C000DFFEE7D94F0000F14F000069
:104C80002DE9F041334C237853B1334B1B68FF229D
:104C90009A70324A0020012310702370BDE8F08121
:104CA0002F4B3048196800F055FD10B18520BDE844
:104CB000F08101F005FC284B21781B68FF229A70D7
:104CC0000029E6D1284A1368002B40D0556845B129
:104CD0002A78002A39D1191D890089B2284600F0A6
:104CE000F9FD224B224A1E68156066B35D68EA1C16
:104CF000062A28D8DF68B7B139461A4800F038FDCF
:104D0000804600B3291D41EA072130460023424670
:104D100001F06CFA054670B94146124800F050FDAA
:104D2000144B1D60B5E7291D30463B463A4601F05D
:104D30005DFA054638B1104B104A013D53F8255035
:104D4000AB6A5A63ECE70025EAE70D46C9E71D4662
:104D5000C7E700BF484000208C40002049400020A9
:104D600004A90000183300201CA900000CA90000B1
:104D70000C3F0020E83E0020DC3E0020694C000093
:104D800038B5104C207808B1002038BD0E4D2B6886
:104D900093F8241001F0AEF92B68DA78FF2A08D0D6
:104DA0006A68094952B101F001FC01232370002017
:104DB00038BD9A6A203282F30988F1E781E80C0055
:104DC000F1E700BF494000208C4000202DE9F04170
:104DD000EFF3058414B18220BDE8F081EFF3148471
:104DE000E40704D5DFF800C100DFBDE8F081334CF3
:104DF000237853B1324B1B68FF229A70314A00204E
:104E0000012310702370BDE8F0812F4B2F481968E3
:104E100000F0A0FC10B18520BDE8F08101F050FB4E
:104E2000274B21781B68FF229A700029E6D1284A77
:104E30001368002B40D0556845B12A78002A39D133
:104E4000191D890089B2284600F044FD214B224AF1
:104E50001E68156066B35D68EA1C062A28D8DF68FC
:104E6000B7B13946194800F083FC804600B3291DCC
:104E700041EA072130460023424601F0B7F90546D2
:104E800070B94146114800F09BFC144B1D60B5E71A
:104E9000291D30463B463A4601F0A8F9054638B18F
:104EA0000F4B104A013D53F82550AB6A5A63ECE7AB
:104EB0000025EAE70D46C9E71D46C7E74840002040
:104EC0008C4000204940002004A900001833002035
:104ED0001CA900000CA900000C3F0020E83E0020A7
:104EE000DC3E0020694C0000814C000010B588B009
:104EF000EFF3058414B1822008B010BDEFF31484E1
:104F000004F00304022C1DD0032C14D0012C16D065
:104F100008AC84F309880F4C2478E40716D50224E2
:104F200084F31488BFF34F8FBFF36F8FDFF828C06F
:104F300000DF08B010BD074C2478E407F6D5FF2049
:104F400008B010BD034C2478E407EFD4032484F3A5
:104F50001488E7E7F4A80000814D0000002833D052
:104F6000F8B5066876B34768FB1C062B2AD8C268DA
:104F700004460D46BAB11146144800F0F9FB064646
:104F800000B36268E1682068043242EA01212B46DE
:104F9000324601F02BF9044660B931460B4800F067
:104FA0000FFC2046F8BD0B463046391D01F01EF9B6
:104FB000044638B1013C064B064A53F82400836A84
:104FC0005A63F8BD0020F8BD002070471833002058
:104FD000DC3E0020694C000008B501F083F818B1F0
:104FE0000138024B53F8200008BD00BFDC3E002012
:104FF00098B1830711D103787BB9C18C10B571B911
:10500000C0780C4601F07AF9FF280ED01CB1214679
:10501000074800F0D5FB002010BD80207047C46A0F
:10502000C07801F06BF9FF28F0D1812010BD00BFDE
:1050300018330020F8B5EFF305846CBBEFF314844C
:10504000E40702D41D4C24781CB1DFF880C000DFD7
:10505000F8BD08B30668FEB14768FB1C062B1BD8D9
:10506000C2680D460446CAB11146154800F080FBDF
:10507000064688B16268E1682068043242EA01218C
:105080002B46324601F0B2F8044678B931460C4856
:1050900000F096FB2046F8BD0020F8BD0B463046D8
:1050A000391D01F0A3F804460028F5D0601E054B19
:1050B000054A53F82000836A5A63F8BD494000202E
:1050C00018330020DC3E0020694C00005D4F0000DA
:1050D00010B5EFF305841CB9DFF808C000DF10BD80
:1050E000002010BDD94F000010B5EFF305840CB1BE
:1050F000822010BDDFF804C000DF10BDF14F0000BA
:1051000098B130B404689CB143689BB101290DD8B3
:10511000094C246864B11C7944B9012558611C60AC
:1051200059711A611D71184630BC70470020FBE7A9
:105130002046F9E71846F7E7E83E0020820703D14A
:1051400010B119B98620704780207047F8B52B4BF5
:105150001A68002312F1FF3643F1FF3704464FF47B
:105160007A70E0FB016730463946FBF7FDFC237996
:10517000012B10D0022B0CD1214D2B684BB19C423E
:1051800037D0194602E0944226D011460A68002A18
:10519000F9D18120F8BD1A4DE06002222B682271FE
:1051A0005BB19968884204D20EE0916881420DD8C3
:1051B00013461A68401A002AF7D10022A060226024
:1051C000A3B11C600020F8BD1A460023A0609168BE
:1051D0002260081A9060F3E722680A602268002AB9
:1051E000DED09668A16831449160D9E72C601846FA
:1051F000F8BD22682A601346F1E700BFF8A8000056
:105200004C400020830704D130B14369016918681C
:105210007047002001467047014670472DE9F04F66
:10522000294F3C6883B054B3A668DFF8A080013EE4
:10523000A660B9464FF0000A0EBBD8F800302568CA
:105240003D6023B193F800B0BBF1010F02D0042000
:10525000FEF74AFE1846019300F09EFB019B0028D2
:10526000F5D01846214600F09BFB6379012B09D04D
:1052700084F804B01DB1AE682C46002EDDD003B01A
:10528000BDE8F08FD9F80000E26858B1816891421A
:1052900004D90DE0996891420CD818460368521A57
:1052A000002BF7D1C4F800A0A26050B10460E1E780
:1052B00003463046A260996823608A1A9A600028E3
:1052C000F4D13C60D6E700BF4C4000200C3F0020EA
:1052D00030B5EFF3058404BBEFF31484E40702D484
:1052E000114C24781CB1DFF848C000DF30BD98B104
:1052F0000368A3B1436893B101290CD80B4D2D6805
:105300007DB11D793DB9012459711C7158611D6031
:105310001A61184630BD204630BD002030BD184609
:1053200030BD284630BD00BF49400020E83E002087
:105330000151000010B5EFF305840CB1822010BDBF
:10534000DFF804C000DF10BD3D51000008B50C4E71
:105350003568EFF305844FF0FF312846002CF8D173
:10536000DFF820C000DF1028F2D10846DFF818C0AF
:1053700000DF04460028EBD00846A047E8E700BF5E
:105380000C3F00205D5500000552000078B18307F6
:105390000DD103785BB90B0C1B0443B910B50B4658
:1053A000048BC17898B200F015FD204610BD4FF077
:1053B0000040704778B183070DD103785BB90B0CBF
:1053C0001B0443B910B50B46048BC17898B200F0AA
:1053D0002DFD204610BD4FF0004070472DE9F041F3
:1053E0004FEA10484FEA0848B8F1000F37D10D4690
:1053F000044698B180B2002937D1012200F0C4FCE4
:1054000002284FD0002D0CBF002340230024254646
:10541000184641462A462B46BDE8F081002938D07F
:105420004B1C4CD0294B994244D8294B1A684FF653
:10543000FE714FF47A73501E03FB0505B5FBF2F5C0
:105440008D423AD900224FF6FF7000F09DFC0228F1
:105450002BD1204B1A680823B2F81A80D6E7002116
:1054600086200A460B46BDE8F0814A1C2AD0174B1D
:1054700099421CD8164B1E684FF47A72731E4FF671
:10548000FE7102FB0533B3FBF6F38B42B5D899B23C
:10549000B3E742464FF6FF7000F076FC0228D8D002
:1054A0004346B3E7A0460823B0E74023AEE74FF6F4
:1054B000FE71A2E74FF6FE71C4E7A9B2C2E74FF64C
:1054C000FF71BFE74FF6FF7197E700BF00093D008E
:1054D000F8A800008C40002070B5EFF305851DB9D9
:1054E000DFF830C000DF70BD044678B183070DD10E
:1054F00003785BB90B0C1B040E463BB92346248B87
:10550000D978B0B200F09EFC204670BD4FF000404C
:1055100070BD00008D53000010B5EFF305841CB979
:10552000DFF80CC000DF10BD4FF0004010BD0000E0
:10553000B553000070B50446EFF3058545B908463C
:105540001146DFF814C000DF84E80700204670BD74
:1055500082230360204670BDDD530000F0B5044691
:1055600085B0002836D00378012B05D0002180209B
:105570000A460B4605B0F0BD03460C4681B90A4603
:1055800002A900F0B5F901282DD0002426462746AF
:105590001024029D2046294632463B4605B0F0BD08
:1055A0004A1C28D0154A91421AD8154A10684FF45F
:1055B0007A75411E4FF6FE7205FB0414B4FBF0F140
:1055C000914216D9184602A900F092F90128DCD1BF
:1055D000402109E0802021462246234605B0F0BD47
:1055E0004FF6FE72EEE721460024264627460C467B
:1055F000CFE78AB2E6E74FF6FF72E3E700093D0026
:10560000F8A800002DE9F0478046C08C244B8008A4
:105610008A4640D0D3F800900746D8F82C6006EBB5
:105620008704630748BF043C4FF08073A4F1400532
:1056300044F8043C44F808AC28463822002102F023
:105640001FFFD8F81C3044F8203C19F0805FC8F8E0
:105650002850C8F830A01AD0112F18D9A7F110007F
:105660004008431E0CD02A464FF0CC31013B42F893
:10567000041C42F8081DF9D1C000C0F1080005441F
:105680002B1F9E423CBF4FF0CC3345F8043C054BEA
:105690003360BDE8F0871B68C3F38D079946BCE70C
:1056A000ECA80000A52E5AE290F82520836A12B9D2
:1056B00020331960704760331960704710B490F858
:1056C0002540836A2CB9203383E806005DF8044B3B
:1056D0007047603383E806005DF8044B704700BFF5
:1056E000084B1B68DA0107D5074B1B68DB0703D59E
:1056F000064B1B68002B00DB7047054B01221A701C
:10570000704700BFFCED00E0800E00E0000E00E0FE
:105710005040002010B4094C2268084B002AFBD0EE
:10572000026B1A601A68054C002AFBD0C37843EA62
:10573000012189B221805DF8044B70477C0000E0B4
:1057400003490B68024A002BFBD0C0B210707047AF
:105750007C0000E0034648B1072907D9043900223C
:10576000084418605A5010465A607047012070472C
:1057700018B3F9B10B3110B4036821F0030102E052
:1057800018461B685BB144681A1A121B9142F7D87D
:105790004CB102190351516002F10803026018462E
:1057A0005DF8044B704700F1080341605DF8044B5D
:1057B000184670470B46184670470346FBE700BF84
:1057C000D0B1C9B110B4A1F10804A04216D0036849
:1057D00023B90DE01A68184652B113469C42F9D11C
:1057E00060B151F8083C036000205DF8044B70473D
:1057F00001205DF8044B7047012070470020606075
:10580000F3E700BF002A30B41FDB033222F00302AB
:105810000C24BAB113198B4214D8044401448D1AD4
:10582000A3189D4204604160826015D3002100E00E
:1058300003469818854263501144F9D2002018603D
:1058400030BC7047012030BC704722F00042073264
:1058500022F007021024DCE72346EFE7EFF3108382
:1058600072B6026803F001030AB11168016003B95E
:1058700062B61046704700BF81420DD3436899421B
:105880000AD2EFF3108372B602680A60016013F067
:10589000010003D162B670470120704700207047B5
:1058A000426882B110B500F01DF9044600F034FAE8
:1058B000012161702046FFF7F7FE21460448BDE84C
:1058C000104000F0E7B8428801324280704700BFC4
:1058D000584000201039002389080122C18102703C
:1058E000437083704360038143818381704700BFAD
:1058F00070B585890446CDB14389C289181D01332D
:105900009BB254F8200008609A42638104BF0023D0
:105910006381636813B16378022B1FD0EFF31083A8
:1059200072B6013DA58162B6002070BD16465AB11F
:1059300043685BB1174B196800F0ACF8304608219A
:1059400000F0A8FB012070BD012070BD114A126853
:1059500042600121536090604170EFE7204600F003
:10596000C1F800210546FFF79FFE2389E289E86917
:10597000191D01339BB29A4244F82100238104BFD0
:1059800000232381284600F0C7F9284600F044FB95
:10599000002070BD8C400020C2898089101A704799
:1059A00008B500F0CFF9BDE8084000F085BA00BFA7
:1059B000426870B50346002A4FD04678022E0D4645
:1059C000044625D0032E02D0012E10D070BD08460B
:1059D000FFF744FF05460028F8D0204600F082F883
:1059E00029460446FFF760FE0123637007E000F0DC
:1059F00079F804462A461021FFF760FE66702046BB
:105A000000F08AF921462248BDE8704000F042B813
:105A100000F068F800210546FFF746FE2389E96992
:105A20001A1D44F82210EFF3108272B6A2890132D7
:105A3000A28162B6E28901339BB29A42238104BFFC
:105A400000232381012328466B7000F065F9294665
:105A50000F48BDE8704000F01DB88489C589AC428C
:105A600010D20089061D43F82610EFF3108172B69C
:105A700001349C8162B6013080B2854214BF188126
:105A80001A8170BD0320BDE87040FEF72DBA00BF3B
:105A90005840002030B4057842688C78013DEDB262
:105AA000F2B19378A34204D20FE0987884420ED8E2
:105AB0001A465368002BF8D10023022D4B60516029
:105AC00000D900228A6030BC704713460246022D7E
:105AD0004B60516098BF9960F3D88A6030BC7047C2
:105AE0000246E9E702784368013A59684160022AB0
:105AF00007D811B1002288605A6000229A601846C7
:105B0000704700225A601846704700BF034B5A681E
:105B10004260002258608260704700BF58400020F9
:105B2000816830B4002931D00B780A461BB99268DD
:105B30001378002BFBD043684B60436803B1996036
:105B4000157851688478013DEDB200292ED08B780C
:105B5000A34204D20FE09A7894420ED819464B68BB
:105B6000002BF8D10023022D436048600BD900239D
:105B7000836030BC70470B461146022D436048607D
:105B800098BF9860F3D8816030BC70474378012B90
:105B9000EFD1074B5A68904204D01346002AF9D13E
:105BA000034ACDE742685A60014AC9E71146D9E77E
:105BB0005840002030B4164CE2681AB3A38A9942C8
:105BC00003D822E0D4689CB12246948A23449942A7
:105BD000F8D8D568C560D060C468026104B120619E
:105BE0005B1A9BB28382918ACB1A938230BC704736
:105BF0009BB2CB1A0021C16030BCD060026193829D
:105C00008182704713462246F3E715462246E1E7B4
:105C1000704000202DE9F041314EF068002856D048
:105C2000B58A013DADB2B582002D50D1DFF8B8E0A4
:105C30002C4B9EF80070B3F80080013FFFB24FF08C
:105C4000010C826832B14368536043680BB19A60BB
:105C500045608560DEF804208478002A39D0937886
:105C6000A34204D21BE099788C421AD81A46536892
:105C7000002BF8D1022F4560506000D900224378F4
:105C80008260042B828A17D0C36880F801C0DBB120
:105C90001E611349C5600561EAB91846D1E713468C
:105CA000114A4360022F506098BF9860E6D843784D
:105CB0008260042B828AE7D1C38A80F801C0434402
:105CC0008382C368002BE3D1B282F3600361BDE835
:105CD000F081054ACEE78A82CB60BDE8F08100BF43
:105CE00070400020544000205840002083682BB1B1
:105CF00042685A60426842B193607047054B5A68E7
:105D0000904203D01346002AF9D1704742685A6086
:105D1000704700BF58400020036973B1C268DA6061
:105D2000C16859B130B4828A9D8A00242A449A827B
